:020000040802F0
:10000000282005248903020837800208BD6D0208F4
:1000100035800208BF0B0208F7C502080000000087
:10002000000000000000000000000000519C0208D9
:100030002112020800000000D7980208F59F02086C
:10004000A3030208A3030208A3030208A3030208F0
:10005000A3030208A3030208A3030208A3030208E0
:10006000A3030208A3030208A3030208D90C020891
:10007000E50C0208F10C0208FD0C0208090D02084B
:10008000150D0208210D0208A3030208A3030208AC
:10009000A3030208A3030208A30302082312020811
:1000A000A3030208A3030208A3030208A303020890
:1000B000A3030208A3030208A3030208A303020880
:1000C000A3030208C96D0208C16D0208A303020858
:1000D000A3030208A3030208A3030208A303020860
:1000E000A3030208A303020800000000A303020800
:1000F000A3030208D9A10208A30302082D0D0208D8
:10010000A3030208A3030208A3030208A30302082F
:10011000F1A60208A3030208A3030208A30302082E
:10012000A3030208A3030208A3030208A30302080F
:10013000A3030208A3030208A3030208A3030208FF
:1001400000000000000000000000000000000000AF
:10015000A3030208A3030208A3030208C1AD020817
:10016000A3030208A3030208A3030208A3030208CF
:10017000A3030208A3030208A3030208A3030208BF
:10018000A3030208A3030208FDA60208A3030208B2
:10019000A3030208A3030208A3030208A30302089F
:1001A000A3030208A3030208390D0208A3030208EF
:1001B000A3030208A3030208A3030208A30302087F
:1001C000A3030208A3030208A3030208A30302086F
:1001D000A3030208398002086D0D0208A303020878
:1001E000A3030208A3030208A3030208A30302084F
:1001F000A3030208A3030208A3030208A30302083F
:10020000A3030208A3030208A3030208A30302082E
:10021000A3030208A3030208A3030208A30302081E
:10022000A3030208A3030208A303020800000000BE
:10023000A3030208A303020800000000A3030208AE
:10024000A3030208A3030208A3030208A3030208EE
:10025000A3030208A3030208A3030208A3030208DE
:10026000A3030208A3030208A3030208A3030208CE
:10027000A3030208A3030208A3030208000000006E
:10028000A3030208A3030208A3030208000000005E
:1002900000000000A303020800F002F800F065F877
:1002A0000AA090E8000C82448344AAF10107DA45D1
:1002B00001D100F05AF8AFF2090EBAE80F0013F0BE
:1002C000010F18BFFB1A43F0010318478CE003002D
:1002D000ACE003000A444FF0000C10F8013B13F0AF
:1002E000070408BF10F8014B1D1108BF10F8015B8F
:1002F000641E05D010F8016B641E01F8016BF9D182
:1003000013F0080F1EBF10F8014BAD1C0C1B09D1D8
:100310006D1E58BF01F801CBFAD505E014F8016B4A
:1003200001F8016B6D1EF9D59142D6D370470000DC
:100330000023002400250026103A28BF78C1FBD8EE
:10034000520728BF30C148BF0B6070471FB52FF060
:10035000B5FA00F0BBFA0400002000212FF098FA53
:10036000401C60601FBD10B510BD00F089FA114639
:10037000FFF7ECFF2AF098FF00F0BAFA03B4FFF79A
:10038000F2FF03BC00F01AFA094880470948004709
:10039000FEE7FEE7FEE7FEE7FEE7FEE7FEE7FEE735
:1003A000FEE7FEE704480549054A064B7047000092
:1003B00029A10208990202082808052428200524FA
:1003C000281C0524281C052453EA020C00F069802F
:1003D0002DE9F04B4FF00006002B1FBFB3FA83F559
:1003E00003FA05F424FA05F65E4012BF1643B2FA8A
:1003F00082F502FA05F4C5F120051EBF22FA05FCBC
:1004000044EA0C04203556EA044C4FEA144418BF61
:10041000641C4FF000084FF00009904271EB030C90
:1004200039D3002919BFB1FA81F701FA07F6B0FAFA
:1004300080F700FA07F6C7F120071EBF20FA07FC75
:1004400046EA0C062037B6FBF4FCA7EB0507103F85
:1004500007F01F0BCBF120062CFA06F60CFA0BFB6B
:1004600044BFB3460026202FA4BF5E464FF0000BCA
:100470005BEA060C08BF4FF0010B19EB0B0948EBC8
:100480000608ABFB027C06FB02CC0BFB03CCC01BBB
:1004900071EB0C01C1E70B46024641464846BDE8F8
:1004A000F08B13B5084318BF4FF0FF300146AFF390
:1004B0000080BDE81C40704770B5064600F036F974
:1004C0000468054630460A22002100F03EF92C60FF
:1004D00070BD40EA0103024630B59B0710D14FF0D2
:1004E000013400E008C208C91D1B9D4315EAC41F62
:1004F000F8D013F0FF0102F8011B0DD01B0AF8E73A
:1005000011F8013B002B02F8013B05D011F8013B2B
:10051000002B02F8013BF3D130BD10B5431C02E0C3
:1005200010F8011B71B18107FAD14FF0013202C8F6
:100530008C1A8C4314EAC211F9D0C01A0A0603D0EF
:10054000C01E10BDC01A10BD0A0401D0801E10BD0F
:100550000902FCD0401E10BD032A40F2308010F08A
:10056000030C00F0158011F8013BBCF1020F62444E
:1005700098BF11F801CB00F8013B38BF11F8013BDF
:10058000A2F1040298BF00F801CB38BF00F8013B8C
:1005900011F0030300F02580083AC0F0088051F8FC
:1005A000043B083A51F804CBA0E80810F5E7121D07
:1005B0005CBF51F8043B40F8043BAFF30080D20726
:1005C00024BF11F8013B11F801CB48BF11F8012BF2
:1005D00024BF00F8013B00F801CB48BF00F8012B15
:1005E000704710B5203AC0F00B80B1E81850A0E871
:1005F0001850B1E81850A0E81850203ABFF4F5AFF1
:100600005FEA027C24BFB1E81850A0E8185044BF4C
:1006100018C918C0BDE810405FEA827C24BF51F8B9
:10062000043B40F8043B08BF7047D20728BF31F8AD
:10063000023B48BF11F8012B28BF20F8023B48BFFE
:1006400000F8012B704702F0FF0343EA032242EA5D
:10065000024200F002B84FF0000200B51346944683
:100660009646203922BFA0E80C50A0E80C50B1F10A
:100670002001BFF4F7AF090728BFA0E80C5048BF1E
:100680000CC05DF804EB890028BF40F8042B08BFBC
:10069000704748BF20F8022B11F0804F18BF00F8B8
:1006A000012B70470000000030B44FF0013C50F8BF
:1006B000042BCCFA52F451F8043BD51A20D1FCB9E2
:1006C00050F8042BCCFA52F451F8043BD51A17D148
:1006D000B4B950F8042BCCFA52F451F8043BD51AB3
:1006E0000ED16CB950F8042BCCFA52F451F8043BFB
:1006F000D51A05D1002CDAD030BC4FF0000070477D
:1007000029BAB1FA81F111F01801D1F12000844029
:10071000F2D1CA40CB4012F0FF0213F0FF0330BC0D
:10072000D01A704770477047704700000048704704
:10073000C804002410B5FFF7F9FF006810BD10B51C
:100740000446FFF7F3FF046010BD2DE9F047914622
:100750000F4680460446002614F8015B2DB100F0D8
:1007600037F80068405DC007F6D12B2D02D02D2D43
:1007700018D0641E4A463946204600F031F827B1A9
:100780003968A14201D1C7F800804FF00204710519
:100790000BD54042002803DDFFF7C8FF0460A00727
:1007A000BDE8F08746F48066E4E70028F8DAFFF752
:1007B000BDFF04606FF00040F2E70000014918201F
:1007C000ABBEFEE72600020000487047C8040024C4
:1007D00010B500F07BF8001D10BD00BFB5F00200A1
:1007E0002DE9F05F824615468B4600270AF1010489
:1007F000B9460078302801D09DB113E014F8010B00
:100800000127782803D0582801D045B10AE00DB15E
:10081000102D07D1002714F8010B102502E0082540
:1008200000E00A250026B0460EE005FB080005FBA7
:1008300006F101271FFA80F801EB1046B6F5803F5C
:1008400000D3B94614F8010B294600F043F80028FC
:10085000EBDABBF1000F05D00FB1641E00E0544687
:10086000CBF80040B9F1000F06D0FFF75FFF02217F
:100870000160C81EBDE8F09F48EA0640FAE77047ED
:100880007546FFF7A1FFAE4605006946534620F0C6
:100890000700854618B020B5FFF784FDBDE820406D
:1008A0004FF000064FF000074FF000084FF0000B2C
:1008B000AC46ACE8C009ACE8C009ACE8C009ACE89B
:1008C000C00921F007018D467047000000487047BD
:1008D000E80400243A2800D2303820F02002412ACF
:1008E00001D3A2F13700884201D34FF0FF307047A7
:1008F00010B50446AFF300802046BDE81040FFF776
:100900003DBD0000B0B504460068364940F4807033
:10091000884214BF92483448006810F4403F0ED01B
:1009200004F086FC05466068B0F5803F05D0B0F560
:10093000403F20D0B0F5003F1ED1000C18E04FF42E
:100940000020002103F044FE05466068A0F58021E8
:100950004FEAB1410A290FD8DFE801F00606060682
:1009600006063A3C3E4042006FF0010101EA504069
:10097000B5FBF0F500E0AD0802F062FA41F20301C8
:10098000884209D820681C4A9542816834BF21F406
:10099000807141F4807119E01448854204D82068C0
:1009A000816821F4407111E01148854203D8206824
:1009B0000122816805E020680E4A9542816803D8CB
:1009C000022262F3092101E041F440718160B0BD6F
:1009D0002D09D1E76D09CFE7AD09CDE7ED09CBE7EB
:1009E0002D0AC9E7002102400823024021BCBE00B5
:1009F00041787D0181F0FA02012D31010146806BC1
:100A0000436D426D13F0500F05D0D2060FD4C06C69
:100A1000C26C0846104742F40071416501680B68DA
:100A2000CA681B0705D4910709D000F0BDBE00F0CD
:100A3000BDBE12F4406FF8D1C9688904F5D4416D88
:100A400021F480714165416DC904EED4416D41F0DE
:100A50000101416500F0A8BE806B416D41F040018D
:100A60004165816D41F00401816500F09FBE806B9E
:100A700000F09BBEB0B5016804468A688868C0076C
:100A80004FF0000020D012F002021DD1886800F063
:100A90000D00012816D188682F4A10400230886066
:100AA0000320086002F0D2F9054620688068C0077C
:100AB0000BD002F0CBF9401B0328F6D320688068E6
:100AC000C007F2D007F03BFBB0BD0020B0BD00BFB7
:100AD0002DE9F843044600688168C90724D11E4EF9
:100AE000816806F17F02114203D007F028FBBDE8C0
:100AF000F8838168314041F001018160174800F5B9
:100B0000807800F54277814602F0A0F9054620681A
:100B10001349404508BF3946484508BF394609686A
:100B2000404504D1C90602D00020BDE8F883016821
:100B3000C907F9D18168C90704D18168314041F002
:100B40000101816002F082F9411B20680329EED384
:100B50000168C907EBD1C8E7C0FFFF7F0020024052
:100B6000086302580000000000EE100A9FED0A1B07
:100B70009FED0B2B0C480068B8EE400B20EE000BED
:100B800080EE010B20EE020B80EE010BBCEEC00BE1
:100B900080ED0D0A704700BF0000000000E06F40CC
:100BA000000000000088C3408855002480B500681C
:100BB00013F069FF80B2BDE88040FFF7D5BFFEE7C4
:100BC000002070470020704710B5424C05490022B4
:100BD00020460AF090FA044920460AF07FFA0020E5
:100BE00010BD00BFB4240024B41C0024B0B50446DA
:100BF0000A880748214605F039FF364D2146284628
:100C00000AF06CFA28460AF047FA0020B0BD00BF8F
:100C10006856002410B50BF075FD214CA08800B378
:100C20006088A188BFF34F8F01441E4865291BD2FD
:100C30001D4901F01F0284320160203A2031202A30
:100C4000FADCBFF34F8F1849BFF36F8F60880844F9
:100C5000A18800F02BF8A0886188084460800020FB
:100C60001BE00020207019E00F4901F01F028432C0
:100C70000160203A2031202AFADCBFF34F8F0A4965
:100C8000BFF36F8F60880844618807F0D6FB0020AF
:100C900060806088A18808446438A080002010BD6E
:100CA000E00700245CEF00E06502002410B50A466E
:100CB00001460848D0F8BC02D0F8140208B101205F
:100CC00010BD044C20460AF016FA2046BDE810403C
:100CD0000AF086BAF8460024014801F057BA00BF6E
:100CE0007C4B0024014801F051BA00BFF44B0024B2
:100CF000014801F04BBA00BFE44C0024014801F068
:100D000045BA00BF5C4D0024014801F03FBA00BF66
:100D10006C4C0024014801F039BA00BF044B002498
:100D2000014801F033BA00BFD44D0024014801F05E
:100D30002DBA00BF4C4E00240A48416889070FD5E0
:100D4000016821F400710160816841F00201816055
:100D50000548017821B100210170406817F02CB8D6
:100D6000704700BF001000526C050024704700005F
:100D700010B50168234A914223D0234A91421CBFF7
:100D8000224A91421DD0224A91421CBF214A9142DF
:100D900017D0214A91421CBF204A914211D0204ACB
:100DA00091421CBF1F4A91420BD01F4A91421CBF67
:100DB0001E4A914205D01E4A91421CBF1D4A9142D3
:100DC00013D101F0F80218231EA4103AB2FBF3F37A
:100DD00003F00703E35CC36540F2FF3399435F2AE6
:100DE00088BF04318165084610BD134A9142E8D09E
:100DF000124A9142E5D0124A9142E2D021F0FF011D
:100E0000F0E700BF1000024028000240400002400E
:100E1000580002407000024088000240A0000240DA
:100E2000B80002401004024028040240400402407E
:100E3000580402407004024088040240B804024092
:100E4000A0040240000610160006101610B5016836
:100E5000AB4A91420BD0AB4A91421CBFAA4A914285
:100E600005D0AA4A91421CBFA94A914213D101F070
:100E7000FC011422154B0839B1FBF2F203F1800199
:100E800003EB820302F01F020124C0E9183104FAC7
:100E900002F2826610BD9F4A9142E8D09E4A91427A
:100EA000E5D09E4A9142E2D001F0F8021823084CA6
:100EB000103AB2FBF3F3A1421A4688BF0832AA34B3
:100EC000A14228BF1A46034BD8E700BF005802587A
:100ED0000F0402400008024070B501794A1E072A3B
:100EE0001AD8144B0568864E03F14404B5420BD062
:100EF000844EB5421CBF844EB54205D0834EB542E8
:100F00001CBF834EB54208D1012503EB8101C0E926
:100F10001B1405FA02F2426770BD7E4EB542F3D053
:100F20007E4EB542F0D07C4EB5421CBF024B03F161
:100F30004404E9E7FC580258FC080240F0B5964624
:100F400004685F4AD0F858C094423BD05D4FBC4221
:100F50001CBF5D4FBC4235D05C4FBC421CBF5C4FD8
:100F6000BC422FD05B4FBC421CBF5B4FBC4229D060
:100F70005A4FBC421CBF5A4FBC4223D0594FBC42AF
:100F80001CBF594FBC421DD0584FBC421CBF584FCC
:100F9000BC4217D0574FBC421CBF574FBC4211D068
:100FA000564FBC421CBF564FBC420BD0554FBC42A3
:100FB0001CBF554FBC4205D0544FBC421CBF544FC0
:100FC000BC4267D1C66ED0E919757D6016B1D0E913
:100FD0001C566E60944229D03A4A94421CBF3A4A49
:100FE000944223D0394A94421CBF394A94421DD0BE
:100FF000384A94421CBF384A944217D0374A944228
:101000001CBF374A944211D0364A94421CBF364A1C
:1010100094420BD0354A94421CBF354A944205D0C5
:10102000344A94421CBF344A944217D18268C06D3E
:101030003F2500F01F0005FA00F0CCF808002068FA
:1010400020F480202060402A636003D1C4F808E0C7
:10105000E160F0BDA160C4F80CE0F0BD2E4A9442FE
:101060001CBF274A94420BD0264A94421CBF264AF2
:10107000944205D0254A94421CBF254A944214D17B
:101080008268C06D012500F01F0005FA00F0CCF861
:101090000400D8E71F4FBC4294D01F4FBC4291D0F0
:1010A0001E4FBC423FF48EAFD7E71A4A9442E7D0B6
:1010B0001A4A9442E4D0114A9442B7D0CDE700BF17
:1010C0001000024028000240400002405800024048
:1010D0007000024088000240A0000240B8000240B8
:1010E0001004024028040240400402405804024018
:1010F0007004024088040240A0040240B804024088
:10110000085402581C54025830540258445402588F
:10111000585402586C54025894540258805402583F
:101120003E4A1154704700BF006858210022C16236
:101130006FF40070394920B10B18013083F8012297
:10114000F9E703484FF48071012201F074BE00BF3B
:10115000001402582DE9F04186B0044601A814217C
:10116000FFF779FA204604F055FE284E3078022821
:1011700015D0012833D0E8BB2548012100220127E2
:101180000025804601F057FECDE90355CDE90177F2
:1011900001A9404601F086FD3770582127E008205C
:1011A000059012210020049001200390CDE9010157
:1011B00001A9174801F076FD164D174817492A88EE
:1011C00005F054FC7088002818BF03203070288870
:1011D0002C214843216800F57A70C8620FE00C4862
:1011E0000121012201F027FE022030700821206831
:1011F000C16204E020687188C1620020307020461E
:1012000004F0C4FD06B0BDE8F08100BFE80700248B
:101210000000025898040024D45500240000002443
:101220007047402001F034BDEFF3108072B6FEE746
:101230002DE9F0410B680268C3B101F11C0522F4ED
:10124000F8420E1D38CD1A4347F6FF7322432A4356
:10125000026042689A4378CE1A434B6989692243F7
:101260002A4332431A431143416017E00F1D47F6EA
:10127000FF73D1F8208022EA030CD1E9062E496AD7
:10128000F8CF43EA0C0323432B4333433B431A4336
:1012900042EA0E0242EA0802114301600020BDE862
:1012A000F081426943F6FE739A4342EA410141618B
:1012B00000207047B0B591E81C006FF01F05C968A9
:1012C00005EB441405696FF315052A431A432243BD
:1012D00042EA412101610020B0BD0000F0B5836801
:1012E00022B3234A234D4C696FF00F071A40CB6895
:1012F00005EB03331A43204B03EB04531A4382607C
:10130000C26891E838000E69896902F07042013BB9
:1013100007EB0414013907F047FC1A43174B03EBA2
:1013200006431A4342EA0161C1601EE091E874007D
:101330006FF00F0703F07043013A07EB041407F056
:1013400033FC0E4C1A430B4B03EB06331A430B6969
:1013500004EB0343084C1A434B698969013904EBD8
:1013600003531A4342EA016181600020F0BD00BFCF
:10137000FF0F0FFF00F0FFFF0000F0FF0000FFFF76
:101380007CB504460020019094F85000012804BF69
:1013900002207CBD012084F8500016460D4607F05F
:1013A000AAFD616D10B141F0100127E041F2021277
:1013B000914305F48032144D0231616506F080419D
:1013C0000A4421688B682B401A4402F100428A606B
:1013D0000E4A8B68B3F1FF3F0CDC019B0133019394
:1013E000019B9342F5D3606D40F0100020F00201A4
:1013F000012003E0616D012262F30101002284F803
:10140000502061657CBD00BFC0FFFE3F00F8C325D2
:10141000BCB590F85020012A01D102212DE0002214
:10142000019200920368DC4A93421ED1D2F808313F
:10143000946823435B0718D40B68D2F8084324F45C
:101440004044E3B14D682C43C2F808439468D2F895
:1014500008512C43E40721D1D2F8084340F61F7508
:101460008968AC432143194316E0416D41F02001E6
:1014700041650121002280F850200846BCBDC2F819
:1014800008439168D2F808311943C90706D1D2F848
:10149000081340F61F739943C2F808130021E9E7C7
:1014A000F8B504460020009094F85000012804BFCD
:1014B0000220F8BD20680D46012184F85010826892
:1014C000520700F13381D5E90023160392FAA2F600
:1014D000B6FA86F608BF960EC2F3846206F01F06BF
:1014E000B140C6693143C1611F2603F01F01C3F338
:1014F00001238E4002FA01F100EB83031F6B27EA00
:1015000006063143196308F089F971D12968AA6880
:1015100006F098F89D48006800F07040B0F1805FD8
:1015200008D120680E22C16802EA51016A6902FAF4
:1015300001F10BE020686969C368C2685208DB06E4
:101540004CBF02F0080202F00E0291402A69042A00
:1015500026D12968026E890602F0F8428A4203D138
:10156000026E22F000420266426E02F0F8428A42A7
:1015700003D1426E22F000424266826E02F0F842CF
:101580008A4203D1826E22F000428266C26E02F06D
:10159000F8428A422CD1C16E21F00041C16627E099
:1015A0002B6803F0F843194300F1600353F82260FD
:1015B00006F00046314343F82210296953F82120F0
:1015C0006E7E22F00042012E08BF02F1004243F875
:1015D0002120297E2A6902F01F020139B1FA81F126
:1015E0004909C9029140026922F4F04211430161A4
:1015F0008168C9075BD1644B2968EE68D0F8C07078
:1016000001EA03029C4606F018032CFA03F3974301
:101610000B403B43C0F8C0305D4B9E4244D1EAB121
:1016200091FAA1F1B1FA81F2511C01F01E03092BCC
:1016300013461ED8013201F01F01012602F01F02DD
:1016400006FA01F14FF0806606EB836302EB42027B
:1016500003F0F84343EA0252114321E00122C1F3AF
:10166000846302EB916202F01E068A0E591C0A2E58
:10167000E0D30132474E01F01F0102F01F0202EBDE
:10168000420206EB02524FF0806606EB836303F0E2
:10169000F8431A43012303FA01F1114341F00071A9
:1016A000AA6805F0CFFF2968B1F1FF3F01DD0020F6
:1016B00041E0F1482368EF4AB34F00F5807543F4E9
:1016C0008076AB42154604BF42F20005C4F2020523
:1016D000834208BF1D46BE4245F442752D6811BFC6
:1016E00090688668D0F808013043C0071ED12B48A7
:1016F00005F0E076814208BF15F400001DD02848AF
:10170000814208BF15F0807031D00020254FB942CA
:1017100011D115F4800108BF93420CD1D2F808030F
:1017200020F0E070304340F4800029E0606D40F02C
:1017300020006065012008F00EB89342B7D1D2F8BE
:101740000803904920F0E070304340F40000C2F8F4
:1017500008038B480068B0FBF1F0022101EB400068
:10176000009000980028A2D000980138F8E7934232
:101770009DD1D2F8080320F0E070304340F0807033
:10178000C2F8080393E700BFFFFF0F000010005CE2
:101790000000FF47000020FE00200240000084CB34
:1017A000000052C70000B8CF704770477047000074
:1017B000F8B5044600200090A4B3606D30B920460F
:1017C00000F0EEF8002084F85000A06520688168E1
:1017D000890003D58168694A114081608168C90028
:1017E00013D46649826801F180511140654A01F1C4
:1017F0008051816062490968B1FBF2F101310091C9
:10180000009911B100990139F9E78168C9000BD439
:10181000616D012541F010016165A16D41F001018B
:10182000A16502E00125A6E000258168626D01F056
:10183000040102F010028918616D11D121F4817147
:10184000023161658168C90725D140F480724E4B31
:10185000C8499A4208D18A68D1F808311A4305E08C
:1018600041F01000012585E0484A1268D20712D1E4
:1018700001F5807201F54273444E90421A4618BF3A
:1018800006F54072884208BF1A461068616820F465
:101890007C100843106001F0D3FA41F203010022EA
:1018A000884288BF0122A068637DA0F11001B1FACF
:1018B00081F149091140226B16460CBF5E035A03A1
:1018C000237F42EA03423243002918BF1C2042EA28
:1018D0000001012B04D1206A2D4A02EB4040014354
:1018E000606A20B1A26A00F4787010430143206856
:1018F000284BC2681A401143C16007F08FFF2AD1FC
:10190000C16844F20302E36A9143227D43EA8232D2
:101910001143C160016994F83820012A0FD104F104
:101920003C0C1D4EA76C9CE80C1006EB02421B4EB3
:1019300031401943114341EA0C01394301E021F0E0
:1019400001010161616B026922F070421143016182
:101950002046FEF7D7FF2068E268012A016B21F0DC
:101960000F0102D1A269013A114301630121606DA7
:1019700061F3010060652846F8BD00BFC0FFFF5F4E
:1019800024030024400D0300002102400860025897
:101990000000FEFF03C0F0FF0100FFFF1EF800FC87
:1019A000F0B587B004460020324ACDE90500216831
:1019B000914236D06F4881425AD1304800260168A2
:1019C00041F020010160016801F0200101910199BD
:1019D000816841F004018160806800F0040001909A
:1019E00004960320039020200290019802A9264823
:1019F00001F058F9254D23484FF4807C4FF40051F5
:101A00004FF400624FF4806309277830C5E9086617
:101A1000C5E90007C5E90266C5E90432C5E9061C47
:101A20001EE01649164D4FF4807C4FF4005E4FF4D3
:101A300000664FF48067134B8A6842F080728A60B8
:101A4000C5E90800C5E90200C5E90476C5E906EC68
:101A50007322C5E90032886800F080700190019817
:101A6000284600F043FE08B1FFF7DEFBAC63E564F7
:101A700007B0F0BD0060025800200240D844025870
:101A80007C4B00241000024000080258044B002444
:101A90002DE9F041044637480E46374B904600F595
:101AA000807700F542722168B94208BF134681422F
:101AB00008BF134618688968490703D494F8501082
:101AC000012902D10220BDE8F08110F01F054FF07E
:101AD000010084F8500018BF092D42D12046FEF7BE
:101AE000F7FF20B1002184F85010BDE8F081216893
:101AF000606D40F601729043B94200F580706065F8
:101B000000D11DB9606D20F480106065606D002209
:101B10001A4B1C4DC00444BFA26D22F00602A26500
:101B20001C220A6000204A6842F010024A6084F8D1
:101B30005000E06CE26AC364114BC0E90F53CB68FC
:101B400023F003031A43CA6040314346324600F093
:101B500071FF21680C4B8A681A4004328A60BDE824
:101B6000F081052DBAD0002084F850000120BDE896
:101B7000F08100BF0020024008630258590A0208A1
:101B80006F0A0208FD090208C0FFFF7FF0B590F858
:101B900060300222012B45D080F86120C1EBC102E8
:101BA00000EB8206D6E90B74D6E90DE5F26BA7F1DE
:101BB000090C4FEA0E63BCF1020F38BF0EF07F43F1
:101BC000240444EA055444EA425206F128041A4324
:101BD00042EA0705A9B114490B2F04D1326CA1F5D3
:101BE000402145EA82450668F26911402943F161C6
:101BF000BCF1010F2168316112D82EF07F413162B2
:101C00000EE00168084B4A6A1A402A434A62BCF156
:101C1000010F22688A6103D8426B22F07F428A62F8
:101C200006F087FE1046F0BDF0FFCC00A0B370B503
:101C3000044690F8610028B9002084F8600020462E
:101C400000F02EF8022084F86100144E94E80F0092
:101C5000056835402943E5692943016040F20715CD
:101C6000416BA9431143A269114341634FF6FF72CF
:101C7000016C9143194301642169426B22F44012C3
:101C800042EA0151626941EA4251416300206066C3
:101C9000012184F8611070BD01207047BFFFF8FF7B
:101CA00081B000680749884209D10748016841F0BE
:101CB00010010160006800F010000090009801B071
:101CC000704700BF00100052D4440258F8B50446D3
:101CD00001F0BCF8002C00F09080054694F8350027
:101CE000022840F08C802768A44EB74224D0A44834
:101CF00087421CBFA34887421ED0A34887421CBF0F
:101D0000A248874218D0A24887421CBFA1488742F8
:101D100012D0A14887421CBFA04887420CD0A048DF
:101D200087421CBF9F48874206D09F4887421CBFFE
:101D30009E48874240F0E780386820F01E01384610
:101D400040F8141B6FF08001026811400160B74237
:101D50003CD08B4887421CBF8A48874236D0F44823
:101D600087421CBFF348874230D0F34887421CBFEC
:101D7000F24887422AD0F24887421CBFF148874286
:101D800024D0F14887421CBFF04887421ED0F0485B
:101D900087421CBFEF48874218D0EF4887421CBFDC
:101DA000EF48874212D0ED4887421CBFED4887427A
:101DB0000CD0ED4887421CBFEC48874206D0EC4867
:101DC00087421CBFEB48874240F0C080206E01680C
:101DD00021F480710160386820F0010038603868B3
:101DE000C00710D001F032F8401B0628F7D320209E
:101DF0006065032084F8350003E00120F8BD8020F1
:101E0000606501207CE02068B04223D0C64988424A
:101E10001CBFC64988421DD0C54988421CBFC54960
:101E2000884217D0C44988421CBFC449884211D097
:101E3000C34988421CBFC34988420BD0C24988426B
:101E40001CBFC249884205D0C14988421CBFC14954
:101E5000884268D1D4E916123F2302F01F0203FA28
:101E600002F28A60B0423BD0AF4988421CBFAF4902
:101E7000884235D0AE4988421CBFAE4988422FD037
:101E8000AD4988421CBFAD49884229D0AC4988423F
:101E90001CBFAC49884223D0AB4988421CBFAB4928
:101EA00088421DD0AA4988421CBFAA49884217D03F
:101EB000A94988421CBFAA49884211D0A749884233
:101EC0001CBFA84988420BD0A74988421CBFA7491C
:101ED000884205D0A64988421CBFA649884242D103
:101EE000E06ED4E919124A6030B1016821F48071C2
:101EF0000160D4E91C014160012084F83500002014
:101F000006F04EFEF8BD944887423FF415AF934863
:101F100087423FF411AF924887423FF40DAF6FF014
:101F20000E01384610E78C49884293D08B4988428D
:101F300090D08B4988423FF48DAFD4E9161201232B
:101F400002F01F0203FA02F24A608BE78A488742D6
:101F50003FF43CAF894887423FF438AF8848874216
:101F60003FF434AF37E784498842B9D08349884287
:101F7000B6D083498842B3D0BEE700BF100002400C
:101F80002800024040000240580002407000024019
:101F900088000240A0000240B80002401004024045
:101FA00028040240400402405804024070040240E9
:101FB000B0B500285CD090F83510022956D10168E0
:101FC000584A914223D0584B99421CBF574B9942D3
:101FD0001DD0574B99421CBF564B994217D0564BB8
:101FE00099421CBF554B994211D0554B99421CBF89
:101FF000544B99420BD0544B99421CBF534B9942BE
:1020000005D0534B99421CBF524B994233D1042304
:1020100080F83530914223D0434881421CBF434869
:1020200081421DD0424881421CBF4248814217D0A4
:10203000414881421CBF4148814211D04048814201
:102040001CBF404881420BD03F4881421CBF3F48E3
:10205000814205D03E4881421CBF3E4881424DD15D
:10206000086820F001000860002102E0802141653D
:1020700001210846B0BD384B9942C8D0374B994230
:10208000C5D0374B9942C2D00A6822F00E020A60CE
:102090000A6822F001020A60324A91420BD0324AA9
:1020A00091421CBF314A914205D0314A91421CBF36
:1020B000304A91422BD100F158041ECC1D6825F402
:1020C00080751D6002F01F02012303FA02F24A60CC
:1020D000816E6160C16E31B10A6822F480720A605B
:1020E000D0E91C124A60002180F83410012280F8E7
:1020F0003520026D002ABCD09047B5E716488142D2
:10210000AED016488142ABD015488142A8E71A4AA2
:102110009142D0D0194A9142CDD0194A9142CAD0A9
:10212000E1E700BF100002402800024040000240EA
:10213000580002407000024088000240A0000240A7
:10214000B80002401004024028040240400402404B
:10215000580402407004024088040240B80402405F
:10216000A0040240085402581C540258305402582B
:1021700044540258585402586C540258945402580B
:102180008054025890F83500704700002DE9F8435C
:10219000044600200090C34FDFF8F804D4F85890AC
:1021A000D0F800802068D9F80060D9F80010B84253
:1021B0002AD0BD4A90421CBFBC4A904224D0BC4A9F
:1021C00090421CBFBB4A90421ED0BB4A90421CBFEB
:1021D000BA4A904218D0BA4A90421CBFB94A9042BB
:1021E00012D0B94A90421CBFB84A90420CD0B84AAB
:1021F00090421CBFB74A904206D0B74A90421CBFDB
:10220000B64A904240F09A81E16D082201F01F0128
:102210008A40324236D004233D46B84224D0A24FF1
:10222000B8421CBFA14FB8421ED0A14FB8421CBF3C
:10223000A04FB84218D0A04FB8421CBF9F4FB84221
:1022400012D09F4FB8421CBF9E4FB8420CD09E4F39
:10225000B8421CBF9D4FB84206D09D4FB8421CBF2C
:102260009C4FB84240F0958107681F422F4609D025
:10227000036823F004030360C9F80820626D42F08C
:102280000102626501228A4032422FD0B84224D036
:10229000854B98421CBF854B98421ED0844B984278
:1022A0001CBF844B984218D0834B98421CBF834B71
:1022B000984212D0824B98421CBF824B98420CD05D
:1022C000814B98421CBF814B984206D0804B98426C
:1022D0001CBF804B984240F0698143691B0605D5BD
:1022E000C9F80820626D42F00202626504228A4049
:1022F00032422FD0B84224D06B4B98421CBF6B4B5C
:1023000098421ED06A4B98421CBF6A4B984218D024
:10231000694B98421CBF694B984212D0684B984257
:102320001CBF684B98420CD0674B98421CBF674B50
:10233000984206D0664B98421CBF664B984240F0CC
:10234000438103689B0705D5C9F80820626D42F0F8
:1023500004026265102202FA01F131423FD00822E4
:10236000B84224D0CC4B98421CBFCC4B98421ED0D4
:10237000CB4B98421CBFCB4B984218D0CA4B9842CB
:102380001CBFCA4B984212D0C94B98421CBFC94BC4
:1023900098420CD0C84B98421CBFC84B984206D0FC
:1023A000C74B98421CBFC74B984240F01B81036843
:1023B000134214D0C9F8081002680168520306D409
:1023C000C90506D4016821F00801016001E0080395
:1023D00001D4216C00E0A16C09B120468847E06D72
:1023E00000F01F01202000FA01F232427CD0206868
:1023F0001023B84224D0A84EB0421CBFA74EB04212
:102400001ED0A74EB0421CBFA64EB04218D0A64E5A
:10241000B0421CBFA54EB04212D0A54EB0421CBF68
:10242000A44EB0420CD0A44EB0421CBFA34EB0424A
:1024300006D0A34EB0421CBFA24EB04240F0DF8097
:1024400006681E4250D0C9F8082094F8353002685A
:10245000042B16D122F016020260426922F080029B
:102460004261226C0AB9A26C1AB1026822F0080219
:1024700002603F208840C9F8080006F034F8216D5A
:1024800057E00168520308D4C90529D4016821F036
:102490001001016006F027F822E0080320D4616CE7
:1024A0001FE000BF10000240280002404000024030
:1024B000580002407000024088000240A000024024
:1024C000B8000240100402402804024040040240C8
:1024D000580402407004024088040240A0040240F4
:1024E000E16B09B120468847606D00284FD0606DD0
:1024F000C0071DD04FF41650B8FBF0F1042084F84B
:1025000035002068026822F001020260009A013260
:1025100000928A4202D80268D207F7D106F040FB47
:102520000068C0074FF0030008BF012084F83500A1
:10253000E16C61B32046BDE8F8430847644A904225
:102540001CBF644A90420CD0634A90421CBF634A4D
:10255000904206D0624A90421CBF624A904240F0CC
:102560008C80E26D02F01F03042202FA03F6026877
:102570000E4201D057074FD402269E400E4201D092
:10258000970754D4D940090701D5110762D4BDE893
:10259000F8834D4FB8423FF467AE4C4FB8423FF41A
:1025A00063AE514FB84218BF08235DE6464B9842D0
:1025B0003FF493AE454B98423FF48FAE4A4B98425E
:1025C0003FF48BAE026891E63F4B98423FF4B9AEC0
:1025D0003E4B98423FF4B5AE434B98423FF4B1AE08
:1025E0000268B7E6384B98423FF4E1AE374B984269
:1025F0003FF4DDAE3C4B984218BF0422D7E6324E82
:10260000B0423FF41DAF314EB0423FF419AF364EE9
:10261000B04218BF022313E71104C9F8046013D4B1
:10262000910615D4016821F00401016010E0110445
:10263000C9F804601BD491061DD4016821F00A0179
:10264000016005F050FF16E0D00301D4A16C70E7E3
:10265000216C6EE7016821F00E010160012000FA93
:1026600003F1C9F80410606506F09AFA5EE7D0033A
:1026700001D4616C5DE7E16B5BE7E94A90423FF4AE
:1026800070AFE84A90423FF46CAFE74988423FF4AC
:10269000BBAD7CE724030024280002404000024038
:1026A000580002407000024088000240A000024032
:1026B000B8000240100402402804024040040240D6
:1026C000580402407004024088040240A004024002
:1026D00094540258085402581C540258305402585A
:1026E0004454025858540258B80402402DE9F843A3
:1026F000044600F0ABFB002C46D005462068B94FDD
:10270000B8422AD0B84988421CBFB849884224D070
:10271000B74988421CBFB74988421ED0B649884293
:102720001CBFB649884218D0B54988421CBFB5497C
:10273000884212D0B44988421CBFB44988420CD0A8
:10274000B34988421CBFB349884206D0B249884287
:102750001CBFB249884240F0EB80022184F835105A
:1027600006F01EFA016821F001010160206801688D
:10277000C9070CD000F06AFB401B0628F6D32020C6
:102780006065032084F835000120BDE8F883016806
:10279000A64AB946D4E90257D4E906C301EA0208B9
:1027A000D4E90462D4E9081E45EA08053D433543EF
:1027B0002A431A43114341EA0C01BEF1040F03D12D
:1027C000D4E90B231A431143994A1268B2F1005F0E
:1027D00014D365684F46A5F12902062A0BD3A5F14B
:1027E0003F02042A07D3A5F14702022A03D3A5F129
:1027F0004F02032A03D841F4801100E04F460160E4
:10280000BEF1040F416921F0070141EA0E0128D110
:10281000D4E90A53294323B3BCF5005F08D0BCF1C7
:10282000000F11D1022D12D0012D07D07DB118E07B
:10283000032D16D8DFE805F00E0B0E02A3F1C072CF
:10284000B2FA82F2520904E0032D03D309D1C3F393
:10285000006232B140206065012084F83500BDE897
:10286000F883416106F035FE06F098FC2068B84216
:102870003BD0E44988421CBFE349884235D0E34954
:1028800088421CBFE24988422FD0E24988421CBFDF
:10289000E149884229D0E14988421CBFE049884289
:1028A00023D0E04988421CBFDF4988421DD0DF4960
:1028B00088421CBFDE49884217D0DE4988421CBFCF
:1028C000DE49884211D0DC4988421CBFDC4988427D
:1028D0000BD0DC4988421CBFDB49884205D0DB496C
:1028E00088421CBFDA4988426FD12046FEF7AEFA13
:1028F000A06804F16003802806BF00206060606863
:10290000C5B20ECB013807280D60536005D82046AC
:10291000FEF7E2FA06F07BFF03E00020C4E91B00AB
:10292000606700206065012184F83510BDE8F883F8
:10293000C94988421CBFC24988420BD0C14988425C
:102940001CBFC149884205D0C04988421CBFC0494C
:1029500088422ED1022104F1080584F8351006F0D2
:102960001FF92ECD06686FF3101646EAD202A1F1C8
:102970008006B6FA86F67609B603402908BF102607
:1029800042EA0601D4E9066232432A431A4341EA85
:10299000D201226A41EA121140F80819C0B214218A
:1029A000B0FBF1F08000E06506F093FD06F092FACE
:1029B0005CE7A8498842CDD0A8498842CAD09E4940
:1029C00088423FF4CAAE4020DAE6A24988428CD061
:1029D000A14988423FF489AFA04988423FF485AFBE
:1029E0009FE700BF10000240280002404000024064
:1029F000580002407000024088000240A0000240DF
:102A0000B800024010040240280402404004024082
:102A1000580402407004024088040240A0040240AE
:102A20006C54025880540258B80402403F8010FE93
:102A30000010005CB0B5002800F0B58005F0E3FEA2
:102A400004BF0220B0BD06F0F7FD40F0AA8005F0FB
:102A500059FB20686A49884224D06A4A90421CBFC8
:102A6000694A90421ED0694A90421CBF684A90420F
:102A700018D0684A90421CBF674A904212D0674AF9
:102A800090421CBF664A90420CD0664A90421CBFDE
:102A9000654A904206D0654A90421CBF644A904203
:102AA00040F0838002680B2363F344020260226CCF
:102AB0001AB1082203681A43026088423BD0514A87
:102AC00090421CBF504A904235D0504A90421CBFA1
:102AD0004F4A90422FD04F4A90421CBF4E4A9042DC
:102AE00029D04E4A90421CBF4D4A904223D04D4AB5
:102AF00090421CBF4C4A90421DD04C4A90421CBF91
:102B00004B4A904217D04B4A90421CBF4B4A9042CE
:102B100011D0494A90421CBF494A90420BD0494AC1
:102B200090421CBF484A904205D0484A90421CBF80
:102B3000474A904259D1226E1368DB0303D51368CC
:102B400043F480731360E26E1AB1136843F4807328
:102B50001360884223D02B4988421CBF2A498842EF
:102B60001DD02A4988421CBF2949884217D02949CB
:102B700088421CBF2849884211D0284988421CBF7E
:102B8000274988420BD0274988421CBF26498842E2
:102B900005D0264988421CBF254988421CD106F031
:102BA000E1BB06F0D1FD0120B0BD224A90423FF4C6
:102BB00079AF214A90423FF475AF204A90423FF4EA
:102BC00071AF0268052363F343020260226C002A9E
:102BD0003FF473AF04226DE716498842DFD01649EF
:102BE0008842DCD015498842D9E71A4A9042A2D0DF
:102BF000194A90429FD0194A90429CD0CFE700BF1B
:102C000010000240280002404000024058000240EC
:102C10007000024088000240A0000240B80002405C
:102C200010040240280402404004024058040240BC
:102C30007004024088040240B8040240A00402402C
:102C4000085402581C540258305402584454025834
:102C5000585402586C5402589454025880540258E4
:102C6000B0B5044600F0F2F805460548611C00784E
:102C700018BF044400F0EAF8401BA042FAD3B0BDEC
:102C80001C030024402818BF704707F021BD000036
:102C900003490A68024208BF70470860FFF7F2BFA5
:102CA000880000582DE9FC4F5B4A0A244FF0000AC7
:102CB0004FF0000B9042594A08BF092402444FEAE2
:102CC000B223092B38BF4FEAB22400940127002217
:102CD0000E6836FA02F500F09C8007FA02F916EA4F
:102CE000090E00F090800323D1F804C003FA0BF51D
:102CF0000CF00308EE43A8F10105012D12D88568F8
:102D00005346D1F80CA00AFA0BF435409A462C43EE
:102D10008460CCF300144568944025EA09052C43EF
:102D2000446005E0B8F1030F02D14FF0030820E042
:102D3000C4688D68344005FA0BF52C43C460B8F1C3
:102D4000020F16D10AF01C040F2303FA04FC6FF0E3
:102D5000030303EA520303441D6A25EA0C0C0D69C0
:102D600005FA04F444EA0C041C62D1F804C00CF027
:102D70000308046808FA0BF33440234303601CF48F
:102D8000403F40D0274C284E236843F00203236085
:102D900023680F2403F002030193019D0AF00C0342
:102DA00022F003059C40AF5927EA0404009F07FA6C
:102DB00003F32343AB514FF0B04633684D6843EA09
:102DC0000E04EF0258BF23EA0E043460144EAF0223
:102DD000336843EA0E0458BF23EA0E043460AF039D
:102DE000D6F880304FF0010743EA0E0458BF23EABB
:102DF0000E04C6F88040ED03F36F43EA0E0458BF9B
:102E000023EA0E04F4670AF1040A0BF1020B013203
:102E10005EE7BDE8FC8F00BF002402580000FEA75B
:102E200004000058F444025808040058006908409F
:102E300018BF01207047002A08BF0904816170474C
:102E400001480068000C70470010005C01480068F1
:102E5000704700BF2408052410B548B10446D0F8D7
:102E6000880008B905F08BFC06F04CF8012801D168
:102E7000012010BDA06A08B106F032FA06F05BF935
:102E800021F022018160816841F00801816005F034
:102E90008FFDBDE8104007F0ADBC90F84120202A1E
:102EA00003D190F84020012A01D1022111E024220F
:102EB00080F841200268136823F00103136013684F
:102EC00023F48053136013681943734605F02BF9FC
:102ED0009E460846704790F84120202A03D190F87A
:102EE0004020012A01D1022110E0242280F8412053
:102EF0000268136823F001031360136823F47063FE
:102F000043EA0121734605F00EF99E4608467047D4
:102F10007047704710B501688B690A68DC0508D5F1
:102F2000140606D5446C44F0010444644FF48074E4
:102F3000CC615C0508D5140606D5446C44F0080441
:102F400044644FF48064CC619B0508D5120606D515
:102F5000426C42F0020242644FF40072CA61416C5A
:102F600011F00B0F08BF10BDBDE8104003F0BEBF4D
:102F70000268436B9169126803B118477047704744
:102F800000B3B0B5044690F8410018B906F09EFCB5
:102F900000F010F9242084F84100D4E90003D4E9BA
:102FA000021223F07063012A056825F0010505600F
:102FB0000361836823F40043836005D141F4004139
:102FC000816009E001207047022A41F404418160D8
:102FD00002D14FF40061416041680F4A04F11005CD
:102FE00011434160C16821F40041C1602ECD1143FD
:102FF00041EA0321C160216A29430160016841F06F
:103000000101016000206064202184F841102063E8
:1030100084F84200B0BD00BF00800002704700008D
:103020002DE9F84305F069FA02D106F0BFF803D1A3
:1030300002273846BDE8F88306F06AF905F052FF2A
:103040000028F6D1222006F01BF82648B1F5807F33
:1030500006D3FF2121850090204606F0F5F901E016
:1030600006F0BAFA414604F0E9F9089F0025FF2668
:10307000608D48B3204639464A4604F02DFA40BBDD
:1030800005F014FCF4D00004F2D120468021002287
:103090003B4605F0C9FEE0B905F0D2FE21BF26850A
:1030A00000952046414627BFFF224FF08073608D78
:1030B00020853FBF0095C2B22046414638BF4FF041
:1030C000007304F0BBF9D3E72046394606F02FFB26
:1030D00008B10127ADE7206820210027344B06F016
:1030E0001FF8A6E7002400802DE9F84305F005FA53
:1030F00002D106F05BF803D102273846BDE8F88319
:1031000006F006F905F0EEFE0028F6D1212005F0C4
:10311000B7FF2648B1F5807F06D3FF2121850090B7
:10312000204606F091F901E006F056FA414604F017
:1031300085F9089F0025FF26608D48B32046394653
:103140004A4604F029FA40BB05F083FCF4D00004A1
:10315000F2D12046802100223B4605F065FEE0B911
:1031600005F06EFE21BF268500952046414627BF0B
:10317000FF224FF08073608D20853FBF0095C2B263
:103180002046414638BF4FF0007304F057F9D3E7AB
:103190002046394606F0CBFA08B10127ADE7206892
:1031A00020210027024B05F0BBFFA6E7002000808E
:1031B00000E800FE2DE9F047B8B0044602A8B821A7
:1031C0000830FDF748FA20682D49884255D108207B
:1031D0004FF00008CDF80C80029002A801F040FBEF
:1031E00008B1FEF721F8274F4FF004094FF0010A0C
:1031F0001226254C386840F080003860386800F0AE
:10320000800033903398386840F0020038603868A6
:1032100000F002000190CDE93689CDF8D4A03496B3
:1032200020203390019833AD04F5C0502946FFF7B4
:1032300039FD4FF4806033902946CDE93689CDE9D8
:10324000346A2046FFF72EFDB8680021002240F4C2
:103250008000B860B86800F48000019001982120D7
:1032600000F03AFA212000F027FA22200021002263
:1032700000F032FA222000F01FFA38B0BDE8F087E3
:1032800000580040E044025800040258704770475C
:103290002948034900780A6810440860704700BF55
:1032A0002408052480B5032000F03CFA01F0F6FF65
:1032B0000E490F4B0A68096801F00F01C2F303229F
:1032C000595C9A5C01F01F0102F01F02D0401B4ABA
:1032D0001060C840074908600F2000F00DF808B1E1
:1032E000012080BD00F0D8F9002080BD18440258AC
:1032F00044F904082803002470B50F4E04463078C2
:10330000B0B14FF47A71B1FBF0F00C490968B1FB30
:10331000F0F002F079FC01250F2C0AD848B94FF0E3
:10332000FF3021460022002500F0D6F9746000E04D
:103330000125284670BD00BF1C030024240300247F
:10334000F8B505F05DFB0AD006F0C6F805F090FB75
:1033500020684762002084F8A00084F8A170F8BDBE
:10336000002863D0B0B5044690F8A10028B9002029
:1033700084F8A000204600F05DF8022084F8A10047
:1033800094E80F0011438569194325F07045856164
:1033900022691143826911438161826824490A408C
:1033A0008260D4E9052343EA024283681A438260BB
:1033B000C2680A40C260C268D4E9073545EA0343DF
:1033C0001A43C26002690A4002610269D4E9093500
:1033D00045EA03431A430261426911404161416970
:1033E000D4E90B2343EA024211434161C16A01F06F
:1033F0007F41C16294F8362094F83510120442EAF5
:10340000012194F834201144C26A1143C162416B16
:1034100041F006014163816941F0010181610020B1
:10342000C4F8A400012184F8A110B0BD01207047A8
:1034300000F800F02DE9F04FB7B0044632A814218F
:10344000FDF709F902A8B8210830FDF704F9206852
:103450006D49884240F0D5804FF0005002904FF007
:1034600000090224CDF80C90CDF84890CDE90E4427
:103470000A2010904FF4A5700D9018200C9002A80F
:1034800001F0EEF908B1FDF7CFFE60484FF00E0AEB
:10349000604E416841F008014160416801F0080157
:1034A00004F0FDFF41F002010160016801F002013A
:1034B00004F0F5FF41F040010160016801F04001B6
:1034C00004F0EDFF41F010010160016801F010010E
:1034D00004F0E5FF41F008010160016801F0080116
:1034E00004F0DDFF41F001010160016801F001011C
:1034F00004F0D5FF41F480710160016801F480712E
:1035000004F0CDFF41F080010160016801F080010D
:1035100004F0C5FF41F004010160016801F00401FD
:1035200004F0BDFF41F020010160006800F02000C0
:1035300001900198CDE9354ACDE933494FF4306027
:10354000329032AD3248294600F5806883464046C5
:10355000B0474FF403500BF5C05704F08BFD3846CD
:10356000B047702004F086FD0BF58050B04709206D
:10357000CDE935402946CDE933494FF4A05032908A
:103580003846B047482004F075FD0BF54060B04761
:1035900040F27E4004F06EFD5846B0474FF40060A4
:1035A000329029460927CDE93547CDE933490BF556
:1035B0000050B0470D20CDE935402946CDE93349CB
:1035C0004FF4807032905846B047102004F052FDFE
:1035D0000BF5E050B047412004F04CFD0BF50060C6
:1035E000B0474FF4806004F045FD0BF5A050B047A4
:1035F000032032902946CDE93547CDE9334940468D
:10360000B04737B0BDE8F08F00100050E0440258DA
:1036100000000258A52C02080278114943780B607B
:10362000D2B143684B60037B42EA0372C37A42EA39
:103630000362837A42EAC342437B42EA8342837B4A
:1036400042EA4342C37B42EA0342437A007A42EAB7
:10365000032242EA400001E0002048608860704791
:1036600098ED00E00B48BFF35F8F016821F48031D3
:103670000160002101677047064940F001000867BA
:10368000086840F480300860BFF34F8FBFF36F8F3E
:10369000704700BF24ED00E081B00648016841F0AA
:1036A00002010160006800F002000090009801B083
:1036B000704700BFF4440258002809D400F01F01ED
:1036C00080B2012202FA01F14009024A42F82010B8
:1036D000704700BF00E100E0F0B5184B4FF0FF3637
:1036E0001C68C4F30224E51E84F0070438BF0025DB
:1036F00006FA05F7BA43042C28BF042406FA04F49A
:10370000A14300F00F04A940043C1143044A2344A0
:1037100009010244002848BF03F10C021170F0BDFA
:1037200000E400E005494FF6FF030A681A4060F321
:103730000A22034810430860704700BF0CED00E008
:103740000000FA0501688A6942F000628A6101227C
:10375000C0F80025002280F8F424486D024A104386
:1037600048650020704700BF0300001070470068E4
:1037700041620020704770B50068436AB1B1846A45
:103780000139002503EB1443CCB2A54207D200EB6C
:1037900085060135D6F8046103EB1643F5E700EB27
:1037A000810043EA0241C0F8041102E043EA024109
:1037B0008162002070BDD0F8080507F0D7BE01EB8C
:1037C000C10200EB8202D0F80805926C07F04BBEF4
:1037D00001EBC10200EB8202D0F80805D2F8882282
:1037E00007F092BED0F8080507F0C2BE01F00F0244
:1037F00049B2002902EBC20200EB820303F51F72FB
:1038000048BF03F13C020068114608F057BD10B5EF
:10381000044601F00F0004F055FEC3BF002281F8FA
:103820007D2201F51F710122DCBF81F83D203C3172
:10383000087094F8BC04012804BF022010BD05F0F4
:103840002AFE08F0E3FA05F029BBB0B5044601F002
:103850000F006268824201D201251BE004F032FEB3
:10386000C3BF002281F87D2201F51F710122DCBF58
:1038700081F83D203C31087000258D7094F8BC041F
:10388000012801D1022505E005F005FE08F002FC43
:1038900084F8BC542846B0BD01F00F0101EBC10112
:1038A00000EB8100D0F890027047B0B5044601F0FB
:1038B0000F0004F007FEC3BF002581F87D5201F51B
:1038C0001F710125DCBF81F83D503C318A600B71CE
:1038D00008704A7802B14883022B01D10020487158
:1038E00094F8BC04012804BF0220B0BD05F0D3FD4C
:1038F00008F0D8F905F01EBDB0B501F00F010025A4
:1039000001EBC10400EB840404F5227784F87C12F7
:1039100084F87D5204F51F712CC7C368012B08BFC2
:10392000C4F89822DAB2006808F0F6FB0020B0BDB7
:10393000B0B5044601F00F054068854284BF012000
:10394000B0BD48B2B0F1FF3F09DD01EBC10000217D
:1039500004EB800080F87D1200F51F7108E005EB94
:10396000C500012104EB800080F83D1000F13C010E
:1039700094F8BC2401200D708870012A04BF022035
:10398000B0BD84F8BC04206808F0ABFB2DB9217BE6
:10399000206804F2C44208F051FB05F0CBBCB0B57E
:1039A00001F00F0505EBC50100EB8104214601F88C
:1039B0003C5F01F10C0700252CC701234B70C36845
:1039C000012B08BFA265DAB2006808F0A5FB002051
:1039D000B0BD00002DE9F04F89B005688246284649
:1039E00008F0F6FC10B109B0BDE8F08F04F068FBF8
:1039F0000028F8D0D5F80808C0F30D20CAF8FC0458
:103A000004F05EFB0146DAF80000890703D541693E
:103A100001F00201416105F50061049108F004FD27
:103A20000146DAF800000595C9063BD5816921F009
:103A3000100181612C6A04F00F05C4F3434006288D
:103A400018D0022827D147F6F07014EA000622D0D9
:103A500005EBC500340922460AEB80070598D7F824
:103A6000881208F0E5FCD7F8880200EB1610C7F8BA
:103A7000880207E00AF2C4410598082208F0D8FC41
:103A8000C4F30A1405EBC5000AEB8000D0F89012CD
:103A90002144C0F89012DAF80000816941F0100169
:103AA0008161059D08F0C0FC00030DD404F008FB03
:103AB0004003049E00F1E18004F002FB002800F1C5
:103AC000A681DAF80000BAE1DAF8000008F08BFC11
:103AD00006460AF527744FF430684FF0000B0AF2DF
:103AE000C4400890002EE1D0F00700F0B8805FFAE3
:103AF0008BF9DAF80000494608F08EFC0746C0074B
:103B00005CD005EB080001218160DAF8000008EBC9
:103B10000001036C8A68DAF80C50012D24D11507D6
:103B20002FD4950647D412F0280F059D46D1AC46F8
:103B3000DD4DAB4202D9120400F198802268096978
:103B400065466FF3DF41511A44F80C1CB8F5306F2D
:103B50002CD1DAF88C22002A00F08D80DAF8880265
:103B60000844CAF8880221E0CF4D05F58075AB42C4
:103B700011D11004059D0AD4900617D52020886025
:103B800014E0C948059D834218D9100416D54FF496
:103B90000040886012E0B8F5306F059D06D1DAF874
:103BA0008C1219B90021089A08F048FA5046494683
:103BB000FFF70EFE02E020208860059D380722D521
:103BC00005EB08000821B84B8160DAF8001008EB1B
:103BD00001000A6C81689A4212D9090402D54FF497
:103BE00000418160504600F0A6FBDAF80C00012885
:103BF00009D1DAF800000121089A08F01FFA02E062
:103C0000504600F098FBF80603D505EB080010219C
:103C10008160B80716D56869000604D5049948681C
:103C200040F48060486014F81D0C012806D1002083
:103C300004F81D0C4946504600F05FFA05EB0800F9
:103C400002218160B80603D505EB080020218160C0
:103C5000B80404D505EB08004FF40051816024340A
:103C600008F1200876080BF1010B3BE74FF4004008
:103C700088606546A2E7012195E7DAF8000008F0C0
:103C8000ABFB07460AF2C4400022029005F5106023
:103C90000690002F3FF410AFF80700F0B580D1B2C6
:103CA000DAF800000792089108F0A4FB0446C00768
:103CB00027D0079B0122716B03F00F0002FA00F07E
:103CC00021EA00007063069800EB43108260DAF886
:103CD0000C00012811D103EBC3000AEB8000D0E9EE
:103CE00011121144816443B9DAF84C0028B9DAF8AA
:103CF00000000121029A08F0A1F950460899FFF747
:103D00005EFD2007079A04D50698082100EB4210B3
:103D10008160E00604D50698102100EB4210816016
:103D2000600604D50698402100EB42108160A00790
:103D300018D52846114608F01BFB079A02EBC20073
:103D40000AEB800010F83F1F012906D10021017005
:103D50005046089900F0CDF9079A0698022100EB29
:103D60004210816020064FD502EBC2000AEB800BA7
:103D7000D94659F84C1FC84658F8040F814243D31E
:103D8000DAF800405BF8445F091A039757460BF1D5
:103D90000406A94238BF0D4604EB421101F5106A32
:103DA00015E0DBF80050101A3B7B31680093A84205
:103DB00038BF0546ABB22046089A08F00BFC3068C5
:103DC00028443060D8F800002844C8F80000D9F82A
:103DD0000020DAF81830E91C9BB2B3EB910F28BF32
:103DE0008242DED88242BA46059DDDE90376079A13
:103DF0000AD802F00F00012101FA00F0D4F83418BB
:103E000021EA0000C4F834087F08013241E77068F5
:103E100020F0010070609AF8F404012807D1002016
:103E20008AF8F40400215046FFF7A0FC02E0504657
:103E300000F06BFA05F09BF901F00041416108F0D8
:103E4000F3FA000502D4DAF800000AE0B068C0070F
:103E500002D0504600F08EFA05F089F901F40061B5
:103E6000416108F0E1FA000117D505F080F901F091
:103E7000006141619AF8F41419B1504600F07AFAE1
:103E80000BE001218AF8F414406D0121C0F3830096
:103E9000CAF8F8045046FFF769FC04F011F9C004B1
:103EA00004D4DAF8000055E00A30544FD5F804087D
:103EB000102120F00100C5F80408DAF8000008F02D
:103EC00057FA05F51060DAF804104FF67F32A9B101
:103ED00082600139036823F400130360C0F80822EC
:103EE000D0F8003223F40013C0F80032D0F80032CA
:103EF00043F00063C0F800322030E8E7F06940F09A
:103F00000110F061DAF8300040B1D6F8840040F0DA
:103F10000B00C6F8840006F1440006E0706942F226
:103F20002B010843706106F1100001680AF2C442D7
:103F300041F00B010160306820F4FE6030609AF8B7
:103F40000C10DAF8000008F079F805F010F901F427
:103F50008051416108F068FA0146DAF800008904EE
:103F600019D507F0DDFEDAF8000008F025FACAF8E6
:103F70001000DAF8004001F05BF99AF810200146D1
:103F8000204608F0AFFA504600F0AAF905F0EFF825
:103F900001F40051416108F047FA000702D4DAF851
:103FA000000007E0504600F0B4F905F0E0F801F039
:103FB0000801416108F038FA000606D404F080F8E0
:103FC000C00219D4DAF8000038E00599012440F263
:103FD000A325886920F080008861DAF80400844213
:103FE000ECD21AF80500012803D1E1B25046FFF7E0
:103FF000FDFB24350134F0E705980AF1630401263E
:10400000012700F51265DAF80400874211D228680A
:104010006178012909D1B0F1FF3F06DC47F080004B
:104020002670C1B25046FFF7E1FB2434203501373A
:10403000E9E705F09CF801F480114161059C08F066
:10404000F3F9800202D4DAF8000030E004F53261BE
:104050000AF52970DAF8042001230124944221D2C0
:104060000D680678012E14D1B5F1FF3F11DCDAF8A6
:10407000FC6405F4803506F00106B54209D1059EC1
:10408000B56945F08005B56100F8013C75692D06FC
:1040900003D5243020310134E0E70499486840F426
:1040A0000070486005F063F801F40011416108F008
:1040B000BBF9400002D4DAF8000007E05046FFF7F1
:1040C0007AFB05F054F801F08041416108F0ACF949
:1040D00040077FF588ACDAF800004468610704D532
:1040E0005046FFF77FFBDAF800004168214341604A
:1040F00079E4D0F8080507F092BAD0F8080507F07F
:104100009DBA2DE9F04F8BB0002800F0878004465F
:10411000056890F8BD0428B9002084F8BC04204646
:1041200000F092F8032084F8BD04E86BC00501D4C8
:104130000020E060206807F07BFF04F1040B04F12D
:10414000140E04F1240A20680A90D4E90C509BE86C
:104150000E089EE8C0509AE80007CDE90850CDE966
:1041600000B602A880E8805005A880E800070A98F9
:1041700007F0E4FD00284ED120680021002508F05A
:1041800072F9616801200022D3B2994210D903EB81
:10419000C30604EB860686F83C20A6F8563086F85F
:1041A0003D00C6E91155F56486F840500132EBE751
:1041B00000200022D3B299420FD903EBC30304EBD2
:1041C000830383F87C22C3E9A100C3F88C0283F83F
:1041D000800283F87D020132ECE704F1140E04F151
:1041E000240AA0680A902268D4E9033BD4E90C5061
:1041F0009EE8C0509AE80007CDE90850CDE900B626
:1042000002A880E8805005A880E8000710460A9AB6
:1042100007F050FE30B1022084F8BD0401200BB03D
:10422000BDE8F08F002084F83800012084F8BD0438
:10423000606A012802D12046FFF784FA206807F05F
:104240002DFE0020EBE70000B0B5B8B0044602A890
:10425000B8210830FCF7FFF920681E49884237D1A1
:104260004FF480200290002403944FF48010249097
:1042700002A800F0F5FA08B1FCF7D6FF00F0B2F89A
:10428000154DA86840F00100A860A86800F0010082
:104290000190CDE935440A203790022034904FF444
:1042A000C0503390019833A90C48FEF7FBFC2868F6
:1042B0000021002240F000602860286800F00060C3
:1042C000019001986520FFF707FA6520FFF7F4F9E0
:1042D00038B0B0BD00000840D84402580000025871
:1042E00010B50446006928B1022801D0FCF79CFFF4
:1042F000012100E00021D4F8080507F00AFAD4F8FB
:104300000805BDE8104007F0BDB9D0F8080507F072
:10431000E9B9D0F8080507F0EFB910B504F02BFCA7
:1043200004BF022010BD84F8381005F0B4F808F07E
:10433000C9F804F0B3BDD0F8082500F2C441104616
:1043400007F0F3B910B504F016FC04BF022010BD4D
:1043500005F05EF906D4A16A012903D1816B41F40D
:104360008031816307F0DEFF206807F08BFD04F0E9
:1043700095BD000010B50446D0F8080507F017FAFF
:104380002068D0F8001E41F00101C0F8001E206A2C
:1043900020B10348016841F00601016010BD00BF73
:1043A00010ED00E0B0B5124D2A682968520705D417
:1043B00001F00701081A18BF0120B0BD21F0070164
:1043C000084304F097F8044655F8080C800406D416
:1043D000FEF73CFD03F0A3FEF6D90120B0BD00209E
:1043E000B0BD00BF0248016841F0807101607047B4
:1043F0000C4802580248016841F48071016070471E
:104400000048025880B500F013FF0249024A04F048
:10441000E8BA00BF2044025844F90408B0B5224964
:104420008B6A8A6ACD6A4C6BC2F30512BAB105F089
:10443000010503F003036D4205EAD404022B6FF378
:104440005F3400EE104AB8EE400A0CD0012B0DD0BC
:1044500013B90B689B060CD49FED161A13E00021CC
:10446000C0E900111DE09FED121A0CE09FED0F1A3C
:1044700009E00B68104CC3F3C10324FA03F301EE07
:10448000103AB8EE411A0B6B9FED0C3A05F0C7F8E5
:104490000A6B03F020FE0A6B04F055FF096B04F071
:1044A0006EFE8160B0BD00BF004402580024744A13
:1044B000001BB74B0024744C0090D003000000395F
:1044C000B0B51B498B6A8A6ACC6ACD6BC2F30532E0
:1044D000AAB1E40604F0DDF915D0BBB90B689B0660
:1044E00051BF9FED161A0B68C3F3C103144C42BFB2
:1044F00024FA03F301EE103AB8EE411A08E0002165
:10450000C0E9001112E09FED0C1A01E09FED091ABD
:104510008B6B9FED0C3A05F082F88A6B03F0DBFDA4
:104520008A6B04F010FF896B04F029FE8160B0BD36
:10453000004402580024744A001BB74B0024744CFA
:104540000090D00300000039B0B51B498B6A8A6A1D
:10455000CC6A4D6CC2F30552AAB1E40504F099F996
:1045600015D0BBB90B689B0651BF9FED161A0B689F
:10457000C3F3C103144C42BF24FA03F301EE103A13
:10458000B8EE411A08E00021C0E9001112E09FEDE9
:104590000C1A01E09FED091A0B6C9FED0C3A05F027
:1045A0003EF80A6C03F097FD0A6C04F0CCFE096C2F
:1045B00004F0E5FD8160B0BD004402580024744A57
:1045C000001BB74B0024744C0090D003000000394E
:1045D000F8B580F400220A4300F0808080F4007275
:1045E0000A4332D080F480620A4300F0888080F46D
:1045F00000620A4338D080F480520A4300F08C8075
:1046000080F400520A4300F0958080F480420A430F
:1046100037D080F400420A4343D080F480320A430A
:104620004FD080F48070084340F0DC808749086DEB
:1046300000F00702042A00F2D5808848DFE812F073
:10464000780089009000D30098008049086DC0F37D
:104650008212042A00F2C6808048DFE812F0690066
:104660007A008100C40089007849886DC0F3026235
:10467000042A00F2B7807948DFE802F05A6B72B57D
:104680007A007248816DC1F30271052900F2AA8097
:10469000DFE801F0038691989F8DBDE88F40FFF71A
:1046A000B1BE6A48016D01F04051B1F1005F00F008
:1046B0007780B1F1805F00F09280002940F0928015
:1046C00075E06248C16C0068C90340F1898000014F
:1046D00040F1888001A8FFF7F3FE9FE05B48816D01
:1046E00001F44031B1F5003F00F08480B1F5803F26
:1046F00000F08E80002940F0758000682AE0534960
:10470000886DC0F34252042A00F26C805348DFE8FF
:1047100002F00F20276A2F004C49086DC0F30232C7
:10472000042A5FD84D48DFE802F003141B5E230023
:10473000086855E04548016DC1F30241052951D88B
:10474000DFE801F0032E39404735BDE88F4000F027
:104750008DBD0868000145D501A8FFF7B1FE05E051
:10476000086880003ED501A8FFF7EEFE01983AE008
:10477000C86C0B680A6800F040505B0701D5002840
:1047800040D0D20502D5B0F1805F4ED00022B0F10A
:10479000005F04BF43F20062C0F26E1208684FE08F
:1047A000006800011ED501A8FFF78AFE20E000681E
:1047B0002749800310E00068800013D501A8FFF7A7
:1047C000C3FE15E0016849070CD50068C0F3C100BD
:1047D0001AE000681F49C00501EAE07003E00068C4
:1047E000800102D4002004B080BD01A8FFF716FEAE
:1047F0000298F8E7C16C0368026801F040515B075A
:104800000ED569B9C2F3C100134921FA00F0EAE7F5
:1048100000688000E6D501A8FFF796FE0398E2E75E
:10482000D20504D5B1F1805F01D10A48DBE700224F
:10483000B1F1005F04BF43F20062C0F26E12006883
:1048400010F4003018BF1046CDE700BF00440258F6
:1048500000366E0100093D000090D0030080BB00CF
:104860002DE9F0470446C078A74F00071CD5A06E7D
:104870004FEA3051032908D8DFE801F002090C1192
:10488000F96941F40031F96109E001260DE003F016
:10489000B5FF01E004F019FB064630B9A06E396C93
:1048A00021F440110843386400266078BA46C007F6
:1048B00001D1354620E0A06D04280BD83546DFE84D
:1048C00000F0030C0F121200F869354640F4003076
:1048D000F86108E0012501270FE003F0FFFD01E08A
:1048E00003F048FF05462F463DB9A06D04F050F88F
:1048F00021F0070104F010F93746607880071ED5D3
:10490000E06D4FEAB010042807D8DFE800F0030993
:104910000C0F0F0004F03CF908E0012501260FE020
:1049200003F0DCFD01E003F025FF05462E463DB90E
:10493000E06D04F02DF821F4E07104F0EDF83E464E
:104940006078400702D4B046574623E0D4F8A80068
:1049500057464FEA7050042807D8DFE800F0030AF2
:104960000D10100004F0BCF809E001254FF001081B
:1049700010E003F0B3FD01E003F0FCFE0546A8469D
:1049800045B9D4F8A800B96C0025B04621F46001FF
:104990000843B8646078000720D5D4F8AC004FEA2B
:1049A0003060042807D8DFE800F003090C0F0F007F
:1049B00004F096F808E00125012710E003F08EFDD1
:1049C00001E003F0D7FE05462F4645B9D4F8AC0008
:1049D00003F0AAFF21F0E06104F037F84746E078E1
:1049E00080071DD5E06C4FEA3010032806D8DFE8B9
:1049F00000F00B02080B04F0CBF805E001250126BE
:104A00000FE003F0FBFE05462E4655B9E06CDAF8E0
:104A10003C100025524621F030010843CAF83C0002
:104A20003E466078C0061ED5206E4FEA303004281E
:104A300007D8DFE800F003090C0F0F0004F0A8F816
:104A400008E0012501270FE003F048FD01E003F035
:104A500091FE05462F463DB9206E03F099FF21F4E3
:104A6000E04104F059F83746607880061BD5606E47
:104A70004FEA3040052807D8DFE800F00C03090CA6
:104A80000C0C04F0BFFE04E0012501260CE004F04C
:104A900056FE05462E463DB9606E03F079FF21F4BF
:104AA000E02104F039F83E46607840061DD5D4F880
:104AB000B0004FEA3070052807D8DFE800F00C039B
:104AC000090C0C0C04F09EFE04E0012501270DE00A
:104AD00004F035FE05462F4645B9D4F8B00003F082
:104AE00023FF21F0E04103F0B0FF37466078000675
:104AF00018D5206F68B1B0F1005F07D0B0F1805FCA
:104B000022D104F045F804E01044025804F07AFE83
:104B100005462E463DB9206F03F03AFF21F0405183
:104B200003F0FAFF3E46E078C00702D1B046574690
:104B30001EE0A06C5746032809D8DFE800F00F02FA
:104B40000C0F03F0CDFF09E001250126EBE701255D
:104B50004FF001080CE003F051FE0546A8463DB9B0
:104B6000A06CF96B0025B04621F003010843F863FF
:104B7000A078400601D4474616E0D7F8F00340F489
:104B80008070C7F8F003FEF761F90646D7F8F00326
:104B9000C00507D4FEF75AF9801B6428F6D903250F
:104BA000032701E02F467DB12078C00746D0E06F93
:104BB0004FEAF000052832D8DFE800F03703343739
:104BC000373704F01FFE2FE0DAF86010D4F8B40095
:104BD0005546414011F4407F0BD0296E2A6E42F4B5
:104BE00080322A6621F440712A6E22F480322A66CD
:104BF0002966B0F5807F40F0FC81FEF727F9064674
:104C000041F288390327DAF86000800700F1EE816D
:104C1000FEF71CF9801B03254845F4D9C4E701259C
:104C200001260CE004F08BFD05462E463DB9E06FF1
:104C300003F039FF21F0380104F0AEF83E46207849
:104C4000800719D5A06F052807D8DFE800F00C030E
:104C5000090C0C0C04F0D6FD04E0012501270CE042
:104C600004F06DFD05462F463DB9A06F03F01BFF14
:104C700021F0070104F090F83746207840071BD553
:104C8000D4F89400052807D8DFE800F00C03090CDD
:104C90000C0C04F0B7FD04E0012501260DE004F042
:104CA0004EFD05462E4645B9D4F8940003F03CFE6F
:104CB00021F0070103F0C9FE3E46207880061DD58D
:104CC000D4F890004FEA3070052807D8DFE800F0EC
:104CD0000C03090C0C0C03F001FC04E00125012776
:104CE0000DE004F0F2F805462F4645B9D4F89000DF
:104CF00003F0D9FE21F0E04104F04EF83746207869
:104D000040061DD5D4F89C004FEAB020052807D8EE
:104D1000DFE800F00C03090C0C0C03F0DFFB04E0EF
:104D2000012501260DE004F0D0F805462E4645B9D0
:104D3000D4F89C0003F0F8FD21F4E05103F085FE67
:104D40003E46207800061DD5D4F8A0004FEA70300A
:104D5000052807D8DFE800F00C03090C0C0C03F061
:104D6000BDFB04E0012501270DE004F0AEF8054687
:104D70002F4645B9D4F8A00003F0D6FD21F46041D8
:104D800003F063FE37462068010713D5D4F884008A
:104D9000B0F5805F06D104F098F8002818BF01270D
:104DA000D4F88400DAF84410524621F4405103F05C
:104DB000F3FF2068C10613D5D4F89800B0F5807FC2
:104DC00006D104F082F8002818BF0127D4F8980013
:104DD000DAF84810524621F4407103F036FE20689C
:104DE000000318D5D4F8A400B0F5003F09D0B0F501
:104DF000803F03D010BB03F071FB01E004F065F8C5
:104E000005462E4645B9D4F8A40003F08DFD21F4E3
:104E1000403103F01AFE3E46A07840071ED5D4F874
:104E20008800B0F5401F0FD0B0F5001F09D0B0F5D5
:104E3000801F40F0D68003F0ABFE05E0012501267F
:104E4000EAE704F07CFC05462F4645B9D4F8880013
:104E500003F029FE21F4401103F09EFF3746A078AD
:104E6000C00701D13E4619E0206DB0F5803F03D068
:104E700090B903F08DFE02E003F0C0FC05462E461B
:104E800065B9206DDAF83C100025524621F48031D6
:104E90000843CAF83C00E5E701250126216888009F
:104EA00001D4606806E004F010F8002818BF01265D
:104EB000D4E900108A031BD5D4F880206FF00103D9
:104EC00003EB3223022B0BD34FEA322343B1012BE6
:104ED00040F08A80DAF81C3043F40033CAF81C3002
:104EE0003DB9DAF8443023F440731A43CAF8442039
:104EF0003546CA0207D5626FDAF8403023F0004326
:104F00001A43CAF84020CA0008D5D4F8B820DAF805
:104F1000003023F480431A43CAF800208A0207D5E0
:104F2000E26EDAF8403023F080731A43CAF840206A
:104F30004A000CD5DAF8002022F40042CAF800201A
:104F4000D4F8BC20DAF800301A43CAF80020CA0F9F
:104F500007D0626DDAF83C3023F040531A43CAF8A8
:104F60003C20090208D5D4F88C10DAF8442022F449
:104F700040021143CAF84410C10705D003F0AEFA4D
:104F8000002818BF05466068810705D504F03AFC83
:104F9000002818BF05466068410705D503F02EFCC0
:104FA000002818BF05466068010705D503F0E2FB3D
:104FB000002818BF05466068C10605D504F0BFFB90
:104FC000002818BF05466068800604D503F07DFF01
:104FD000002818BF0125002D18BF01252846BDE86F
:104FE000F087012501273AE7012582E75546D4F8E5
:104FF000B4002A68094900F4407322F47C5201EAA3
:105000001011B3F5407F6FF31F3008BF0A432A60C9
:10501000296E084328660025ADE500BFCFFFFF00DD
:105020002DE9F843002800F0FB807F4D04468846B8
:10503000286800F00F0088420BD2286820F00F008B
:1050400040EA08002860286800F00F00404540F062
:10505000E7802068C74F410709D52169BA6904F084
:105060008AF804D9BA6922F070021143B9610107C4
:1050700009D56169FA6904F07EF804D9FA6922F069
:1050800070021143F961C1060AD5A169FA6902F4F7
:10509000E062914204D9FA6922F4E0621143F961B5
:1050A000810609D5E1693A6A04F065F804D93A6ADB
:1050B00022F070021143396210F002010AD0E26856
:1050C000BB6903F00F039A4204D9BB6923F00F03B5
:1050D0001A43BA61C2073AD0D4E90101BA6922F48D
:1050E00070621143B961012807D0032809D0022852
:1050F0000BD1396889030CD492E03968C90508D40A
:105100008EE03968890104D48AE03968490740F1A2
:1051100087803969A94621F0070108433861FDF706
:1051200095FE064641F288356068396901F038011C
:10513000B1EBC00F07D0FDF789FE801BA842F3D961
:105140000320BDE8F88320684D4600F0020151B10C
:10515000E168BA6902F00F02914204D2BA6922F002
:105160000F021143B961296801F00F0141450AD9C5
:10517000296821F00F0141EA08012960296801F03E
:105180000F0141454CD1410709D52169BA6903F0A6
:10519000F2FF04D2BA6922F070021143B96101072B
:1051A00009D56169FA6903F0E6FF04D2FA6922F0D1
:1051B00070021143F961C1060AD5A169FA6902F4C6
:1051C000E062914204D2FA6922F4E0621143F9618B
:1051D00080060AD5E069396A01F07001884204D27C
:1051E000396A21F070010843386200F057F8B96954
:1051F000294A1C4BC1F30321515C01F01F01C84037
:10520000B969186001F00F01515C01F01F01C8403D
:105210001549086005480068BDE8F843FEF76CB81A
:105220000120BDE8F88300BF0020005220030024C5
:1052300080B500F033F80A49174B0A68096801F095
:105240000F01C2F30322595C9A5C01F01F0102F0C6
:105250001F02D040034A1060C8400349086080BD67
:1052600018440258240300242803002480B5FFF7C3
:10527000DFFF0849084A0968C1F3021104F05EB86B
:1052800080B5FFF7D5FF0349034A0968C1F302213E
:1052900004F054B81C44025844F9040810B53549C8
:1052A0000869C0F3C20003280FD0022804BF3348A6
:1052B00010BD40B90868800634485AD50968C1F362
:1052C000C101C84010BD2C4810BD8A6A886ACC6AEA
:1052D0004B6BC0F3051000B304F0010402F00302AD
:1052E000644204EAD303022A6FF35F3300EE103AFC
:1052F000B8EE400A13D0AAB90A68920651BF9FEDD2
:10530000221A0A68C2F3C102204B42BF23FA02F2FA
:1053100001EE102AB8EE411A06E0002010BD9FED04
:10532000191A01E09FED161A0A6B9FED193A6FF3F7
:105330005F2202EE102AB8EE422A00EE032AB7EEF0
:10534000000A32EE000A02EE100A086BC0F3462093
:10535000B8EE422A013081EE021A21EE000A01EE77
:10536000100AB8EE411A80EE010ABCEEC00A10EE37
:10537000100A10BD0044025800093D0000366E01BD
:105380000024744A001BB74B0024744C0090D003D7
:1053900000000039F8B5002800F03F81044600788D
:1053A000D74EC0071FD12078800740F19C8030691C
:1053B00010F03801B06A35D0182901D1800731D0FA
:1053C0003068E168002955D020F01900084302F048
:1053D0007FFE0546306840073BD4FDF737FD401B94
:1053E0000228F7D951E1306900F03801B06A10297C
:1053F00005D018290AD100F00300022806D1306830
:105400008003D0D560680028CDD106E1606800280F
:105410003ED0B0F5A02F4BD0B0F5803F4CD003F07C
:10542000AFFB4CE0E0683168490702D5002800F086
:10543000F480316821F01901084302F049FE054665
:105440003068400705D4FDF701FD03F043F8F7D9B4
:10545000F8BDFDF7F5FC41F2030188423CD8206914
:10546000716821F47C31402814BF41EA003041F4D6
:10547000003037E020F0010002F02AFE05463068D7
:10548000400730D5FDF7E2FC03F024F8F7D9DFE759
:1054900003F076FB02F01CFE0546306880037FF5C2
:1054A00082AFFDF7D3FC411B03206429F5D9CFE778
:1054B000306840F480203060306840F4803002F082
:1054C00007FE0546306880033FF56DAFFDF7BEFC73
:1054D000401B6428F6D9D8E02069716821F0FE41AC
:1054E00041EA006070602078C0063ED5306900F067
:1054F0003801B06A082905D018291CD100F0030032
:10550000012818D13068C00503D5E069802840F033
:105510008480FDF795FC41F2030188421ED8206A81
:10552000716821F0F841202814BF41EA806041F001
:105530008040706019E03068E169002900F0D08097
:1055400040F0800002F0C4FD05463068C005E0D49C
:10555000FDF77CFC02F0BEFFF7D979E7206AF1681D
:1055600021F07C5141EA0060F0602078000756D4B9
:105570002078800665D42078400774D4676A002FAD
:1055800049D0306900F03800182840F0BB80B16A7B
:10559000306B012F41D0A26A01F0030393423CD14A
:1055A000E26AC1F30511914237D10146226B6FF3D4
:1055B0005F21013A914230D1626BC0F34621013A3A
:1055C00091422AD1A26BC0F30641013A914224D103
:1055D000E16BC0F30660013988421ED1A06C716B8B
:1055E000C1F3CC01884216D0F06A20F00100F062CD
:1055F000FDF72CFC0546FDF729FCA842FBD0706B9B
:105600004FF6F8718843A16C40EAC1007063F06AFC
:1056100040F00100F0620020F8BD0120F8BD706F7D
:105620006169A1B340F001007067FDF70FFC05460A
:10563000706F80079CD4FDF709FC401B0228F7D946
:1056400023E03068A169E1B340F4805002F040FDEE
:105650000546306880043FF58EAFFDF7F7FB401B31
:105660000228F6D911E0D6F8000440F48070C6F89C
:105670000004FDF7EBFB0546D6F80004C00516D480
:10568000FDF7E4FB401B6428F6D90320F8BD20F0A9
:1056900001007067FDF7DAFB0546706F80077FF544
:1056A00067AFFDF7D3FB02F015FFF6D9D0E6A0688F
:1056B000002842D0052853D0012855D003F0FDFB27
:1056C00055E020F4805002F003FD05463068800468
:1056D0007FF551AFFDF7BAFB02F0FCFEF6D9B7E655
:1056E00020F0800002F0F4FC05463068C0057FF52C
:1056F0003CAFFDF7ABFB02F0EDFEF6D9A8E600BF2C
:1057000000440258306820F0807002F0E1FC054649
:10571000022F08D1306880013AD5FDF797FB02F0DF
:10572000D9FEF7D994E6306880017FF574AFFDF7B4
:105730008DFB02F0CFFEF6D98AE603F0BEFB3067A0
:10574000FDF784FB054641F28837306F80077FF50F
:1057500015AFFDF77BFB411B0320B942F5D977E676
:10576000306F40F004003067306F40F00100306768
:10577000FDF76CFB054641F28837306F80073FF537
:10578000FDAEFDF763FB411B0320B942F5D95FE68F
:1057900004F12805B06A40F2F33188432ECD084366
:1057A000591E40EA0210B0626FF35F214FF4FE020F
:1057B0004FF47E4000EB452080B20844A16B02EB21
:1057C00001414FF0FE4201F4FE010844E16B02EB9F
:1057D000016101F0FE41084430634FF6F871F06A50
:1057E00020F00100F062706B8843A16C40EAC100B8
:1057F0007063206CF16A21F00C010843F062F06ADA
:10580000616C20F002000843F062F06A40F48030DE
:10581000F062F06A40F40030F062F06A40F48020F8
:10582000F062F06A40F00100F062306840F0807091
:1058300002F04EFC0446306880013FF5ECAEFDF707
:1058400005FB011B03200229F5D901E670B560B301
:10585000044690F8210028B9002084F82000204652
:1058600000F038F8022084F821002068C168C906D9
:105870002AD4CA21416203F09EF990B994E80F003E
:10588000134E85683540856025692943A5692943FC
:1058900085682943816043EA0241016103F050F8C1
:1058A00028B12168FF224A6270BD012070BD2068C6
:1058B0006169E2691143C36C23F00303C364C26CE2
:1058C0001143C164FF21416203F067F870BD00BF5E
:1058D000BFFF8FFF10B5B0B004466846B82108304E
:1058E000FAF7B9FE20680C49884212D100200190D5
:1058F0004FF4800000904FF480702D906846FEF7C2
:10590000AFFF08B1FBF790FC0448016841F4004187
:10591000016030B010BD00BF004000587044025814
:105920002DE9F04102F0EEFD41D084F82100012084
:1059300084F820004AB16978EB782878AA780902BF
:10594000460341EA03418D1816E06E78F00604D54F
:1059500006F0EF0000F10A066E70E878DFF8FC80D0
:10596000C04707463046C047000240EA0746A878CD
:10597000C0470644287845032068CA21416203F0E5
:105980001AF918B12168FF224A620DE045EA0600C3
:10599000216820F0C000486002F0D2FFFF22216899
:1059A0004A6208B902F0F9FF002184F82010BDE82E
:1059B000F08100BF2DE9F04102F0A4FD4BD084F846
:1059C0002100CA21164620684162012184F8201076
:1059D00003F0F1F818B12168FF224A6238E0276825
:1059E000B86800F040001EB198B90020E87012E0DD
:1059F00008B90020E8702878DFF86080C0470646C4
:105A00006878C04703F012FFE978304440EA8150DB
:105A100009E0E87880056A782978AB78120242EAD2
:105A20000141194408430E4908403860B86820F421
:105A30008020B860D5E903010843B9680843B8601D
:105A400002F07EFFFF2221684A6208B902F0A5FF3A
:105A5000002184F82010BDE8F08100BFA99A020857
:105A60007F7F7F00B0B5044600680949C160FDF73B
:105A7000EDF905462068C068800606D4FDF7E6F912
:105A800003F038FDF6D90320B0BD0020B0BD00BF43
:105A90005FFF030008B3B0B5044690F82C000D4634
:105AA00028B9002084F82D00204600F01BF80220C1
:105AB00084F82C00211D2068FBF7BAFBD4E9000212
:105AC0002946FBF70BFC0648016841F000410160E4
:105AD000012084F82C000020B0BD0120704700BFD9
