:020000040802F0
:10000000E0F60424890302088B8A02083577020887
:10001000898A0208D70B0208ABBA02080000000068
:100020000000000000000000000000007D8E0208BB
:100030002112020800000000998A02085592020865
:10004000A3030208A3030208A3030208A3030208F0
:10005000A3030208A3030208A3030208A3030208E0
:10006000A3030208A3030208A3030208D50C020895
:10007000E10C0208ED0C0208F90C0208050D02085B
:10008000110D02081D0D0208A3030208A3030208B4
:10009000A3030208A3030208A30302082312020811
:1000A000A3030208A3030208A3030208A303020890
:1000B000A3030208A3030208A3030208A303020880
:1000C000A30302084177020839770208A303020854
:1000D000A3030208A3030208A3030208A303020860
:1000E000A3030208A303020800000000A303020800
:1000F000A303020861940208A3030208290D020861
:10010000A3030208A3030208A3030208A30302082F
:10011000AD990208A3030208A3030208A30302087F
:10012000A3030208A3030208A3030208A30302080F
:10013000A3030208A3030208A3030208A3030208FF
:1001400000000000000000000000000000000000AF
:10015000A3030208A3030208A3030208E9A10208FB
:10016000A3030208A3030208A3030208A3030208CF
:10017000A3030208A3030208A3030208A3030208BF
:10018000A3030208A3030208B9990208A303020803
:10019000A3030208A3030208A3030208A30302089F
:1001A000A3030208A3030208350D0208A3030208F3
:1001B000A3030208A3030208A3030208A30302087F
:1001C000A3030208A3030208A3030208A30302086F
:1001D000A30302088D8A0208690D0208A30302081E
:1001E000A3030208A3030208A3030208A30302084F
:1001F000A3030208A3030208A3030208A30302083F
:10020000A3030208A3030208A3030208A30302082E
:10021000A3030208A3030208A3030208A30302081E
:10022000A3030208A3030208A303020800000000BE
:10023000A3030208A303020800000000A3030208AE
:10024000A3030208A3030208A3030208A3030208EE
:10025000A3030208A3030208A3030208A3030208DE
:10026000A3030208A3030208A3030208A3030208CE
:10027000A3030208A3030208A3030208000000006E
:10028000A3030208A3030208A3030208000000005E
:1002900000000000A303020800F002F800F065F877
:1002A0000AA090E8000C82448344AAF10107DA45D1
:1002B00001D100F05AF8AFF2090EBAE80F0013F0BE
:1002C000010F18BFFB1A43F00103184790E9030020
:1002D000B0E903000A444FF0000C10F8013B13F0A2
:1002E000070408BF10F8014B1D1108BF10F8015B8F
:1002F000641E05D010F8016B641E01F8016BF9D182
:1003000013F0080F1EBF10F8014BAD1C0C1B09D1D8
:100310006D1E58BF01F801CBFAD505E014F8016B4A
:1003200001F8016B6D1EF9D59142D6D370470000DC
:100330000023002400250026103A28BF78C1FBD8EE
:10034000520728BF30C148BF0B6070471FB52FF060
:1003500059FF00F0AFFA0400002000212FF03CFF0D
:10036000401C60601FBD10B510BD00F07DFA114645
:10037000FFF7ECFF2BF0CEFA00F0AEFA03B4FFF774
:10038000F2FF03BC00F00EFA094880470948004715
:10039000FEE7FEE7FEE7FEE7FEE7FEE7FEE7FEE735
:1003A000FEE7FEE704480549054A064B7047000092
:1003B000B193020899020208E0DE0424E0F6042466
:1003C000E0F20424E0F2042453EA020C00F0698015
:1003D0002DE9F04B4FF00006002B1FBFB3FA83F559
:1003E00003FA05F424FA05F65E4012BF1643B2FA8A
:1003F00082F502FA05F4C5F120051EBF22FA05FCBC
:1004000044EA0C04203556EA044C4FEA144418BF61
:10041000641C4FF000084FF00009904271EB030C90
:1004200039D3002919BFB1FA81F701FA07F6B0FAFA
:1004300080F700FA07F6C7F120071EBF20FA07FC75
:1004400046EA0C062037B6FBF4FCA7EB0507103F85
:1004500007F01F0BCBF120062CFA06F60CFA0BFB6B
:1004600044BFB3460026202FA4BF5E464FF0000BCA
:100470005BEA060C08BF4FF0010B19EB0B0948EBC8
:100480000608ABFB027C06FB02CC0BFB03CCC01BBB
:1004900071EB0C01C1E70B46024641464846BDE8F8
:1004A000F08B13B5084318BF4FF0FF300146AFF390
:1004B0000080BDE81C40704770B5064600F036F974
:1004C0000468054630460A22002100F033F92C600A
:1004D00070BD40EA0103024630B59B0710D14FF0D2
:1004E000013400E008C208C91D1B9D4315EAC41F62
:1004F000F8D013F0FF0102F8011B0DD01B0AF8E73A
:1005000011F8013B002B02F8013B05D011F8013B2B
:10051000002B02F8013BF3D130BD10B5431C02E0C3
:1005200010F8011B71B18107FAD14FF0013202C8F6
:100530008C1A8C4314EAC211F9D0C01A0A0603D0EF
:10054000C01E10BDC01A10BD0A0401D0801E10BD0F
:100550000902FCD0401E10BD032A40F2308010F08A
:10056000030C00F0158011F8013BBCF1020F62444E
:1005700098BF11F801CB00F8013B38BF11F8013BDF
:10058000A2F1040298BF00F801CB38BF00F8013B8C
:1005900011F0030300F02580083AC0F0088051F8FC
:1005A000043B083A51F804CBA0E80810F5E7121D07
:1005B0005CBF51F8043B40F8043BAFF30080D20726
:1005C00024BF11F8013B11F801CB48BF11F8012BF2
:1005D00024BF00F8013B00F801CB48BF00F8012B15
:1005E000704710B5203AC0F00B80B1E81850A0E871
:1005F0001850B1E81850A0E81850203ABFF4F5AFF1
:100600005FEA027C24BFB1E81850A0E8185044BF4C
:1006100018C918C0BDE810405FEA827C24BF51F8B9
:10062000043B40F8043B08BF7047D20728BF31F8AD
:10063000023B48BF11F8012B28BF20F8023B48BFFE
:1006400000F8012B704702F0FF0343EA032242EA5D
:10065000024200F002B84FF0000200B51346944683
:100660009646203922BFA0E80C50A0E80C50B1F10A
:100670002001BFF4F7AF090728BFA0E80C5048BF1E
:100680000CC05DF804EB890028BF40F8042B08BFBC
:10069000704748BF20F8022B11F0804F18BF00F8B8
:1006A000012B70470000000030B44FF0013C50F8BF
:1006B000042BCCFA52F451F8043BD51A20D1FCB9E2
:1006C00050F8042BCCFA52F451F8043BD51A17D148
:1006D000B4B950F8042BCCFA52F451F8043BD51AB3
:1006E0000ED16CB950F8042BCCFA52F451F8043BFB
:1006F000D51A05D1002CDAD030BC4FF0000070477D
:1007000029BAB1FA81F111F01801D1F12000844029
:10071000F2D1CA40CB4012F0FF0213F0FF0330BC0D
:10072000D01A704770477047704700000048704704
:10073000C80300242DE9F04791460F468046044641
:10074000002614F8015B2DB100F036F80068405D1A
:10075000C007F6D12B2D02D02D2D18D0641E4A468D
:100760003946204600F030F827B13968A14201D15E
:10077000C7F800804FF0020471050BD540420028F5
:1007800003DDFFF7D3FF0460A007BDE8F08746F460
:100790008066E4E70028F8DAFFF7C8FF04606FF02E
:1007A0000040F2E701491820ABBEFEE72600020038
:1007B00000487047C803002410B500F07BF8001D06
:1007C00010BD00BF15FA02002DE9F05F8246154604
:1007D0008B4600270AF10104B9460078302801D081
:1007E0009DB113E014F8010B0127782803D0582895
:1007F00001D045B10AE00DB1102D07D1002714F842
:10080000010B102502E0082500E00A250026B0466D
:100810000EE005FB080005FB06F101271FFA80F832
:1008200001EB1046B6F5803F00D3B94614F8010B32
:10083000294600F043F80028EBDABBF1000F05D0A1
:100840000FB1641E00E05446CBF80040B9F1000F30
:1008500006D0FFF76BFF02210160C81EBDE8F09FC4
:1008600048EA0640FAE770477546FFF7A1FFAE4633
:1008700005006946534620F00700854618B020B5AC
:10088000FFF790FDBDE820404FF000064FF0000755
:100890004FF000084FF0000BAC46ACE8C009ACE8E4
:1008A000C009ACE8C009ACE8C00921F007018D46D9
:1008B0007047000000487047E80300243A2800D23F
:1008C000303820F02002412A01D3A2F137008842BB
:1008D00001D34FF0FF30704710B50446AFF30080EE
:1008E0002046BDE81040FFF749BD0000B0B5044602
:1008F0000068364940F48070884214BF3548344857
:10090000006810F4403F0ED004F0E0FF0546606838
:10091000B0F5803F05D0B0F5403F20D0B0F5003FA6
:100920001ED1000C18E04FF40020002104F0C2F8A2
:1009300005466068A0F580214FEAB1410A290FD829
:10094000DFE801F00606060606063A3C3E40420095
:100950006FF0010101EA5040B5FBF0F500E0AD0891
:1009600002F022FB41F20301884209D820681D4AA7
:100970009542816834BF21F4807141F4807119E09F
:100980001548854204D82068816821F4407111E03F
:100990001248854203D820680122816805E020685A
:1009A0000F4A9542816803D8022262F3092101E0CF
:1009B00041F440718160B0BD2D09D1E76D09CFE7E9
:1009C000AD09CDE7ED09CBE72D0AC9E700210240CB
:1009D000082302400863025821BCBE0041787D0113
:1009E00081F0FA02012D31010146806B436D426DA9
:1009F00013F0500F05D0D2060FD4C06CC26C08465D
:100A0000104742F40071416501680B68CA681B0712
:100A100005D4910709D000F0E3BE00F0E3BE12F464
:100A2000406FF8D1C9688904F5D4416D21F4807113
:100A30004165416DC904EED4416D41F0010141654C
:100A400000F0CEBE806B416D41F040014165816D8B
:100A500041F00401816500F0C5BE806B00F0C1BEAD
:100A6000B0B50168044688688A6880074FF00000C6
:100A700027D412F0010224D0886800F00D0001286C
:100A800016D188683B4A1040023088600320086015
:100A900002F090FA054620688068C00712D002F084
:100AA00089FA401B0328F6D320688068C007F2D07B
:100AB000606D40F010006065A06D40F00100A06521
:100AC0000120B0BD0020B0BD2DE9F8430446006808
:100AD0008168C9074AD1274B816803F17F0211421F
:100AE0000AD0606D40F010006065A06D40F001001C
:100AF000A0650120BDE8F88381689846194041F05F
:100B0000010181601C4800F5807700F54076814640
:100B100002F050FA054620681849B84208BF31462D
:100B20000246484508BF3146B842896804BF42F2D0
:100B30000002C4F20202824218BF11F01F0115D157
:100B400046460168C90711D18168C90704D1816887
:100B5000314041F00101816002F02CFA411B206814
:100B60000329EED30168C907EBD1BAE70020BDE83D
:100B7000F88300BFC0FFFF7F0020024000630258DF
:100B800000EE100A9FED0A1B9FED0B2B0C48B8EEF0
:100B9000400B20EE000B80EE010B20EE020B80EEEE
:100BA000010BBCEEC00B006880ED0D0A704700BF62
:100BB0000000000000E06F40000000000088C3401B
:100BC0003C2C002480B5006813F037FB80B2BDE8F0
:100BD0008040FFF7D5BFFEE7002070470020704738
:100BE00010B53B4C05490022204609F0A2FC0449FF
:100BF000204609F091FC002010BD00BF6C130024BA
:100C00006C0B0024B0B504460A880748214606F05C
:100C1000D5FB2F4D2146284609F07EFC284609F0D9
:100C200059FC0020B0BD00BF1C2D002410B51B4C8A
:100C3000A08800B36088A188BFF34F8F194B01448F
:100C4000174800F01F026432203A18602030002A52
:100C5000FADCBFF34F8F124A6429BFF36F8F6088AD
:100C600010440BD8A18800F01FF8A08861880844C0
:100C7000608000200EE0002020700CE06188C1F14F
:100C8000640189B200F010F8002060806088A188BB
:100C900008446438A080002010BD00BFE006002496
:100CA000650100245CEF00E010B50A4601460848E3
:100CB000D0F8BC02D0F8140208B1012010BD044CD9
:100CC000204609F036FC2046BDE8104009F0A4BCDF
:100CD000AC1D0024014801F0CDBA00BF3022002431
:100CE000014801F0C7BA00BFA8220024014801F062
:100CF000C1BA00BF98230024014801F0BBBA00BF6D
:100D000010240024014801F0B5BA00BF20230024BC
:100D1000014801F0AFBA00BFB8210024014801F03A
:100D2000A9BA00BF88240024014801F0A3BA00BF7B
:100D3000002500240A48416889070FD5016821F47D
:100D400000710160816841F002018160054801780D
:100D500021B100210170406816F01EBD704700BF30
:100D6000001000526C0400247047000010B50168A8
:100D7000244A914223D0244A91421CBF234A9142E3
:100D80001DD0234A91421CBF224A914217D0224AC9
:100D900091421CBF214A914211D0214A91421CBF6D
:100DA000204A91420BD0204A91421CBF1F4A9142D7
:100DB00005D01F4A91421CBF1E4A914215D16FF0C7
:100DC0000F0218231FA452FA81F2B2FBF3F35F2A39
:100DD00003F00703E35CC36540F2FF3321EA03013C
:100DE00088BF04318165084610BD134A9142E6D0A0
:100DF000124A9142E3D0124A9142E0D021F0FF0121
:100E0000F0E700BF1000024028000240400002400E
:100E1000580002407000024088000240A0000240DA
:100E2000B80002401004024028040240400402407E
:100E3000580402407004024088040240B804024092
:100E4000A0040240000610160006101610B5026835
:100E5000AB4B1E499A421CBFAA4B9A4205D0AA4BE3
:100E60009A421CBFA94B9A4211D1D3B2A3F10802F6
:100E70001423B2FBF3F3603001F1800201EB830134
:100E800003F01F03012404FA03F30EC010BDA04BAE
:100E90009A42EAD0A14B9A42E7D09E4B9A42E4D0C4
:100EA000A1F55B74D3B2A242E0D0A3F110011823E4
:100EB000074CB1FBF3F1A24204F1AA040B4688BF30
:100EC0000833A24228BF0B460249D4E70058025813
:100ED0000F0402400008024010B5017901390729CA
:100EE00017D80268864B9A421CBF864B9A4205D09F
:100EF000854B9A421CBF854B9A420BD18B000E4CFE
:100F00001A1904F140030124C0E91B2304FA01F17A
:100F1000416710BD7E4B9A42F0D0804B9A42EDD093
:100F20007C4B9A42EAD07C4C8B00A242E7D0014C29
:100F3000E6E700BF0009024000590258F0B59646A6
:100F400004685F4AD0F858C094423BD05D4FBC4221
:100F50001CBF5D4FBC4235D05C4FBC421CBF5C4FD8
:100F6000BC422FD05B4FBC421CBF5B4FBC4229D060
:100F70005A4FBC421CBF5A4FBC4223D0594FBC42AF
:100F80001CBF594FBC421DD0584FBC421CBF584FCC
:100F9000BC4217D0574FBC421CBF574FBC4211D068
:100FA000564FBC421CBF564FBC420BD0554FBC42A3
:100FB0001CBF554FBC4205D0544FBC421CBF544FC0
:100FC000BC4267D1C66ED0E919757D6016B1D0E913
:100FD0001C566E60944229D03A4A94421CBF3A4A49
:100FE000944223D0394A94421CBF394A94421DD0BE
:100FF000384A94421CBF384A944217D0374A944228
:101000001CBF374A944211D0364A94421CBF364A1C
:1010100094420BD0354A94421CBF354A944205D0C5
:10102000344A94421CBF344A944217D18268C06D3E
:101030003F2500F01F0005FA00F0CCF808002068FA
:1010400020F480202060402A636003D1C4F808E0C7
:10105000E160F0BDA160C4F80CE0F0BD2E4A9442FE
:101060001CBF274A94420BD0264A94421CBF264AF2
:10107000944205D0254A94421CBF254A944214D17B
:101080008268C06D012500F01F0005FA00F0CCF861
:101090000400D8E71F4FBC4294D01F4FBC4291D0F0
:1010A0001E4FBC423FF48EAFD7E71A4A9442E7D0B6
:1010B0001A4A9442E4D0114A9442B7D0CDE700BF17
:1010C0001000024028000240400002405800024048
:1010D0007000024088000240A0000240B8000240B8
:1010E0001004024028040240400402405804024018
:1010F0007004024088040240A0040240B804024088
:10110000085402581C54025830540258445402588F
:10111000585402586C54025894540258805402583F
:101120003E4A1154704700BF006858210022C16236
:101130006FF48070394920B10B18013083F8012118
:10114000F9E703484FF48071012201F028BF00BF86
:10115000001402582DE9F04186B0044601A814217C
:10116000FFF779FA204605F039FA284E307803283F
:1011700046D8DFE800F00215204025480121002272
:1011800001270025804601F00AFF01A94046CDE96C
:101190000355CDE9017701F033FE3770582107E0A0
:1011A0001B480121012201F0FAFE022030700821C3
:1011B0002068C16224E008200590122100200490DC
:1011C00001200390CDE9010101A9114801F018FEA9
:1011D000104D114811492A8806F0F0F870882C212A
:1011E000002818BF0320307028884843216800F584
:1011F0007A70C86204E020687188C1620020307093
:10120000204605F0A5F906B0BDE8F081E806002407
:101210000000025898030024882C002400000024B9
:101220007047402001F0E2BDEFF3108072B6FEE798
:1012300070B50B680268D3B101F11C0522F4F842C5
:1012400001F10C0638CD1A4347F6FF7322432A43B7
:10125000026001F1100550F8042F9A434B6842EAEE
:10126000030401F1180201F11403083112E00E1D0C
:1012700047F6FF739A4378CE1A4301F120032243C5
:101280002A4301F11C0542EA060401F1240201F19E
:101290001806143109681B68126821433468214319
:1012A0002C682143194311430160002070BD42693D
:1012B00043F6FE739A4342EA4101416100207047C0
:1012C000B0B591E81C006FF01F05C96805EB441428
:1012D00005696FF315052A431A43224342EA412167
:1012E00001610020B0BD0000F0B5034653F8084F7F
:1012F0001AB3CB68254D244A264F22404C6905EB92
:1013000003331A43224B03EB04531A43826050F811
:101310000C3F0A698D68D1E9004603F07043013C37
:1013200007EB02426FF0FF071C43034607EB05255E
:101330006FF00F0707EB06161BE091E865006FF0F2
:101340000F0704F07044013807EB021220431043EA
:101350006FF0FF0202EB05220E4D40EA02044869DD
:101360000B4A02EB0052086905EB0045074800EB09
:10137000063644EA0600896928430139104340EAE9
:10138000016018600020F0BDFF0F0FFF00F0FFFFAD
:101390000000F0FF0000FFFF7CB504460020019034
:1013A00094F85000012801D102207CBD012084F86E
:1013B000500016460D462046FFF752FB616D10B1F6
:1013C00041F0100127E041F20212914305F480320E
:1013D000134D0231616506F080410A4421688B6833
:1013E0002B401A4402F100428A600E4A8B68B3F126
:1013F000FF3F0CDC019B01330193019B9342F5D32A
:10140000606D40F0100020F00201012003E0616DEA
:10141000012262F30101002284F8502061657CBD45
:10142000C0FFFE3F00F8C325BCB590F85020012A4C
:1014300001D1022130E0012280F8502000220192E7
:1014400000920368E24A93421ED1D2F808319468B0
:1014500023435B0718D40B68D2F8084324F44044B4
:10146000E3B14D682C43C2F808439468D2F80851A0
:101470002C43E40721D1D2F80843896840F61F7550
:10148000AC431943214316E0416D41F02001416511
:101490000121002280F850200846BCBDC2F8084354
:1014A0009168D2F808311943C90706D1D2F8081358
:1014B00040F61F739943C2F808130021E9E700BF03
:1014C000F8B504460020009094F85000012801D19E
:1014D0000220F8BD20680D46012184F85010826872
:1014E000520700F13E81D5E90023160392FAA2F6D5
:1014F000B6FA86F608BF960E06F01F06B140C6691A
:101500003143C1611F2603F01F01C3F301238E4045
:1015100000EB83031F6BC2F3846227EA060602FA1C
:1015200001F13143196381688268D20842EA91016E
:10153000C90770D12968AA6806F050FDA148006863
:1015400000F07040B0F1805F06D120680E22C168C3
:1015500002EA510269690AE020686969C368C268E1
:101560005208DB064CBF02F0080202F00E022B69A3
:10157000042B27D12A68036E03F0F8439106B3EBDE
:10158000826F03D1026E22F000420266426E02F0C8
:10159000F8428A4203D1426E22F000424266826ED5
:1015A00002F0F8428A4203D1826E22F00042826643
:1015B000C26E02F0F8428A422DD1C16E21F0004184
:1015C000C16628E091402A6802F0F842114300F118
:1015D000600252F8236006F00046314342F82310BF
:1015E000296952F821306E7E23F00043012E08BF96
:1015F00003F1004342F82130297E2A6902F01F02DC
:101600000139B1FA81F14909C9029140026922F414
:10161000F042114301618168C90765D1EE68684AEB
:10162000296806F0180701EA0203FA40D0F8C070F2
:101630001A409F433A43C0F8C020634A964250D1B3
:1016400091FAA1F2002BB2FA82F2164608BF8E0E72
:10165000013606F01E078E0E092F0CD8C3B1511C9F
:101660004FF0806606EB826201F01F030121994072
:1016700002F0F84217E0E3B1511C4FF0806606EB30
:10168000826201F01F030121994002F0F8421BE041
:1016900001F0F841721C01F1806102F01F03012288
:1016A0009A4001F0F841114303EB430241EA025131
:1016B00013E001F0F841721C01F1806102F01F0398
:1016C00001229A4001F0F841114303EB43023F4BE2
:1016D00003EB0252114341F00071AA6806F07EFC50
:1016E0002968B1F1FF3F01DD00203FE0F2482368A7
:1016F000F04AB44F00F5807500F54076AB423546B0
:1017000018BF02F54075834208BF354643F4807622
:10171000AD68BE4211BF90688668D0F808013043BA
:10172000C0071ED12B4805F0E076814208BF15F4B2
:1017300000001FD02848814208BF15F0807033D0C8
:101740000020934212D1254B994208BF15F4800125
:101750000CD1D2F8080320F0E070304340F4800050
:101760002BE0606D40F0200060650120002184F8CE
:101770005010F8BD9342B7D1D2F80803904920F039
:10178000E070304340F40000C2F808038B48006862
:10179000B0FBF1F0022101EB40000090009800281E
:1017A000A2D000980138F8E793429DD1D2F80803FF
:1017B00020F0E070304340F08070C2F8080393E7F7
:1017C000FFFF0F000010005C0000FF47000020FE3C
:1017D00000200240000084CB000052C70000B8CFB8
:1017E0007047704770470000F8B50446002000902D
:1017F000A4B3606D30B9204600F0F0F8002084F802
:101800005000A06520688168890003D581686A4A14
:10181000114081608168C90013D46749826801F171
:1018200080511140664A01F1805181606349096825
:10183000B1FBF2F101310091009911B10099013928
:10184000F9E78168C9000BD4616D012541F01001F1
:101850006165A16D41F00101A16502E00125A9E0EA
:1018600000258168C1F38001626D02F010028918C1
:10187000616D03D041F0100001259AE021F48171DF
:10188000023161658168C90721D140F480724D4BF6
:10189000CA499A4204D18A68D1F808311A4301E052
:1018A000494A1268D20712D101F5807201F54073DE
:1018B000454E90421A4618BF06F53E72884208BF50
:1018C0001A469068616820F47C100843906001F02B
:1018D0006BFB637D41F20406216BA268B0424FEAC4
:1018E000433308D3102A06D1207F194341EA00412F
:1018F00041F01C0106E043EA010040EA0201207FBA
:1019000041EA0041012804D1206A304A02EB4040FC
:101910000143606A20B100F478700843A16A014372
:1019200020682B4BC2681A401143C16081688268ED
:10193000D20842EA9101C9072DD1C16844F20302DD
:10194000E36A9143227D43EA82321143C160016917
:1019500094F83820012A11D104F13C0C1D4EA76CDB
:101960009CE80C1006EB02421B4E31401943114318
:1019700041EA0C01394341F0010101E021F001018C
:101980000161616B026922F07042114301612046DE
:10199000FEF7ACFF2068016BE26821F00F01012A1D
:1019A00002D1A269013A114301630121606D61F323
:1019B000010060652846F8BDC0FFFF5F24020024D7
:1019C000400D030000210240086002580000FEFFA5
:1019D00003C0F0FF0000FFFF1EF800FCF0B587B069
:1019E000044602A81421FEF736FE206831498842D9
:1019F00036D0724988425BD130480026016841F0F8
:101A000020010160016801F02001019101998168C4
:101A100041F004018160806802A900F00400019097
:101A2000049603200390202002900198264801F09C
:101A3000E7F9264D23484FF4807C4FF400514FF4D2
:101A400000624FF4806309277830C5E90866C5E96C
:101A50000007C5E90266C5E90432C5E9061C1FE0B6
:101A60001648174D4FF4807C4FF4005E4FF400662B
:101A70004FF480677322134B816841F0807181605D
:101A80000021C5E90811C5E90032C5E90211C5E91F
:101A90000476C5E906EC806800F08070019001983A
:101AA000284600F099FE08B1FFF7BEFBAC63E56481
:101AB00007B0F0BD0060025800200240D844025830
:101AC000302200241000024000080258B8210024EF
:101AD0002DE9F843394F904689460168384A044653
:101AE00007F5807507F54070A94208BF0246B94264
:101AF00008BF024690688968490703D494F85010DB
:101B0000012902D10220BDE8F88300F01F06012060
:101B100084F85000092E4AD8B04040F221210842F2
:101B200045D02046FEF7D0FF20B1002184F85010A8
:101B3000BDE8F8832168606D40F601729043A942C8
:101B400000F58070606518BF0F460EB18F4203D15B
:101B5000606D20F480106065606D0022194B1B4D94
:101B6000C00444BFA26D22F00602A2651C220A60D6
:101B700000204A6842F010024A6084F85000E06C8D
:101B8000E26AC364104BC0E90F53CB6823F0030330
:101B90001A43CA60403143464A4600F0DDFF2168DF
:101BA0000B4B8A681A4004328A60BDE8F883002033
:101BB00084F850000120BDE8F88300BF00200240F7
:101BC00000630258450A02085B0A0208E909020894
:101BD000C0FFFF7FF0B590F860300222012B4FD09C
:101BE00080F86120012280F86020C1EBC10200EB87
:101BF0008206D6E90B74D6E90DE5F36BA7F1090C63
:101C00004FEA0E6247EA0444BCF1020F38BF0EF0FF
:101C10007F4244EA055444EA435306F1280443EA68
:101C20000205B9B117490B2F04D1326CA1F540213F
:101C300045EA82450668BCF1010FF26901EA02013A
:101C400041EA0501F1612168316113D82EF07F412D
:101C500031620FE001680B4BBCF1010F4A6A02EAE6
:101C6000030242EA05024A6222688A6102D82EF023
:101C70007F428A62002280F86020012180F8611092
:101C80001046F0BDF0FFCC00A0B370B5044690F84C
:101C9000610028B9002084F86000204600F02EF88A
:101CA000022084F86100144E94E80F000568354066
:101CB0002943E5692943016040F20715416BA943B7
:101CC0001143A269114341634FF6FF72016C9143C6
:101CD000194301642169426B22F4401242EA015126
:101CE000626941EA4251416300206066012184F843
:101CF000611070BD01207047BFFFF8FF81B0006820
:101D00000749884209D10748016841F01001016084
:101D1000006800F010000090009801B0704700BF0C
:101D200000100052D4440258F8B5044601F042F9BC
:101D3000002C00F0B380054694F83500022840F0EE
:101D4000AF802768BF4EB7421CBFBF4887421ED036
:101D5000BE4887421CBFBE48874218D0BD48874254
:101D60001CBFBD48874212D0BC4887421CBFBC483C
:101D700087420CD0BB4887421CBFBB48874206D075
:101D8000BA4887421CBFBA48874240F00B81386886
:101D9000394620F01E00386051F8140F20F0800002
:101DA000B74208603CD0A84887421CBFA74887427A
:101DB00036D0A74887421CBFA648874230D0A648E5
:101DC00087421CBFA54887422AD0A54887421CBF2E
:101DD000A448874224D0A44887421CBFA348874216
:101DE0001ED0A34887421CBFA248874218D0A348F0
:101DF00087421CBFA048874212D0A14887421CBF1F
:101E0000A04887420CD0A04887421CBF9F48874209
:101E100006D09F4887421CBF9E48874240F0FB8007
:101E2000206EB742016821F48071016024D0F84827
:101E300087421CBFF74887421ED0F74887421CBF25
:101E4000F648874218D0F64887421CBFF5488742BB
:101E500012D0F54887421CBFF44887420CD0F448A2
:101E600087421CBFF348874206D0F34887421CBF15
:101E7000F248874240F0AB80386820F001003860BB
:101E80003868C00710D001F095F8401B0628F7D33A
:101E900020206065032084F8350003E00120F8BDB0
:101EA00080206065012079E02068B0421CBFD849DD
:101EB00088421DD0D74988421CBFD749884217D0D5
:101EC000D64988421CBFD649884211D0D54988429C
:101ED0001CBFD54988420BD0D44988421CBFD44985
:101EE000884205D0D34988421CBFD349884279D162
:101EF000A16DE26D3F2302F01F0203FA02F28A6035
:101F0000B0423BD0C24988421CBFC249884235D04A
:101F1000C14988421CBFC14988422FD0C04988426C
:101F20001CBFC049884229D0BF4988421CBFBF4955
:101F3000884223D0BE4988421CBFBE4988421DD07A
:101F4000BD4988421CBFBD49884217D0BC49884260
:101F50001CBFBD49884211D0BA4988421CBFBB4949
:101F600088420BD0BA4988421CBFBA49884205D082
:101F7000B94988421CBFB949884259D1E06ED4E9B9
:101F800019124A6030B1016821F480710160D4E90E
:101F90001C014160012084F835000020002184F8F4
:101FA0003410F8BDA54887423FF4F1AEA6488742F9
:101FB0003FF4EDAEA24887423FF4E9AEA14938684C
:101FC0008F423FF4E5AE20F00E003946E8E69C482B
:101FD00087423FF451AF9B4887423FF44DAF9A4848
:101FE000874249E7954988423FF482AF9649884243
:101FF0003FF47EAF924988423FF47AAF914AA16D97
:1020000090423FF476AFE26D012302F01F0203FA23
:1020100002F24A6074E7924887423FF401AF914868
:1020200087423FF4FDAE904887423FF4F9AE23E784
:102030008B498842A2D08B4988429FD08A498842E6
:102040009CD0A7E710000240280002404000024058
:10205000580002407000024088000240A000024088
:10206000B80002401004024028040240400402402C
:102070005804024070040240A00402408804024058
:10208000B8040240085402581C54025830540258F4
:102090004454025858540258B0B500285DD090F806
:1020A0003510022957D10168584A914223D0584B24
:1020B00099421CBF574B99421DD0574B99421CBFA8
:1020C000564B994217D0564B99421CBF554B9942DB
:1020D00011D0554B99421CBF544B99420BD0544BD5
:1020E00099421CBF534B994205D0534B99421CBF98
:1020F000524B994234D191424FF0040380F835306D
:1021000023D0434881421CBF424881421DD04248EF
:1021100081421CBF4148814217D0414881421CBFC7
:102120004048814211D0404881421CBF3F48814213
:102130000BD03F4881421CBF3E48814205D03E48FB
:1021400081421CBF3D4881424DD1086820F001000A
:102150000860002102E08021416501210846B0BDF0
:10216000374B9942C7D0374B9942C4D0364B99422E
:10217000C1D00A6822F00E020A600A6822F0010249
:102180000A60324A91420BD0314A91421CBF314A17
:10219000914205D0304A91421CBF304A91422BD126
:1021A00000F158041ECC1D6825F480751D6002F0F6
:1021B0001F02012303FA02F24A60816E6160C16E60
:1021C00031B10A6822F480720A60D0E91C124A60B8
:1021D000002180F83410012280F83520026D002A99
:1021E000BCD09047B5E716488142AED01548814231
:1021F000ABD015488142A8E7194A9142D0D0194A7C
:102200009142CDD0184A9142CAD0E1E71000024075
:102210002800024040000240580002407000024086
:1022200088000240A0000240B800024010040240B2
:102230002804024040040240580402407004024056
:1022400088040240B8040240A00402400854025826
:102250001C540258305402584454025858540258DE
:102260006C540258945402588054025890F8350027
:10227000704700002DE9FC41044600200190D94F31
:10228000DFF8FC04A66DD0F800802068356831685E
:10229000B8422AD0D44A90421CBFD44A904224D09B
:1022A000D34A90421CBFD34A90421ED0D24A904299
:1022B0001CBFD24A904218D0D14A90421CBFD14A8A
:1022C000904212D0D04A90421CBFD04A90420CD0CB
:1022D000CF4A90421CBFCF4A904206D0CE4A90428D
:1022E0001CBFCE4A904240F09B81E16D082201F074
:1022F0001F018A402A4235D00423BC46B84224D06C
:10230000B94FB8421CBFB94FB8421ED0B84FB842FF
:102310001CBFB84FB84218D0B74FB8421CBFB74F18
:10232000B84212D0B64FB8421CBFB64FB8420CD01C
:10233000B54FB8421CBFB54FB84206D0B44FB842F3
:102340001CBFB44FB84240F0938107681F426746F4
:1023500008D0036823F004030360B260626D42F0AA
:102360000102626501228A402A422ED0B84224D05E
:102370009D4B98421CBF9D4B98421ED09C4B98424F
:102380001CBF9C4B984218D09B4B98421CBF9B4B48
:10239000984212D09A4B98421CBF9A4B98420CD04C
:1023A000994B98421CBF994B984206D0984B984243
:1023B0001CBF984B984240F0688143691B0604D5C6
:1023C000B260626D42F00202626504228A402A42D3
:1023D0002ED0B84224D0844B98421CBF834B9842E5
:1023E0001ED0834B98421CBF824B984218D0824B20
:1023F00098421CBF814B984212D0814B98421CBF1F
:10240000804B98420CD0804B98421CBF7F4B984227
:1024100006D07F4B98421CBF7E4B984240F04381D0
:1024200003689B0704D5B260626D42F004026265E6
:10243000102202FA01F129423ED00822B84224D0EB
:10244000D04B98421CBFD04B98421ED0CF4B9842E5
:102450001CBFCF4B984218D0CE4B98421CBFCE4BDE
:10246000984212D0CD4B98421CBFCD4B98420CD015
:10247000CC4B98421CBFCC4B984206D0CB4B9842D9
:102480001CBFCB4B984240F01C810368134213D011
:10249000B16002680168520306D4C90506D4016818
:1024A00021F00801016001E0080301D4216C00E083
:1024B000A16C09B120468847E06D00F01F01202083
:1024C00000FA01F22A4263D020681023B84224D0D7
:1024D000AC4DA8421CBFAC4DA8421ED0AB4DA8428B
:1024E0001CBFAB4DA84218D0AA4DA8421CBFAA4D94
:1024F000A84212D0A94DA8421CBFA94DA8420CD099
:10250000A84DA8421CBFA84DA84206D0A74DA8427E
:102510001CBFA74DA84240F0E18005681D4237D09E
:10252000B26094F835300268042B19D122F01602FB
:102530000260426922F080024261226C0AB9A26CF8
:102540001AB1026822F0080202603F208840B060A1
:10255000002084F83400012084F83500216D3CE02F
:10256000016852030CD4C9050ED4016821F0100192
:102570000160002084F83400012084F8350003E075
:10258000080301D4616C00E0E16B09B12046884783
:10259000606D28B3606DC0071ED04FF41650B8FBB5
:1025A000F0F1042084F835002068026822F001026E
:1025B0000260019A013201928A4202D80268D2076F
:1025C000F7D1002184F834100068C0074FF00300F1
:1025D00008BF012084F83500E16C09B12046884726
:1025E000BDE8FC811000024028000240400002408B
:1025F000580002407000024088000240A0000240E3
:10260000B800024010040240280402404004024086
:10261000580402407004024088040240A0040240B2
:10262000664A90421CBF664A90420CD0654A90426E
:102630001CBF654A904206D0644A90421CBF644A5F
:10264000904240F09080E26D02F01F03026855074F
:1026500051D504259D4015EA01074CD01104756041
:1026600060D4910662D4016821F0040101605DE04C
:10267000504FB8423FF469AE4F4FB8423FF465AE99
:10268000544FB84218BF08235FE64A4B98423FF4C4
:1026900094AE494B98423FF490AE4E4B98423FF473
:1026A0008CAE026891E6434B98423FF4B9AE424B80
:1026B00098423FF4B5AE474B98423FF4B1AE026842
:1026C000B6E63C4B98423FF4E0AE3B4B98423FF4B9
:1026D000DCAE404B984218BF0422D6E6354DA842E6
:1026E0003FF41BAF344DA8423FF417AF394DA84219
:1026F00018BF022311E795071AD502259D4015EA58
:10270000010715D01104756027D4910629D40168FA
:1027100021F00A010160002084F83400012084F8CF
:1027200035001EE0D00301D4A16C56E7216C54E7BC
:1027300012077FF555AF08229A4011403FF450AF81
:10274000016821F00E010160012000FA03F17160BF
:102750006065002184F834103CE7D00301D4616C3B
:102760003BE7E16B39E7F64A90423FF46CAFF54A3C
:1027700090423FF468AFF44988423FF4B6AD2FE78A
:102780002402002428000240400002405800024079
:102790007000024088000240A0000240B8000240E1
:1027A0001004024028040240400402405804024041
:1027B0007004024088040240A0040240945402586D
:1027C000085402581C5402583054025844540258B9
:1027D00058540258B80402402DE9F843044600F06A
:1027E000E9FB002C00F09A8005462068C54FB842EE
:1027F0002AD0C54988421CBFC449884224D0C44954
:1028000088421CBFC34988421ED0C34988421CBFAE
:10281000C249884218D0C24988421CBFC149884277
:1028200012D0C14988421CBFC04988420CD0C0495F
:1028300088421CBFBF49884206D0BF4988421CBF9E
:10284000BE49884240F0F880022184F8351000210A
:1028500084F83410016821F0010101600168C907A2
:1028600006D000F0A7FB401B052852D82068F5E7EA
:102870000168B64AB946D4E90257D4E906C301EA69
:102880000208D4E90462D4E9081E45EA0805BEF14D
:10289000040F45EA070545EA060542EA050242EA51
:1028A0000C0242EA030241EA020103D1D4E90B23FC
:1028B00011431943A64A1268B2F1005F0FD365684D
:1028C000A5F13F07132F04D80122A24BBA401A42A8
:1028D00003D1A5F12902062A01D241F48011016039
:1028E0004F46BEF1040F416921F0070141EA0E0194
:1028F00030D1D4E90A53294363B3BCF5005F10D04B
:10290000BCF1000F19D1022D1AD0012D0FD0BDB18D
:1029100020E020206065032084F835000120BDE818
:10292000F883032D16D8DFE805F00E0B0E02A3F195
:10293000C072B2FA82F2520904E0032D03D309D126
:10294000C3F3006232B140206065012084F8350095
:10295000BDE8F88341612046FEF708FAE16D3F22A9
:1029600001F01F0102FA01F181602068B8423CD0F9
:10297000654988421CBF6549884236D0644988420F
:102980001CBF6449884230D0634988421CBFF94962
:1029900088422AD0F84988421CBFF849884224D08E
:1029A000F74988421CBFF74988421ED0F649884241
:1029B0001CBFF649884218D0F64988421CBFF4492A
:1029C000884212D0F44988421CBFF44988420CD096
:1029D000F34988421CBFF349884206D0F249884235
:1029E0001CBFF249884240F080802046FEF72EFA54
:1029F000A06804F16003802806BF00206060606862
:102A0000C5B20ECB013807280D60536009D82046A7
:102A1000FEF762FA04F16C02002307CA03604A6001
:102A200003E00020C4E91B0060670020606501210D
:102A300084F83510BDE8F883DE4988421CBFD749C9
:102A400088420BD0D64988421CBFD649884205D05F
:102A5000D54988421CBFD54988423AD1022104F1A8
:102A6000080584F83510002184F834102ECD06684E
:102A70006FF31016402946EAD202A1F18006B6FA99
:102A800086F64FEA56164FEA863608BF102642EA07
:102A90000601A26941EAD30141EAD50141EAD20126
:102AA000E26941EAD201226A41EA121140F80819AA
:102AB000C0B21421B0FBF1F08000E0652046FEF7C3
:102AC00055F9E16D012201F01F0102FA01F14160A7
:102AD0004BE7B7498842C1D0B7498842BED0AE491A
:102AE00088423FF4B1AE402014E7B14988423FF438
:102AF0007CAFB04988423FF478AFAF4988423FF499
:102B000074AF92E7100002402800024040000240EB
:102B1000580002407000024088000240A0000240BD
:102B2000B800024010040240280402404004024061
:102B3000580402407004024088040240A00402408D
:102B40006C54025880540258B80402403F8010FE72
:102B50000010005C0F030F00B0B5002800F0CB8020
:102B6000044690F83400012801D10220B0BD0120B4
:102B700084F8340094F83500012840F0B680022033
:102B800084F83500002060652068056825F001059F
:102B900005602046FEF7D2F92068704988421CBFC4
:102BA0006F4A90421ED06F4A90421CBF6E4A9042BC
:102BB00018D06E4A90421CBF6D4A904212D06D4AA6
:102BC00090421CBF6C4A90420CD06C4A90421CBF91
:102BD0006B4A904206D06B4A90421CBF6A4A9042B0
:102BE00040F08B8002680B2363F344020260226C86
:102BF0001AB1026842F00802026088423BD0584A8B
:102C000090421CBF574A904235D0574A90421CBF51
:102C1000564A90422FD0564A90421CBF554A904285
:102C200029D0554A90421CBF544A904223D0544A5E
:102C300090421CBF534A90421DD0534A90421CBF41
:102C4000524A904217D0534A90421CBF504A904279
:102C500011D0514A90421CBF504A90420BD0504A6A
:102C600090421CBF4F4A904205D04F4A90421CBF31
:102C70004E4A904267D1226E1368DB0303D5136876
:102C800043F480731360E26E1AB1136843F48073E7
:102C90001360884223D0324988421CBF31498842A0
:102CA0001DD0314988421CBF3049884217D0304975
:102CB00088421CBF2F49884211D02F4988421CBF2F
:102CC0002E4988420BD02E4988421CBF2D4988428C
:102CD00005D02D4988421CBF2C4988422AD1016861
:102CE00041F0010101600020B0BD002084F83400F3
:102CF0004FF4006060650120B0BD244A90423FF46B
:102D000071AF234A90423FF46DAF224A90423FF4A4
:102D100069AF214B026898423FF465AF052363F326
:102D200043020260226C002A3FF467AF026842F05F
:102D3000040261E717498842D1D017498842CED0B2
:102D400013498842CBE71A4A904294D0194A9042DC
:102D500091D0194A90423FF48EAFC0E71000024074
:102D6000280002404000024058000240700002402B
:102D700088000240A0000240B80002401004024057
:102D800028040240400402405804024070040240FB
:102D9000A004024088040240B804024008540258CB
:102DA0001C54025830540258445402585854025883
:102DB0006C5402589454025880540258B0B50446DA
:102DC00000F0F8F805460548611C007818BF044477
:102DD00000F0F0F8401BA042FAD3B0BD1C02002462
:102DE000402818BF704706F0CDBD000003490A68AF
:102DF000024208BF70470860FFF7F2BF8800005822
:102E00002DE9FC4F5E4A0A244FF0000A4FF00009FA
:102E100090425C4A08BF092402444FEAB223092BBE
:102E200038BF4FEAB224002200940E6836FA02F747
:102E300000F0A380012303FA02F716EA070B00F063
:102E40009680D1F804E003230EF0030CACF10105E9
:102E5000012D13D803FA09F58468CB68AC4303FA53
:102E600009F36FEA050823438360CEF30013446837
:102E7000BC4393405700234343600BE003FA09F33C
:102E8000BCF1030F4F466FEA030803D14F464FF0E2
:102E9000030C22E0C3688C68BCF1020F03EA08034C
:102EA00004FA07F443EA0403C36016D10AF01C03D2
:102EB0000F2404FA03FC6FF0030404EA52050544EE
:102EC0002C6A24EA0C0C0C6904FA03F343EA0C03A1
:102ED0002B62D1F804E00EF0030C04681EF4403FAE
:102EE0000CFA07F304EA080443EA040303603ED043
:102EF000264C274E236843F00203236023680F24E7
:102F000003F002030193019D0AF00C0322F0030574
:102F10009C40AF5927EA0404009F07FA03F32343B8
:102F2000AB514FF0B04633684D6843EA0B04EF02F3
:102F300058BF23EA0B043460134EAF02336843EAF0
:102F40000B0458BF23EA0B043460AF03D6F880307B
:102F500043EA0B0458BF23EA0B04C6F88040ED0394
:102F6000F36F43EA0B0458BF23EA0B04F4670AF13A
:102F7000040A09F10209013257E7BDE8FC8F00BFDE
:102F8000002402580000FEA704000058F444025830
:102F9000080400580069084018BF01207047002A43
:102FA00008BF09048161704701480068000C704740
:102FB0000010005C01480068704700BFD8DE0424A0
:102FC00010B5B0B10446D0F8880028B9002084F8C4
:102FD0008400204604F076F82420C4F88800206895
:102FE000016821F001010160204606F0A3FE0128DE
:102FF00001D1012010BDA06A10B1204606F004FDE9
:103000002068416821F490414160816821F02201EB
:103010008160816841F008018160016841F001012F
:1030200001602046BDE8104006F043BD90F8412005
:10303000202A03D190F84020012A01D1022118E072
:10304000242280F841200268136823F001031360F2
:10305000136823F4805313601368194311601168D7
:1030600041F0010111602022002180F8401080F819
:1030700041200846704790F84120202A03D190F85B
:103080004020012A01D1022117E0242280F84120AA
:103090000268136823F001031360136823F470635C
:1030A00043EA01211160116841F001011160202201
:1030B000002180F8401080F8412008467047704792
:1030C000704710B501688B690A6802F08002DC0560
:1030D00007D532B1446C44F0010444644FF4807469
:1030E000CC615C0507D532B1446C44F008044464FB
:1030F0004FF48064CC619B0507D532B1426C42F03D
:10310000020242644FF40072CA61416C11F00B0F6D
:1031100008BF10BDBDE8104004F0AABB0268436BB5
:103120009169126803B118477047704710B3B0B582
:10313000044690F8410028B9002084F84000204659
:1031400000F080F9242084F84100D4E90003D4E998
:10315000021223F07063012A056825F0010505605D
:103160000361836823F40043836005D141F4004187
:10317000816009E001207047022A41F40441816026
:1031800002D14FF40061416041680F4A04F110051B
:1031900011434160C16821F40041C1602ECD11434B
:1031A00041EA0321C160216A29430160016841F0BD
:1031B0000101016000206064202184F84110206337
:1031C00084F84200B0BD00BF0080000270470000DC
:1031D0002DE9F843044690F84100202803D194F8E3
:1031E0004000012803D102273846BDE8F8830127B3
:1031F0001E461546884684F84070FFF7DBFE814680
:10320000009020464FF400410122192304F0D7FD1D
:103210000028E9D1222084F84100102084F84200DF
:1032200000206064668560636562618D3548B1F534
:10323000807F07D3FF21218500902046FF224FF099
:10324000807306E0618D4FF0007321850090204669
:10325000CAB2414604F08AFD089F0025FF26608D12
:10326000C8B3204639464A4604F0E2FDC8BB206890
:10327000616A406A0870608D01386085606A01305B
:103280006062208D411E2185608D0904E7D10028F0
:10329000E5D02046802100223B46CDF8009004F086
:1032A0008EFDF0B9608DB0F5807F21BF2685009539
:1032B0002046414627BFFF224FF08073608D208556
:1032C0003FBF0095C2B22046414638BF4FF0007361
:1032D00004F04CFDC3E7204639464A4604F0F0FDB1
:1032E00008B1012780E7206820210027544BC161E5
:1032F00042681A40426084F8411084F8407084F8B3
:10330000427071E7002400802DE9F843044690F8EC
:103310004100202803D194F84000012803D102275E
:103320003846BDE8F88301271E461546884684F8CE
:103330004070FFF73FFE8146009020464FF4004169
:103340000122192304F03BFD0028E9D1212084F853
:103350004100102084F842000020606466856063AC
:103360006562618D3548B1F5807F07D3FF212185E6
:1033700000902046FF224FF0807306E0618D4FF0F1
:103380000073218500902046CAB2414604F0EEFC4D
:10339000089F0025FF26608DC0B3204639464A4667
:1033A00004F0B6FDC0BB616A206811F8012B82628F
:1033B000608D013860856162208D411E2185608DA0
:1033C0000904E8D10028E6D02046802100223B46AF
:1033D000CDF8009004F0F3FCF0B9608DB0F5807F7B
:1033E00021BF268500952046414627BFFF224FF08A
:1033F0008073608D20853FBF0095C2B22046414654
:1034000038BF4FF0007304F0B1FCC4E720463946E2
:103410004A4604F055FD08B1012781E720682021C4
:103420000027074BC16142681A40426084F841108E
:1034300084F8407084F8427072E700BF002000807A
:1034400000E800FE2DE9F047B8B0044633A8142187
:10345000FDF701F902A8C021FDF7FDF820682F490A
:10346000884257D1082002904FF00008CDF80C8018
:10347000CDF88C8002A801F065FC08B1FDF7D4FE00
:10348000274F4FF004094FF0010A122633AD254CA7
:103490002946386840F080003860386800F08000C5
:1034A00001900198386840F002003860386800F0F8
:1034B00002000190CDE93689CDF8D4A034962020C1
:1034C0003390019804F5C050FFF79AFC4FF48060E8
:1034D000CDE93689CDE9346A339029462046FFF795
:1034E0008FFCB8680021002240F48000B860B86802
:1034F00000F4800001900198212000F073FA21204F
:1035000000F062FA22200021002200F06BFA222053
:1035100000F05AFA38B0BDE8F08700BF005800400C
:10352000E044025800040258704770472948034994
:1035300000780A6810440860704700BFD8DE042491
:1035400080B5032000F06AFA02F0FEF90E490F4B35
:103550000A68C2F30322096801F00F019A5C595C02
:1035600002F01F02D0401C4A01F01F011060C84049
:10357000074908600F2000F00DF808B1012080BD58
:1035800000F012FA002080BD184402582C020508F1
:103590002802002470B50F4E04463078B0B14FF4C5
:1035A0007A71B1FBF0F00C490968B1FBF0F002F060
:1035B000E7FE01250F2C0AD848B94FF0FF3021460D
:1035C0000022002500F00EFA746000E00125284674
:1035D00070BD00BF1C02002424020024F8B50E4672
:1035E00090F8A01004460220012919D084F8A10007
:1035F000342015463146012784F8A07002FB0040B4
:1036000034223830FCF7A8FF204631462A4604F021
:10361000F5FC20684762002084F8A00084F8A170BF
:10362000F8BD0000002863D0B0B5044690F8A100B2
:1036300028B9002084F8A000204600F05DF80220A0
:1036400084F8A10094E80F0011438569194325F01F
:1036500070458561226911438269114381618268E5
:1036600024490A408260D4E9052343EA0242836880
:103670001A438260C2680A40C260C268D4E9073552
:1036800045EA03431A43C26002690A4002610269C3
:10369000D4E9093545EA03431A43026142691140FE
:1036A00041614169D4E90B2343EA0242114341617C
:1036B000C16A01F07F41C16294F8362094F8351058
:1036C000120442EA012194F834201144C26A1143E1
:1036D000C162416B41F006014163816941F0010122
:1036E00081610020C4F8A400012184F8A110B0BDBC
:1036F0000120704700F800F02DE9F04FB7B0044604
:1037000032A81421FCF7A7FF02A8C021FCF7A3FFF1
:1037100020688149884240F0FC804FF000500290C0
:103720004FF00009CDF80C90CDF84C90CDE91199EF
:1037300002240A201090CDE90E444FF4A5700D909C
:1037400018200C9002A801F0FDFA08B1FDF76CFDFD
:1037500072484FF00E0A32AD724E416841F00801D6
:103760004160416801F0080101910199016841F04F
:1037700002010160016801F00201019101990168F3
:1037800041F040010160016801F04001019101999F
:10379000016841F010010160016801F01001019120
:1037A0000199016841F008010160016801F0080118
:1037B00001910199016841F001010160016801F086
:1037C000010101910199016841F480710160016872
:1037D00001F4807101910199016841F0800101605B
:1037E000016801F0800101910199016841F0040133
:1037F0000160016801F0040101910199016841F043
:10380000200101600068294600F020000190019825
:10381000CDE9354ACDE933494FF430603290404824
:1038200000F5806883464046B0474FF403500BF5DF
:10383000C057CDE9354ACDE933493290294638465B
:10384000B0477020CDE9354ACDE933493290294659
:103850000BF58050B0470920CDE93540CDE933491B
:1038600029464FF4A05032903846B0474820CDE961
:10387000354ACDE93349329029460BF54060B047CF
:1038800040F27E40CDE9354ACDE9334932902946B0
:103890005846B0474FF400600927CDE93547CDE9D8
:1038A0003349329029460BF50050B0470D20CDE941
:1038B0003540CDE9334929464FF48070329058465F
:1038C000B0471020CDE9354ACDE933493290294639
:1038D0000BF5E050B0474120CDE9354ACDE93349F9
:1038E000329029460BF50060B0474FF48060CDE977
:1038F000354ACDE93349329029460BF5A050B047FF
:103900000320CDE93547CDE9334932902946404679
:10391000B04737B0BDE8F08F00100050E0440258C7
:1039200000000258012E02080278114943780B600A
:10393000D2B143684B60037B42EA0372C37A42EA26
:103940000362837A42EAC342437B42EA8342837B37
:1039500042EA4342C37B42EA0342437A007A42EAA4
:10396000032242EA400001E000204860886070477E
:1039700098ED00E00B48BFF35F8F016821F48031C0
:103980000160002101677047064940F001000867A7
:10399000086840F480300860BFF34F8FBFF36F8F2B
:1039A000704700BF24ED00E081B00648016841F097
:1039B00002010160006800F002000090009801B070
:1039C000704700BFF4440258002808D400F01F01DB
:1039D0000122400902FA01F1014A42F82010704721
:1039E00000E100E070B5134B4FF0FF351B68C3F3E7
:1039F0000223DC1E83F0070338BF0024042B28BFFA
:103A0000042305FA04F605FA03F3B2439943A140EF
:103A10001143BDE8704008F0CBB800BF05494FF630
:103A2000FF030A681A4060F30A2203481043086043
:103A3000704700BF0CED00E00000FA0501688A69DC
:103A400042F000628A610122C0F80025002280F85D
:103A5000F424486D024A104348650020704700BFB7
:103A60000300001070470068416200207047B0B545
:103A70000068436AB1B1846A013903EB144300243E
:103A8000E5B2A94207D900EB85050134D5F8045108
:103A900003EB1543F4E700EB810043EA0241C0F871
:103AA000041102E043EA024181620020B0BDD0F877
:103AB000080506F08CBF01EBC10200EB8202D0F8D2
:103AC0000805926C06F0F4BE01EBC10200EB820225
:103AD000D0F80805D2F8882206F041BFD0F80805D2
:103AE00006F077BF01F00F02090602EBC20200EBFD
:103AF000820303F13C0258BF03F51F7200681146B0
:103B000007F024BE10B5044601F00F00090600EBD3
:103B1000C00104EB81015DBF002281F87D2201F527
:103B20001F71012244BF81F83D203C31087094F898
:103B3000BC04012801D1022010BD012084F8BC047E
:103B4000206807F0BDFB002084F8BC0410BDB0B5B0
:103B5000044601F00F006268904201D9012521E07E
:103B600009064FF0000500EBC00104EB81015DBFC9
:103B7000002281F87D2201F51F71012244BF81F8E6
:103B80003D203C3108708D7094F8BC04012801D1AF
:103B9000022507E0012084F8BC04206807F0E4FC5B
:103BA00084F8BC542846B0BD01F00F0101EBC101FF
:103BB00000EB8100D0F890027047B0B5044601F0E8
:103BC0000F00090600EBC00104EB81015DBF002579
:103BD00081F87D5201F51F71012544BF81F83D50E8
:103BE0003C318A600B7108704A7802B14883022B1D
:103BF00001D10020487194F8BC04012801D10220B1
:103C0000B0BD012084F8BC04206807F0A3FA0020AE
:103C100084F8BC04B0BDB0B501F00F01002501EB84
:103C2000C10400EB840404F522772CC784F87C12CD
:103C300084F87D5204F51F71C368012B08BFC4F8D6
:103C40009822DAB2006807F0C3FC0020B0BDB0B51E
:103C5000044601F00F054068854201D90120B0BD3E
:103C6000080609D401EBC100002104EB800080F8B4
:103C70007D1200F51F7108E005EBC500012104EB82
:103C8000800080F83D1000F13C0194F8BC24012034
:103C90000D708870012A01D10220B0BD84F8BC04E7
:103CA000206807F079FC2DB9217B206804F2C4421A
:103CB00007F02EFC002084F8BC04B0BDB0B501F0C4
:103CC0000F0505EBC50100EB8104214601F83C5FBF
:103CD00001F10C0700252CC701234B70C368012B91
:103CE00008BFA265DAB2006807F072FC0020B0BD20
:103CF0002DE9F04F89B005680646284607F0C0FD5B
:103D000010B109B0BDE8F08F306807F0E5FD00287C
:103D1000F7D0D5F80808C0F30D20C6F8FC043068C9
:103D200007F0DAFD01463068890703D5416901F0E3
:103D30000201416105F50061039107F0CDFD0146E7
:103D4000306808960495C9063ED5816921F01001B6
:103D500081612C6A04F00F05C4F3434006281CD08F
:103D600002282BD147F6F070044027D005EBC500A0
:103D7000220906EB80050498D5F8881207F0B0FDFB
:103D8000D5F88802D5F8901200EB1410C5F8880217
:103D900001EB1410C5F8900210E006F2C44104983B
:103DA000082207F09DFD05EBC50006EB8000D0F86A
:103DB0009012C4F30A121144C0F89012306881695D
:103DC00041F010018161049D07F086FD000312D4CB
:103DD000DDF820A0DAF8000007F07EFD400300F1D6
:103DE000DB80DAF8000007F077FD002800F1A18100
:103DF000DAF80000B7E1089C206807F04CFD0646A1
:103E000004F5277A4FF430684FF0000B04F2C440F9
:103E10000790002EDCD0F00700F0B48008985FFA1D
:103E20008BF94946006807F04FFD0746C00757D099
:103E300005EB080001218160089C206808EB000167
:103E4000036C8A68E468012C24D114072DD49406ED
:103E500044D412F0280F43D1E04CA34202D312F411
:103E6000004228D1DAF800200969B8F5306F6FF305
:103E7000DF41A2EB01014AF80C1C2AD1089BD3F8C0
:103E80008C22002A00F08680D3F888020844C3F808
:103E900088021EE0D14CFF34A3420FD110040AD493
:103EA000900616D52020886013E0CC48834217D3B3
:103EB00012F4004014D04FF4004010E0B8F5306F19
:103EC00007D10899D1F88C1219B90021079A07F087
:103ED0001FFB08984946FFF7F7FD01E020208860A6
:103EE000380723D505EB0800082181600898016890
:103EF00008EB01000D6C81680904B849A1F10104C7
:103F000004D5A54284BF4FF400418160089800F0B9
:103F1000C0FBA542049D09D90898C068012805D1B5
:103F200008980121079A006807F0F2FAF80603D50D
:103F300005EB080010218160B80716D568690006F6
:103F400004D50399486840F4806048601AF81D0C55
:103F5000012806D100200AF81D0C4946089800F0F7
:103F600070FA05EB080002218160B80603D505EB65
:103F7000080020218160B80404D505EB08004FF447
:103F8000005181600AF1240A08F1200876080BF13B
:103F9000010B3EE7012199E7DAF8000007F074FC15
:103FA00003460AF2C440029005F510600590002017
:103FB000002B3FF416AF0790D80700F0B680079E9D
:103FC000DAF800000693F7B2394607F06BFC0446B6
:103FD000C00727D0039B06F00F00012202FA00F071
:103FE000596B21EA00005863059800EB4610826087
:103FF000DAF80C00012811D106EBC6000AEB8000AC
:10400000D0E911121144816446B9DAF84C0028B99C
:10401000DAF800000121029A07F07AFA5046394690
:10402000FFF749FD200704D50598082100EB46104D
:104030008160E006069B04D50598102100EB461030
:104040008160600604D50598402100EB4610816030
:10405000A00717D52846314607F0E0FB06EBC6005F
:104060000AEB800010F83F1F012905D100210170E3
:104070005046394600F0E1F90598022100EB461060
:104080008160069B200650D5079800EBC0000AEB24
:10409000800BD94659F84C0FC84658F8042F904267
:1040A00043D35BF8441F851ADAF800400BF104068D
:1040B0008D4288BF0D46079904EB411101F5106A46
:1040C00018E0089D3168DBF800302D7B0095851ADB
:1040D00020463A469D4288BF1D46ABB207F0D4FC4D
:1040E000306828443060D8F800004219C8F8002031
:1040F000D9F80000DAF81830E91C9BB2B3EB910F45
:1041000028BF9042DDD89042DDF820A0049D069B98
:104110000BD80798012100F00F0001FA00F0D4F845
:10412000341821EA0000C4F8340807985B0801300D
:104130003EE70399486820F0010048609AF8F404CB
:10414000012807D100208AF8F40400215046FFF727
:1041500089FC02E0504600F080FADAF8000041697C
:1041600001F00041416107F0B7FB000502D4DAF825
:1041700000000CE003988068C00702D0504600F0B1
:10418000AFFADAF80000416901F40061416107F01B
:10419000A3FB000118D5DAF80000416901F00061C5
:1041A00041619AF8F41419B1504600F099FA0BE005
:1041B00001218AF8F414406D0121C0F38300CAF88C
:1041C000F8045046FFF74EFCDAF8000007F084FBD5
:1041D000C00405D4DAF8000058E000BF0B30544F9B
:1041E000D5F80408102120F00100C5F80408DAF819
:1041F000000007F013FB05F51060DAF804104FF625
:104200007F32039CA9B182600139036823F4001353
:104210000360C0F80822D0F8003223F40013C0F87D
:104220000032D0F8003243F00063C0F80032203092
:10423000E8E7E06940F00110E061DAF8300040B1F1
:10424000D4F8840040F00B00C4F8840004F144006A
:1042500006E0606942F22B010843606104F110003E
:1042600001680AF2C44241F00B010160206820F4A9
:10427000FE6020609AF80C10DAF8000007F048F9A8
:10428000DAF80000416901F48051416107F024FB34
:104290000146DAF8000089041AD506F099FFDAF829
:1042A000000007F0DFFACAF81000DAF8004001F069
:1042B0000DFB9AF810200146204607F06DFB504692
:1042C00000F0B6F9DAF80000416901F400514161EB
:1042D00007F002FB000702D4DAF8000008E05046BD
:1042E00000F0BFF9DAF80000416901F0080141610E
:1042F00007F0F2FA000608D4DAF8000007F0ECFA4A
:10430000C00219D4DAF8000039E00499012440F21F
:10431000A325886920F080008861DAF804008442CF
:10432000EAD21AF80500012803D1E1B25046FFF79E
:10433000D9FB24350134F0E704980AF1630401261F
:10434000012700F51265DAF80400874211D260787F
:104350002968B1F1FF3F08DC012806D147F0800051
:104360002670C1B25046FFF7BDFB2434203501371B
:10437000E9E7DAF80000416901F480114161049C29
:1043800007F0AAFA800202D4DAF8000031E004F55E
:1043900032610AF52970DAF80420012301249442DD
:1043A00021D206780D68B5F1FF3F13DC012E11D143
:1043B000DAF8FC6405F4803506F00106B54209D14F
:1043C000049EB56945F08005B56100F8013C75694A
:1043D0002D0603D5243020310134E0E703994868E5
:1043E00040F400704860DAF80000416901F40011FF
:1043F000416107F071FA400002D4DAF8000008E0E9
:104400005046FFF754FBDAF80000416901F08041A3
:10441000416107F061FA40077FF573ACDAF80000FC
:104420004468610704D55046FFF758FBDAF80000EE
:10443000416821434160FFF764BCD0F8080506F0ED
:104440001FBBD0F8080506F02EBB2DE9F04F8BB04E
:10445000002800F087800446056890F8BD0428B95C
:10446000002084F8BC04204600F092F8032084F871
:10447000BD04E86BC00501D40020E060206807F0AF
:1044800041F820680A9004F1040B04F1140E04F1C1
:10449000240AD4E90C509BE80E089EE8C0509AE824
:1044A0000007CDE9085002A8CDE900B680E88050A9
:1044B00005A880E800070A9806F09AFE00284ED169
:1044C00020680021002507F026FA616801200022FB
:1044D000D3B2994210D903EBC30604EB860686F8E3
:1044E0003C20A6F8563086F83D00C6E91155F56423
:1044F00086F840500132EBE700200022D3B2994207
:104500000FD903EBC30304EB8303C3E9A10083F8D2
:104510007C22C3F88C0283F8800283F87D0201328A
:10452000ECE7A0680A9004F1140E04F1240A226852
:10453000D4E90C50D4E9033B9EE8C0509AE8000748
:10454000CDE9085002A8CDE900B680E8805005A862
:1045500080E8000710460A9A06F010FF30B10220EA
:1045600084F8BD0401200BB0BDE8F08F002084F872
:104570003800012084F8BD04606A012802D1204679
:10458000FFF75CFA206806F0EBFE0020EBE7000086
:10459000B0B5B8B0044633A81421FCF75CF802A803
:1045A000C021FCF758F820681E49884237D14FF4E3
:1045B00080200290002403944FF48010249002A8DD
:1045C00000F0C0FB08B1FCF72FFE00F0C3F8164D59
:1045D00033A9A86840F00100A860A86800F00100B5
:1045E00001900A203790CDE93544022034904FF4F1
:1045F000C050339001980D48FEF702FC2868002156
:10460000002240F000602860286800F000600190FF
:1046100001986520FFF7E6F96520FFF7D5F938B076
:10462000B0BD00BF00000840D84402580000025846
:1046300010B50446006928B1022801D0FCF7F4FD4A
:10464000012100E00021D4F8080506F09BFAD4F817
:104650000805BDE8104006F04EBAD0F8080506F08F
:104660007ABAD0F8080506F080BA10B5044690F87A
:10467000BC04012801D1022010BD84F838100120AB
:1046800084F8BC04206807F077F9002084F8BC04A3
:1046900010BDD0F8082500F2C441104606F07EBADD
:1046A00010B5044690F8BC04012801D1022010BDC9
:1046B0002068012184F8BC14C16BC90506D4A16A25
:1046C000012903D1816B41F48031816307F080F8C7
:1046D000206806F037FE002084F8BC0410BD0000FE
:1046E00010B50446D0F8080506F09AFA2068D0F80C
:1046F000001E41F00101C0F8001E206A20B10348ED
:10470000016841F00601016010BD00BF10ED00E03E
:10471000B0B5134D2A682968520705D401F0070186
:10472000081A18BF0120B0BD21F007010843286016
:10473000FEF740FC044655F8080C800407D4FEF749
:1047400039FC001BB0F57A7FF5D90120B0BD0020FF
:10475000B0BD00BF0248016841F080710160704740
:104760000C4802580248016841F4807101607047AA
:104770000048025880B501F0A9F80549054A0968C2
:10478000C1F30211515C01F01F01C84080BD00BFA0
:10479000204402582C020508B0B53C498B6A8A6A4D
:1047A000CC6A4D6B04F00104C5F3CC056C4300EEFC
:1047B000104AB8EE400AC2F3051262B103F00303D7
:1047C000022B0CD0012B0DD013B90B689B060CD417
:1047D0009FED311A13E00021C0E9001153E09FED75
:1047E0002D1A0CE09FED2A1A09E00B682B4CC3F33D
:1047F000C10324FA03F301EE103AB8EE411A0B6B31
:104800009FED273A6FF35F2302EE103AB8EE422A8B
:1048100000EE032A03EE102AB7EE000AB8EE433A80
:104820000A6BC2F3462232EE002A81EE031A21EE11
:10483000021A02EE102AB8EE422A32EE002A81EE67
:10484000022ABCEEC22A80ED002A0A6BC2F306429D
:1048500002EE102AB8EE422A32EE002A81EE022A37
:10486000BCEEC22A80ED012A096BC1F3066102EE9B
:10487000101AB8EE422A32EE000A81EE000ABCEEAF
:10488000C00A10EE101A8160B0BD00BF004402588B
:104890000024744A001BB74B0024744C0090D003D2
:1048A00000000039B0B53B498B6A8A6ACC6AC4F310
:1048B0000014CD6BC5F3CC056C4300EE104AB8EE86
:1048C000400AC2F30532AAB103F00303022B15D04C
:1048D000BBB90B689B0651BF9FED311A0B68C3F340
:1048E000C103304C42BF24FA03F301EE103AB8EE94
:1048F000411A08E00021C0E9001148E09FED271AA5
:1049000001E09FED251A8B6B9FED273A6FF35F2334
:1049100002EE103AB8EE422A00EE032A03EE102A05
:10492000B7EE000AB8EE433A8A6BC2F3462232EE83
:10493000002A81EE031A21EE021A02EE102AB8EEC6
:10494000422A32EE002A81EE022ABCEEC22A80ED13
:10495000002A8A6BC2F3064202EE102AB8EE422AFF
:1049600032EE002A81EE022ABCEEC22A80ED012A34
:10497000896BC1F3066102EE101AB8EE422A32EEDC
:10498000000A81EE000ABCEEC00A10EE101A816027
:10499000B0BD00BF004402580024744A001BB74B4E
:1049A0000024744C0090D00300000039B0B53B499E
:1049B0008B6A8A6ACC6AC4F300244D6CC5F3CC05BB
:1049C0006C4300EE104AB8EE400AC2F30552AAB199
:1049D00003F00303022B15D0BBB90B689B0651BF34
:1049E0009FED311A0B68C3F3C103304C42BF24FA68
:1049F00003F301EE103AB8EE411A08E00021C0E9D5
:104A0000001148E09FED271A01E09FED251A0B6C7D
:104A10009FED273A6FF35F2302EE103AB8EE422A79
:104A200000EE032A03EE102AB7EE000AB8EE433A6E
:104A30000A6CC2F3462232EE002A81EE031A21EEFE
:104A4000021A02EE102AB8EE422A32EE002A81EE55
:104A5000022ABCEEC22A80ED002A0A6CC2F306428A
:104A600002EE102AB8EE422A32EE002A81EE022A25
:104A7000BCEEC22A80ED012A096CC1F3066102EE88
:104A8000101AB8EE422A32EE000A81EE000ABCEE9D
:104A9000C00A10EE101A8160B0BD00BF0044025879
:104AA0000024744A001BB74B0024744C0090D003C0
:104AB00000000039F8B580F400220A4300F07F803E
:104AC00080F400720A4332D080F480620A4300F01E
:104AD000878080F400620A4338D080F480520A4311
:104AE00000F08B8080F400520A4300F0948080F440
:104AF00080420A4337D080F400420A4342D080F417
:104B000080320A434ED080F48070084340F0DF804A
:104B10008749086D00F00702042A00F2D88088480F
:104B2000DFE812F0770087008E00D60096008049FB
:104B3000086DC0F38212042A00F2C9808048DFE8C1
:104B400012F0680078007F00C70087007849886D00
:104B5000C0F30262042A00F2BA807948DFE802F06A
:104B6000596970B878007248816DC1F302710529E6
:104B700000F2AD80DFE801F003869198A28DFFF787
:104B8000F9FDA5E06A48016D01F04051B1F1005F07
:104B900000F07880B1F1805F00F09680002940F04D
:104BA000968076E06248C16C0068C90340F18D8050
:104BB000000140F18C8001A8FFF774FEA1E05C4881
:104BC000816D01F44031B1F5003F00F08880B1F50E
:104BD000803F00F09080002940F07980006829E053
:104BE0005349886DC0F34252042A00F27080544841
:104BF000DFE802F00F1F266E2E004D49086DC0F34E
:104C00000232042A63D84E48DFE802F003131A6226
:104C10002200086859E04648016DC1F302410529A8
:104C200055D8DFE801F0032F3A414B3600F06CFE17
:104C30004EE0086800014AD501A8FFF733FE05E001
:104C40000868800043D501A8FFF7B0FE01983FE057
:104C5000C86C0B6810F04052086802D113F00403CE
:104C600026D1B2F1805F02D110F4807051D1086872
:104C700010F400301CBF43F20060C0F26E10B2F1BD
:104C8000005F52E00068000121D501A8FFF70AFE8D
:104C900023E000682749800313E00068800016D5F0
:104CA00001A8FFF783FE18E0016849070FD50068E7
:104CB000C0F3C100214921FA00F009E000681E4953
:104CC000C00501EAE07003E00068800102D4002022
:104CD00004B080BD01A8FFF75FFD0298F8E7C16C42
:104CE0000368026811F040510DD113F004030AD09B
:104CF000C2F3C100DEE700688000E8D501A8FFF735
:104D000055FE0398E4E7B1F1805F04D112F480729C
:104D100001D00948DCE7006810F400301CBF43F202
:104D20000060C0F26E10B1F1005F18BF0020CFE745
:104D30000044025800366E0100093D000090D00387
:104D40000080BB002DE9F0470446C078AD4F000756
:104D500022D5A06E4FEA3051032908D8DFE801F0D0
:104D600002090F17F96941F40031F9610FE00126DA
:104D700013E004F10800022103F0B6FE04E004F1A0
:104D80002800022103F02CFF064630B9A06E396CD2
:104D900021F440110843386400266078BA46C00701
:104DA00001D1354629E0A06D04280BD83546DFE84F
:104DB00000F0030C12181800F869354640F4003072
:104DC000F8610EE00125012718E004F10800002138
:104DD00003F08AFE04E004F12800002103F000FF44
:104DE00005462F4655B9A06DDAF840100025524609
:104DF00021F007010843CAF8400037466078800771
:104E00002CD5E06D4FEAB01004280CD8DFE800F094
:104E1000030E141A1A00DAF81C00514640F4003050
:104E2000CAF81C000EE00125012618E004F1080074
:104E3000002103F059FE04E004F12800002103F0F2
:104E4000CFFE05462E4655B9E06DDAF84010002534
:104E5000524621F4E0710843CAF840003E466078AB
:104E6000400702D4B04657462BE0D4F8A800574676
:104E70004FEA7050042809D8DFE800F0030C12183C
:104E80001800F86940F40030F8610FE001254FF098
:104E9000010816E004F10800002103F025FE04E0FB
:104EA00004F12800002103F09BFE0546A84645B901
:104EB000D4F8A800B96C0025B04621F4600108437D
:104EC000B864607800072BD5D4F8AC004FEA3060A6
:104ED000042809D8DFE800F0030B11171700F86960
:104EE00040F40030F8610EE00125012719E004F1DB
:104EF0000800002103F0F8FD04E004F1280000217F
:104F000003F06EFE05462F465DB9D4F8AC00DAF822
:104F100048100025524621F0E0610843CAF84800D5
:104F20004746E078800725D5E06C4FEA301003282B
:104F30000BD8DFE800F013020D13DAF81C0051461D
:104F400040F40030CAF81C0008E00125012612E0F8
:104F500004F10800022103F0C7FD05462E4655B9AD
:104F6000E06CDAF83C100025524621F0300108438D
:104F7000CAF83C003E466078C0062CD5206E4FEA49
:104F8000303004280CD8DFE800F0030E141A1A00A1
:104F9000DAF81C00514640F40030CAF81C000EE05C
:104FA0000125012718E004F10800002103F09CFD11
:104FB00004E004F12800002103F012FE05462F460C
:104FC00055B9206EDAF840100025524621F4E04130
:104FD0000843CAF8400037466078800626D5606EE0
:104FE0004FEA304005280AD8DFE800F014030E1419
:104FF000141404F10800012103F076FD09E00125F5
:10500000012614E01044025804F12800012103F0A5
:10501000E7FD05462E4655B9606EDAF840100025CA
:10502000524621F4E0210843CAF840003E46607829
:10503000400626D5D4F8B0004FEA307005280AD8CB
:10504000DFE800F012030C12121204F10800012133
:1050500003F04AFD07E00125012713E004F12800D1
:10506000012103F0BDFD05462F465DB9D4F8B0001F
:10507000DAF848100025524621F0E0410843CAF80A
:10508000480037466078000621D5206F98B1B0F10E
:10509000005F0AD0B0F1805F2DD1DAF81C005146D4
:1050A00040F40030CAF81C0005E004F108000121BA
:1050B00003F01AFD05462E4655B9206FDAF8401068
:1050C0000025524621F040510843CAF840003E46B0
:1050D000E078C00702D1B046574623E0A06C57469F
:1050E00003280BD8DFE800F014020E14F86940F42E
:1050F0000030F8610CE001250126E9E701254FF0B9
:1051000001080FE004F10800022103F0EDFC054660
:10511000A8463DB9A06CF96B0025B04621F003010B
:105120000843F863A078400601D4474616E0D7F854
:10513000F00340F48070C7F8F003FDF73BFF06462C
:10514000D7F8F003C00507D4FDF734FF801B6428AF
:10515000F6D90325032701E02F4695B12078C00733
:105160004FD0E06F4FEAF000052835D8DFE800F0B7
:105170003D03373D3D3D04F10800012103F0B4FC3F
:1051800032E0DAF86010D4F8B4005546414011F42A
:10519000407F0BD0296E2A6E42F480322A6621F4B9
:1051A00040712A6E22F480322A662966B0F5807F2B
:1051B00040F06982FDF7FEFE064641F2883903277A
:1051C000DAF86000800700F15B82FDF7F3FE801BD8
:1051D00003254845F4D9C1E70125012612E004F171
:1051E0002800012103F0FCFC05462E4655B9E06F6E
:1051F000DAF844100025524621F038010843CAF875
:1052000044003E462078800722D5A06F05280AD8A2
:10521000DFE800F012030C12121204F10800012161
:1052200003F062FC07E00125012712E004F12800E9
:10523000012103F0D5FC05462F4655B9A06FDAF8D9
:1052400044100025524621F007010843CAF84400E3
:1052500037462078400724D5D4F8940005280AD88A
:10526000DFE800F012030C12121204F10800012111
:1052700003F03AFC07E00125012613E004F12800C1
:10528000012103F0ADFC05462E465DB9D4F894002B
:10529000DAF848100025524621F007010843CAF801
:1052A00048003E462078800626D5D4F890004FEA84
:1052B000307005280AD8DFE800F012030C12121231
:1052C00004F10800002103F00FFC07E0012501278D
:1052D00013E004F12800022103F082FC05462F466A
:1052E0005DB9D4F89000DAF844100025524621F058
:1052F000E0410843CAF8440037462078400626D5E6
:10530000D4F89C004FEAB02005280AD8DFE800F066
:1053100012030C12121204F10800002103F0E4FB46
:1053200007E00125012613E004F12800022103F023
:1053300057FC05462E465DB9D4F89C00DAF84810B3
:105340000025524621F4E0510843CAF848003E4681
:105350002078000626D5D4F8A0004FEA7030052842
:105360000AD8DFE800F012030C12121204F1080050
:10537000002103F0B9FB07E00125012713E004F148
:105380002800022103F02CFC05462F465DB9D4F815
:10539000A000DAF848100025524621F46041084385
:1053A000CAF8480037462068010717D5D4F884109A
:1053B000B1F5805F0AD104F12800022103F010FC4E
:1053C000002818BF01272068D4F88410DAF8442098
:1053D000534622F440521143CAF84410C10617D56F
:1053E000D4F89810B1F5807F0AD104F12800022189
:1053F00003F0F6FB002818BF01272068D4F89810A6
:10540000DAF84820534622F440721143CAF8481093
:10541000000321D5D4F8A400B0F5003F0FD0B0F5BB
:10542000803F06D080BB04F10800002103F05CFB44
:1054300004E004F12800022103F0D2FB05462E46C9
:105440005DB9D4F8A400DAF848100025524621F4DA
:1054500040310843CAF848003E46A078400729D5A5
:10546000D4F88800B0F5401F17D0B0F5001F0ED05B
:10547000B0F5801F40F0FF80DAF81C00514640F480
:105480000030CAF81C0008E001250126E5E704F118
:105490002800012103F0A4FB05462F465DB9D4F88E
:1054A0008800DAF844100025524621F440110843E0
:1054B000CAF844003746A078C00701D13E4621E033
:1054C000206DB0F5803F08D0D0B9DAF81C00514605
:1054D00040F40030CAF81C0005E004F10800022185
:1054E00003F002FB05462E4665B9206DDAF83C1044
:1054F0000025524621F480310843CAF83C00DDE71C
:10550000012501262168880001D4606809E004F1C2
:105510002800022103F064FB002818BF0126D4E90B
:1055200000108A031BD5D4F880206FF0010303EB31
:105530003223022B0BD34FEA322343B1012B40F02D
:105540009D80DAF81C3043F40033CAF81C303DB9B2
:10555000DAF8443023F440731A43CAF8442035463D
:10556000CA0207D5626FDAF8403023F000431A43CD
:10557000CAF84020CA0008D5D4F8B820DAF80030BC
:1055800023F480431A43CAF800208A0207D5E26E4A
:10559000DAF8403023F080731A43CAF840204A00FA
:1055A0000CD5DAF8002022F40042CAF80020D4F822
:1055B000BC20DAF800301A43CAF80020B1F1FF3FEE
:1055C00007DC626DDAF83C3023F040531A43CAF826
:1055D0003C20090208D5D4F88C10DAF8442022F4D3
:1055E00040021143CAF84410C10708D004F1080072
:1055F000002103F079FA002818BF0546606881078A
:1056000008D504F10800012103F06EFA002818BF44
:1056100005466068410708D504F10800022103F03F
:1056200063FA002818BF05466068010708D504F131
:105630002800002103F0D4FA002818BF054660684E
:10564000C10608D504F12800012103F0C9FA002899
:1056500018BF05466068800607D504F128000221BE
:1056600003F0BEFA002818BF0125002D18BF012540
:105670002846BDE8F087012501271CE701256FE7D3
:105680005546D4F8B4002A68094900F4407322F45E
:105690007C5201EA1011B3F5407F6FF31F3008BF51
:1056A0000A432A60296E0843286600253DE500BFAD
:1056B000CFFFFF002DE9F843002800F00081814D65
:1056C00004468846286800F00F0088420BD22868FC
:1056D00020F00F0040EA08002860286800F00F0062
:1056E000404540F0EC802068CC4F41070AD5216945
:1056F000BA6902F07002914204D9BA6922F07002CC
:105700001143B96101070AD56169FA6902F07002B3
:10571000914204D9FA6922F070021143F961C1067D
:105720000AD5A169FA6902F4E062914204D9FA69E2
:1057300022F4E0621143F96181060AD5E1693A6A0F
:1057400002F07002914204D93A6A22F070021143C9
:10575000396210F002010AD0E268BB6903F00F035E
:105760009A4204D9BB6923F00F031A43BA61C207F6
:105770003AD0D4E90101BA6922F47062032841EAFF
:105780000201B96105D0022807D1396889030DD417
:1057900095E03968890109D491E03968012802D17E
:1057A000C90503D48BE0490740F189803969A946CE
:1057B00021F0070108433861FDF7FCFB064641F282
:1057C00088356068396901F03801B1EBC00F07D046
:1057D000FDF7F0FB801BA842F3D90320BDE8F88356
:1057E00020684D4600F0020151B1E168BA6902F04B
:1057F0000F02914204D2BA6922F00F021143B9613B
:10580000296801F00F0141450AD9296821F00F01EB
:1058100041EA08012960296801F00F0141454ED194
:1058200041070AD52169BA6902F07002914204D297
:10583000BA6922F070021143B96101070AD56169A2
:10584000FA6902F07002914204D2FA6922F0700201
:105850001143F961C1060AD5A169FA6902F4E0624F
:10586000914204D2FA6922F4E0621143F9618006A0
:105870000AD5E069396A01F07001884204D2396AB8
:1058800021F070010843386200F05EF8B9692D4AD2
:105890001B4BC1F30321515C01F01F01C840B969E2
:1058A000186001F00F01515C01F01F01C84015495B
:1058B000086005480068BDE8F843FDF76BBE0120AD
:1058C000BDE8F883002000522002002480B500F0DB
:1058D0003BF80A491B4B0A68C2F30322096801F02E
:1058E0000F019A5C595C02F01F02D040044A01F09B
:1058F0001F011060C8400349086080BD1844025869
:10590000240200242802002480B5FFF7DFFF0C49A1
:105910000C4A0968C1F30211515C01F01F01C84033
:1059200080BD00BF80B5FFF7D1FF0549054A096872
:10593000C1F30221515C01F01F01C84080BD00BFCE
:105940001C4402582C02050810B534490869C0F3FC
:10595000C20003280BD002282FD080BB0868800625
:1059600034485AD50968C1F3C101C84010BD8A6ADC
:10597000886ACB6A4C6B03F00103C4F3CC04634325
:1059800000EE103AB8EE400AC0F30510C8B102F0BC
:105990000302022A17D0CAB90A68920651BF9FEDC6
:1059A000241A0A68C2F3C102224B42BF23FA02F250
:1059B00001EE102AB8EE411A0AE01A4810BD184844
:1059C00010BD002010BD9FED191A01E09FED161AC1
:1059D0000A6B9FED193A6FF35F2202EE102AB8EEC0
:1059E000422A00EE032AB7EE000A32EE000A02EE67
:1059F000100AB8EE422A086BC0F3462081EE021A64
:105A0000013021EE000A01EE100AB8EE411A80EED4
:105A1000010ABCEEC00A10EE100A10BD0044025884
:105A200000093D0000366E010024744A001BB74B8C
:105A30000024744C0090D00300000039F8B5002811
:105A400000F03F8104460078D44EC00721D1207871
:105A5000800740F19A80306910F03801B06A3DD07B
:105A6000182908BF5FEA807038D03068E1680029E3
:105A70005ED020F0190008433060FDF79BFA054620
:105A80003068400743D4FDF795FA401B0228F7D948
:105A9000C8E1306900F03801B06A102905D0182932
:105AA0000AD100F00300022806D130688003CED569
:105AB00060680028CBD104E16068002848D0B0F5C8
:105AC000803F07D03168B0F5A02F40F0988141F4B5
:105AD00080203060306840F4803096E1E0683168C2
