:020000040800F2
:10000000701B0024AD0200080B500008374C00089C
:100010000950000833080008A37800080000000019
:10002000000000000000000000000000555700081C
:10003000310A000800000000195000085757000856
:10004000C7020008C7020008C7020008C70200086C
:10005000C7020008C7020008C7020008C70200085C
:10006000C7020008C7020008C702000835080008D8
:10007000C7020008C7020008C7020008C70200083C
:10008000C7020008C7020008C7020008C70200082C
:10009000C7020008C7020008C7020008C70200081C
:1000A000C7020008C7020008C7020008C70200080C
:1000B000C7020008C7020008C7020008C7020008FC
:1000C000C7020008C7020008C7020008C7020008EC
:1000D000C7020008C7020008C7020008C7020008DC
:1000E000C7020008C702000800000000C70200089D
:1000F000C7020008C7020008C7020008C7020008BC
:10010000C7020008C7020008C7020008C7020008AB
:10011000C7020008C7020008C7020008C70200089B
:10012000C7020008C7020008C7020008C70200088B
:10013000C7020008C7020008C7020008C70200087B
:1001400000000000000000000000000000000000AF
:10015000C7020008C7020008C7020008C70200085B
:10016000C7020008C7020008C7020008C70200084B
:10017000C7020008C7020008C7020008C70200083B
:10018000C7020008C7020008D9580008C7020008C3
:10019000C7020008C7020008C7020008C70200081B
:1001A000C7020008C7020008C7020008C70200080B
:1001B000C7020008C7020008C7020008C7020008FB
:1001C000C7020008C7020008C7020008C7020008EB
:1001D000C70200080D500008C7020008C702000847
:1001E000C7020008C7020008C7020008C7020008CB
:1001F000C7020008C7020008C7020008C7020008BB
:10020000C7020008C7020008C7020008C7020008AA
:10021000C7020008C7020008C7020008C70200089A
:10022000C7020008C7020008C7020008000000005B
:10023000C7020008C702000800000000C70200084B
:10024000C7020008C7020008C7020008C70200086A
:10025000C7020008C7020008C7020008C70200085A
:10026000C7020008C7020008C7020008C70200084A
:10027000C7020008C7020008C7020008000000000B
:10028000C7020008C7020008C702000800000000FB
:1002900000000000C7020008DFF80CD000F048FAA8
:1002A000004800471D790008701B0024064880475D
:1002B00006480047FEE7FEE7FEE7FEE7FEE7FEE74B
:1002C000FEE7FEE7FEE7FEE729580008990200086E
:1002D0002DE9F05F0546002092469B46884606467B
:1002E000814640241BE0284641464746224600F00E
:1002F00057F853465A46C01A914110D31146184632
:10030000224600F03EF82D1A67EB01084F462246C0
:100310000120002100F035F817EB00094E41201EA6
:10032000A4F10104DFDC484631462A464346BDE8D5
:10033000F09FD2B201E000F8012B491EFBD27047BA
:100340000022F6E710B513460A4604461946FFF7A1
:10035000F0FF204610BD30B50B460146002020229C
:10036000012409E021FA02F59D4205D303FA02F5C2
:10037000491B04FA02F52844151EA2F10102F1DC22
:1003800030BD202A04DB203A00FA02F10020704739
:100390009140C2F1200320FA03F3194390407047C3
:1003A000202A04DB203A21FA02F00021704721FACA
:1003B00002F3D040C2F12002914008431946704731
:1003C0002DE9FE4F804681EA0300C00F0C460090E5
:1003D00021F0004123F00045B8EB0200A94105D20D
:1003E0004046214690461C460B46024623F00040FC
:1003F000104347D0270DC7F30A00C3F30A510290F8
:10040000401A019040286BDAC3F3130040F4801BBC
:100410000098924620B10023D2EB030A63EB0B0B4A
:1004200001985946C0F140025046FFF7AAFF064620
:100430000D4650465946019A00F08CF910EB080021
:100440006141002487EA115284EAE7731A4340D0DD
:10045000009A62B3019A012A4FEA075215DC001B89
:1004600061EB02014FF0004202EA0752CDE900427F
:10047000001C41F5801132462B4600F08CF903B088
:10048000BDE8F08F40462146F9E7001B61EB020111
:10049000001C41F5801300185B412018A2F50017DD
:1004A00047EB030140EAD570B6196D4111E06D08C4
:1004B0004FEA360645EAC0754FEA0752001B61EB6A
:1004C0000201001C41F5801149084FEA3000001973
:1004D000514132462B4603B0BDE8F04F00F04CB915
:1004E0000098012240000023D0EB020263EBE0738E
:1004F000009821464FEAE074B8EB000061EB04017C
:10050000E9E783F000435BE781F0004158E72DE91C
:10051000FE4F81EA030404F0004421F000410094FE
:100520004FF0000B23F0004350EA01045ED052EA82
:1005300003045BD0C3F30A54C1F30A552C44A4F25C
:10054000F3340194A0FB0254C1F3130141F4801170
:10055000C3F3130343F4801301FB024400FB034E77
:10056000840A970A44EA815447EA8357A4FB076840
:1005700002958D0A05FB07854FEA932C04FB0C546A
:100580002705029D4FEA065847EA1637B5EB0805DE
:100590006EEB070C870E920E47EA811742EA831230
:1005A000A7FB0201B6EB0B0164EB00042B0D43EA41
:1005B0000C335E1844EB1C50DA465146E7FB02014F
:1005C000C5F313044FEA0B3343EA14534FEA0432E2
:1005D000019C43EA0603A4F10C040294009CCDE9BB
:1005E00000B400F0D8F803B0BDE8F08F0020014659
:1005F000F9E72DE9F04D81EA030404F0004B21F006
:10060000004514464FF0000A23F0004150EA05026D
:1006100020D054EA01021DD0C5F30A570246C5F3A3
:100620001303C1F31300C1F30A5640F4801543F4D9
:100630008013A7EB0608101BD64608F2FD3873EBB3
:10064000050002D308F1010801E092185B41B8F1FE
:10065000000F03DA00200146BDE8F08D00204FF4C2
:100660008011064684460EE0171B73EB050705D381
:10067000121B63EB050306434CEA010C49084FEAE1
:10068000300092185B4150EA0107EDD152EA0300B5
:1006900012D082EA040083EA0501084305D0101B4A
:1006A000AB4106D20122002306E000224FF00043B6
:1006B00002E06FF0010253101AEB06004CEB0851F8
:1006C00010EB0A0041EB0B01BDE8F04D00F054B80F
:1006D000C1F30A52C1F3130140F2FF3341F4801118
:1006E0009A4202DA00200146704740F233439A42B0
:1006F000A2F2334202DC5242FFF752BEFFF741BE84
:1007000030B5041E71F1000404DB4FF00044404298
:1007100064EB0101141E73F1000405DB1C464FF06D
:100720000043524263EB0403994208BF904230BD3C
:10073000064C074D06E0E06840F0010394E807002E
:1007400098471034AC42F6D3FFF7AAFDD0830008D7
:10075000F0830008202A06DBCB17203A41FA02F08A
:1007600043EAE07306E041FA02F3D040C2F120020E
:10077000914008431946704710B5141E73F10004E8
:1007800008DA401C41F1000192185B411A4301D183
:1007900020F0010010BD2DE9F04D92469B4611B1AD
:1007A000B1FA81F202E0B0FA80F220329046FFF70F
:1007B000E8FD04460F4640EA0A0041EA0B015346B1
:1007C0005A46084313D0114653EA010019D0C8F124
:1007D00040025046FFF7E4FD05460E465046594696
:1007E0004246FFF7CEFD084305D0012004E0204635
:1007F0003946BDE8F08D0020054346EAE0762C43FB
:1008000037430A986305E40AA0EB08000022FD0ABA
:1008100044EA47540A3002D500200146E9E70105C1
:1008200010196941DDE9084500196941BDE8F04D3D
:10083000A2E7FEE7014800F05FBC00BFE40C002423
:1008400010B50168244A914223D0244A91421CBF2A
:10085000234A91421DD0234A91421CBF224A914211
:1008600017D0224A91421CBF214A914211D0214AFD
:1008700091421CBF204A91420BD0204A91421CBF9A
:100880001F4A914205D01F4A91421CBF1E4A914205
:1008900015D16FF00F0218231FA452FA81F2B2FB98
:1008A000F3F35F2A03F00703E35CC36540F2FF3311
:1008B00021EA030188BF04318165084610BD134A4F
:1008C0009142E6D0124A9142E3D0124A9142E0D0DE
:1008D00021F0FF01F0E700BF1000024028000240B5
:1008E0004000024058000240700002408800024070
:1008F000A0000240B8000240100402402804024058
:10090000400402405804024070040240880402403F
:10091000B8040240A004024000061016000610169B
:1009200010B50268384B1E499A421CBF374B9A4299
:1009300005D0374B9A421CBF364B9A4211D1D3B2E5
:10094000A3F108021423B2FBF3F3603001F180023B
:1009500001EB830103F01F03012404FA03F30EC02B
:1009600010BD2D4B9A42EAD02C4B9A42E7D02C4B2B
:100970009A42E4D0A1F55B74D3B2A242E0D0A3F1D5
:1009800010011823074CB1FBF3F1A24204F1AA04B1
:100990000B4688BF0833A24228BF0B460249D4E762
:1009A000005802580F0402400008024010B50179B7
:1009B0000139072917D80268134B9A421CBF134B01
:1009C0009A4205D0124B9A421CBF124B9A420BD14D
:1009D0008B00164C1A1904F140030124C0E91B23B3
:1009E00004FA01F1416710BD0B4B9A42F0D00B4B5A
:1009F0009A42EDD00A4B9A42EAD00A4C8B00A242AE
:100A0000E7D0094CE6E700BF085402581C540258CE
:100A100030540258445402585854025880540258D2
:100A20006C5402589454025800090240005902586C
:100A30007047EFF3108072B6FEE70000B0B5CB0749
:100A40002E4B0AD01C6824F4E6641C6042EA0024A1
:100A50001D682C4344F084041C6089070ED5D3F82C
:100A6000001142EA002021F4E661C3F80011D3F836
:100A70000011084340F08400C3F80001B0BD00BF7E
:100A800001F003031D4A032B16D1116821F0300138
:100A90001160D2F8001121F03001C2F80011116884
:100AA00001431160D2F800110843C2F80001D06878
:100AB00040F01000D0607047CB070AD0136823F0D5
:100AC00030031360136803431360136843F0880313
:100AD0001360890710D5D2F8001121F03001C2F857
:100AE0000011D2F800110843C2F80001D2F8000149
:100AF00040F08800C2F80001704700BF0C2000528F
:100B00002DE9F843274F884605460229B94608BF14
:100B100007F5807701F072F906466C1C38684007CB
:100B20000BD5002CFAD001F069F90146032015B16C
:100B3000891BA942F2D9BDE8F8834C46B8F1010FF0
:100B400004D1D9F800001849084005E0D9F800019F
:100B50001549084000F1004020F0004169B1134AF6
:100B6000936903439361124A024082420CBF606062
:100B7000C4F804110120BDE8F883B8F1010F06D1D3
:100B80002068C0030BD54FF48030606007E0D4F8D4
:100B90000001C00303D54FF48030C4F804010020E5
:100BA000BDE8F883102000520000EE174C1300241B
:100BB0000F00EF1FF8B5044601F020F9002C00F0FB
:100BC000B380054694F83500022840F0AF802768CE
:100BD000BF4EB7421CBFBF4887421ED0BE488742A7
:100BE0001CBFBE48874218D0BD4887421CBFBD48C5
:100BF000874212D0BC4887421CBFBC4887420CD0F9
:100C0000BB4887421CBFBB48874206D0BA488742D0
:100C10001CBFBA48874240F00B813868394620F043
:100C20001E00386051F8140F20F08000B7420860B1
:100C30003CD0A84887421CBFA748874236D0A74867
:100C400087421CBFA648874230D0A64887421CBFB7
:100C5000A54887422AD0A54887421CBFA44887429E
:100C600024D0A44887421CBFA34887421ED0A34873
:100C700087421CBFA248874218D0A34887421CBFA6
:100C8000A048874212D0A14887421CBFA048874293
:100C90000CD0A04887421CBF9F48874206D09F487F
:100CA00087421CBF9E48874240F0FB80206EB742BF
:100CB000016821F48071016024D0F84887421CBF8C
:100CC000F74887421ED0F74887421CBFF648874244
:100CD00018D0F64887421CBFF548874212D0F54825
:100CE00087421CBFF44887420CD0F44887421CBF9F
:100CF000F348874206D0F34887421CBFF248874238
:100D000040F0AB80386820F0010038603868C007D8
:100D100010D001F073F8401B0628F7D3202060653F
:100D2000032084F8350003E00120F8BD80206065D1
:100D3000012079E02068B0421CBFD84988421DD00C
:100D4000D74988421CBFD749884217D0D649884224
:100D50001CBFD649884211D0D54988421CBFD5490D
:100D600088420BD0D44988421CBFD449884205D060
:100D7000D34988421CBFD349884279D1A16DE26D25
:100D80003F2302F01F0203FA02F28A60B0423BD016
:100D9000C24988421CBFC249884235D0C1498842F5
:100DA0001CBFC14988422FD0C04988421CBFC049DE
:100DB000884229D0BF4988421CBFBF49884223D0FE
:100DC000BE4988421CBFBE4988421DD0BD498842E9
:100DD0001CBFBD49884217D0BC4988421CBFBD49D1
:100DE000884211D0BA4988421CBFBB4988420BD007
:100DF000BA4988421CBFBA49884205D0B9498842DD
:100E00001CBFB949884259D1E06ED4E919124A6031
:100E100030B1016821F480710160D4E91C014160A6
:100E2000012084F835000020002184F83410F8BD3A
:100E3000A54887423FF4F1AEA64887423FF4EDAEA5
:100E4000A24887423FF4E9AEA14938688F423FF497
:100E5000E5AE20F00E003946E8E69C4887423FF4B4
:100E600051AF9B4887423FF44DAF9A48874249E7CC
:100E7000954988423FF482AF964988423FF47EAF5D
:100E8000924988423FF47AAF914AA16D90423FF473
:100E900076AFE26D012302F01F0203FA02F24A600C
:100EA00074E7924887423FF401AF914887423FF48C
:100EB000FDAE904887423FF4F9AE23E78B49884264
:100EC000A2D08B4988429FD08A4988429CD0A7E70C
:100ED000100002402800024040000240580002403A
:100EE0007000024088000240A0000240B8000240AA
:100EF000100402402804024040040240580402400A
:100F000070040240A004024088040240B804024079
:100F1000085402581C540258305402584454025881
:100F200058540258B0B500285DD090F83510022909
:100F300057D10168584A914223D0584B99421CBF5F
:100F4000574B99421DD0574B99421CBF564B994263
:100F500017D0564B99421CBF554B994211D0554B57
:100F600099421CBF544B99420BD0544B99421CBF21
:100F7000534B994205D0534B99421CBF524B994257
:100F800034D191424FF0040380F8353023D04348E8
:100F900081421CBF424881421DD0424881421CBF51
:100FA0004148814217D0414881421CBF404881429C
:100FB00011D0404881421CBF3F4881420BD03F487E
:100FC00081421CBF3E48814205D03E4881421CBF41
:100FD0003D4881424DD1086820F0010008600021A1
:100FE00002E08021416501210846B0BD374B99429E
:100FF000C7D0374B9942C4D0364B9942C1D00A680A
:1010000022F00E020A600A6822F001020A60324AE7
:1010100091420BD0314A91421CBF314A914205D0D6
:10102000304A91421CBF304A91422BD100F1580402
:101030001ECC1D6825F480751D6002F01F0201237F
:1010400003FA02F24A60816E6160C16E31B10A68D2
:1010500022F480720A60D0E91C124A60002180F8F4
:101060003410012280F83520026D002ABCD0904750
:10107000B5E716488142AED015488142ABD015483D
:101080008142A8E7194A9142D0D0194A9142CDD065
:10109000184A9142CAD0E1E71000024028000240FD
:1010A00040000240580002407000024088000240A8
:1010B000A0000240B8000240100402402804024090
:1010C0004004024058040240700402408804024078
:1010D000B8040240A0040240085402581C540258AC
:1010E0003054025844540258585402586C54025810
:1010F00094540258805402582DE9FC4104460020C3
:101100000190D94FDFF8A80DA66DD0F800802068B7
:1011100035683168B8422AD0D44A90421CBFD44ABC
:10112000904224D0D34A90421CBFD34A90421ED052
:10113000D24A90421CBFD24A904218D0D14A904223
:101140001CBFD14A904212D0D04A90421CBFD04A14
:1011500090420CD0CF4A90421CBFCF4A904206D05A
:10116000CE4A90421CBFCE4A904240F09B81E16D36
:10117000082201F01F018A402A4235D00423BC46D0
:10118000B84224D0B94FB8421CBFB94FB8421ED0A4
:10119000B84FB8421CBFB84FB84218D0B74FB8428A
:1011A0001CBFB74FB84212D0B64FB8421CBFB64FA3
:1011B000B8420CD0B54FB8421CBFB54FB84206D0AC
:1011C000B44FB8421CBFB44FB84240F09381076897
:1011D0001F42674608D0036823F004030360B2602F
:1011E000626D42F00102626501228A402A422ED0DD
:1011F000B84224D09D4B98421CBF9D4B98421ED0B4
:101200009C4B98421CBF9C4B984218D09B4B9842D9
:101210001CBF9B4B984212D09A4B98421CBF9A4BD2
:1012200098420CD0994B98421CBF994B984206D0DB
:10123000984B98421CBF984B984240F06881436994
:101240001B0604D5B260626D42F0020262650422A0
:101250008A402A422ED0B84224D0844B98421CBFE8
:10126000834B98421ED0834B98421CBF824B9842BE
:1012700018D0824B98421CBF814B984212D0814BB0
:1012800098421CBF804B98420CD0804B98421CBFA8
:101290007F4B984206D07F4B98421CBF7E4B9842B2
:1012A00040F0438103689B0704D5B260626D42F051
:1012B00004026265102202FA01F129423ED008229E
:1012C000B84224D0CF4B98421CBFCF4B98421ED07F
:1012D000CE4B98421CBFCE4B984218D0CD4B984273
:1012E0001CBFCD4B984212D0CC4B98421CBFCC4B6C
:1012F00098420CD0CB4B98421CBFCB4B984206D0A7
:10130000CA4B98421CBFCA4B984240F01C810368EC
:10131000134213D0B16002680168520306D4C905B4
:1013200006D4016821F00801016001E0080301D43E
:10133000216C00E0A16C09B120468847E06D00F007
:101340001F01202000FA01F22A4263D020681023F6
:10135000B84224D0AB4DA8421CBFAB4DA8421ED012
:10136000AA4DA8421CBFAA4DA84218D0A94DA84218
:101370001CBFA94DA84212D0A84DA8421CBFA84D21
:10138000A8420CD0A74DA8421CBFA74DA84206D02A
:10139000A64DA8421CBFA64DA84240F0E1800568BA
:1013A0001D4237D0B26094F835300268042B19D151
:1013B00022F016020260426922F080024261226C31
:1013C0000AB9A26C1AB1026822F0080202603F203A
:1013D0008840B060002084F83400012084F8350093
:1013E000216D3CE0016852030CD4C9050ED401689C
:1013F00021F010010160002084F83400012084F8FD
:10140000350003E0080301D4616C00E0E16B09B131
:1014100020468847606D28B3606DC0071ED04FF42A
:101420001650B8FBF0F1042084F8350020680268FB
:1014300022F001020260019A013201928A4202D82E
:101440000268D207F7D1002184F834100068C00781
:101450004FF0030008BF012084F83500E16C09B1AA
:1014600020468847BDE8FC81100002402800024069
:1014700040000240580002407000024088000240D4
:10148000A0000240B80002401004024028040240BC
:1014900040040240580402407004024088040240A4
:1014A000A0040240654A90421CBF654A90420CD09D
:1014B000644A90421CBF644A904206D0634A9042FC
:1014C0001CBF634A904240F09080E26D02F01F031F
:1014D0000268550751D504259D4015EA01074CD0F7
:1014E0001104756060D4910662D4016821F0040192
:1014F00001605DE04F4FB8423FF469AE4E4FB842D5
:101500003FF465AE534FB84218BF08235FE6494B1E
:1015100098423FF494AE484B98423FF490AE4D4B06
:1015200098423FF48CAE026891E6424B98423FF4F9
:10153000B9AE414B98423FF4B5AE464B98423FF4AA
:10154000B1AE0268B6E63B4B98423FF4E0AE3A4B90
:1015500098423FF4DCAE3F4B984218BF0422D6E6D7
:10156000344DA8423FF41BAF334DA8423FF417AFB0
:10157000384DA84218BF022311E795071AD5022556
:101580009D4015EA010715D01104756027D4910616
:1015900029D4016821F00A010160002084F8340098
:1015A000012084F835001EE0D00301D4A16C56E779
:1015B000216C54E712077FF555AF08229A4011407D
:1015C0003FF450AF016821F00E010160012000FAE4
:1015D00003F171606065002184F834103CE7D003AA
:1015E00001D4616C3BE7E16B39E7FB4A90423FF481
:1015F0006CAFFA4A90423FF468AFF94988423FF431
:10160000B6AD2FE7280002404000024058000240DB
:101610007000024088000240A0000240B800024072
:1016200010040240280402404004024058040240D2
:101630007004024088040240A004024094540258FE
:10164000085402581C54025830540258445402584A
:1016500058540258B80402402DE9F843044600F0FB
:10166000CDFB002C00F09A8005462068C54FB8429B
:101670002AD0C54988421CBFC449884224D0C449E5
:1016800088421CBFC34988421ED0C34988421CBF40
:10169000C249884218D0C24988421CBFC149884209
:1016A00012D0C14988421CBFC04988420CD0C049F1
:1016B00088421CBFBF49884206D0BF4988421CBF30
:1016C000BE49884240F0F880022184F8351000219C
:1016D00084F83410016821F0010101600168C90734
:1016E00006D000F08BFB401B052852D82068F5E798
:1016F0000168BC4AB946D4E90257D4E906C301EAF5
:101700000208D4E90462D4E9081E45EA0805BEF1DE
:10171000040F45EA070545EA060542EA050242EAE2
:101720000C0242EA030241EA020103D1D4E90B238D
:1017300011431943AC4A1268B2F1005F0FD36568D8
:10174000A5F13F07132F04D80122A84BBA401A4233
:1017500003D1A5F12902062A01D241F480110160CA
:101760004F46BEF1040F416921F0070141EA0E0125
:1017700030D1D4E90A53294363B3BCF5005F10D0DC
:10178000BCF1000F19D1022D1AD0012D0FD0BDB11F
:1017900020E020206065032084F835000120BDE8AA
:1017A000F883032D16D8DFE805F00E0B0E02A3F127
:1017B000C072B2FA82F2520904E0032D03D309D1B8
:1017C000C3F3006232B140206065012084F8350027
:1017D000BDE8F88341612046FFF732F8E16D3F2212
:1017E00001F01F0102FA01F181602068B8423CD08B
:1017F000654988421CBF6549884236D064498842A1
:101800001CBF6449884230D0634988421CBF634989
:1018100088422AD0624988421CBF6249884224D04B
:10182000614988421CBF614988421ED06049884294
:101830001CBF6049884218D05F4988421CBF5F497D
:10184000884212D0664988421CBF5E4988420CD04B
:101850005D4988421CBF5D49884206D05C49884288
:101860001CBF5C49884240F080802046FFF758F852
:10187000A06804F16003802806BF002060606068F3
:10188000C5B20ECB013807280D60536009D8204639
:10189000FFF78CF804F16C02002307CA03604A606A
:1018A00003E00020C4E91B0060670020606501219F
:1018B00084F83510BDE8F883414988421CBF41498E
:1018C00088420BD0404988421CBF4049884205D01D
:1018D0003F4988421CBF3F4988423AD1022104F166
:1018E000080584F83510002184F834102ECD0668E0
:1018F0006FF31016402946EAD202A1F18006B6FA2B
:1019000086F64FEA56164FEA863608BF102642EA98
:101910000601A26941EAD30141EAD50141EAD201B7
:10192000E26941EAD201226A41EA121140F808193B
:10193000C0B21421B0FBF1F08000E0652046FEF754
:101940007FFFE16D012201F01F0102FA01F1416008
:101950004BE721498842C1D020498842BED0204966
:1019600088423FF4B1AE402014E71B4988423FF45F
:101970007CAF134988423FF478AF184988423FF45E
:1019800074AF92E71000024028000240400002407D
:10199000580002407000024088000240A00002404F
:1019A000B8000240100402402804024040040240F3
:1019B000580402407004024088040240A00402401F
:1019C00094540258085402581C5402583054025877
:1019D00044540258585402586C54025880540258C7
:1019E000B80402403F8010FE0010005C0F030F009F
:1019F000B0B5044600F002FA05460548611C0078BF
:101A000018BF044400F0FAF9401BA042FAD3B0BD5D
:101A10000C0000242DE9F047DFF8E891044699F81E
:101A20001400012801D102251AE00025C9F8185038
:101A3000012089F8140088466068C10709D04CF27B
:101A400050300121FFF75CF80546002818BF01253A
:101A50006068800707D46DB10125002089F8140063
:101A60002846BDE8F0874CF250300221FFF748F8D5
:101A70002843F1D12068644E012808D161682069AB
:101A8000FEF7FEFF6068C10734D1002540E04FF04B
:101A9000FF30C8F8000040F2047AA0680746E16809
:101AA0000844874245D2616822693846FEF7C6FF7E
:101AB0006068C10701D100250AE04CF250300121D5
:101AC000FFF71EF80546306820EA0A0030606068BB
:101AD00080070BD54CF250300221FFF711F8054674
:101AE000D6F8000120EA0A00C6F800011DBBA06874
:101AF0000137D4E74CF2503001210127FFF700F8FD
:101B00003168002821F00801316018BF3D46606847
:101B10008007A2D54CF250300221FEF7F1FFD6F833
:101B20000011002821F00801C6F8001118BF012596
:101B300093E7002591E7C8F800708EE732490868FE
:101B400040F0010008600868C0074FF0010008D0AD
:101B5000D1F8002142F00102C1F80021D1F80011B2
:101B6000884370472DE9F843264F387D012802D17C
:101B70000220BDE8F8830D466FF3130101201446DF
:101B80003875B1F1006F04D0B1F1016F38D1022680
:101B900000E001264CF2503031464FF00008C7F803
:101BA0001880FEF7ADFF48BB1748012E00F580797D
:101BB000494604BF42F20C01C5F200210A6842F016
:101BC00002020A600821BFF36F8FBFF34F8F04CC6E
:101BD000013904C50A06FAD1012E08BF8146BFF3B8
:101BE0006F8F4CF250303146BFF34F8FFEF788FFB6
:101BF000D9F8001021F00201C9F8001087F814800C
:101C0000BDE8F8834C1300240C2000520E48816874
:101C1000C90706D00D4901600D4901608168C907F7
:101C20000FD1D0F80811C90709D00849C0F8001130
:101C30000749C0F80011D0F80801C00701D1002001
:101C400070470120704700BF042000522301674500
:101C5000AB89EFCD2DE9FC4F5E4A0A244FF0000A14
:101C60004FF0000990425C4A08BF092402444FEA41
:101C7000B223092B38BF4FEAB224002200940E6829
:101C800036FA02F700F0A380012303FA02F716EAFE
:101C9000070B00F09680D1F804E003230EF0030C4C
:101CA000ACF10105012D13D803FA09F58468CB685E
:101CB000AC4303FA09F36FEA050823438360CEF3CC
:101CC00000134468BC4393405700234343600BE038
:101CD00003FA09F3BCF1030F4F466FEA030803D17F
:101CE0004F464FF0030C22E0C3688C68BCF1020F32
:101CF00003EA080304FA07F443EA0403C36016D1B5
:101D00000AF01C030F2404FA03FC6FF0030404EA36
:101D1000520505442C6A24EA0C0C0C6904FA03F3FE
:101D200043EA0C032B62D1F804E00EF0030C0468C4
:101D30001EF4403F0CFA07F304EA080443EA0403E4
:101D400003603ED0824C264E236843F0020323609A
:101D500023680F2403F002030193019D0AF00C0392
:101D600022F003059C40AF5927EA0404009F07FABC
:101D700003F32343AB514FF0B04633684D6843EA59
:101D80000B04EF0258BF23EA0B043460134EAF027A
:101D9000336843EA0B0458BF23EA0B043460AF03F3
:101DA000D6F8803043EA0B0458BF23EA0B04C6F888
:101DB0008040ED03F36F43EA0B0458BF23EA0B04A2
:101DC000F4670AF1040A09F10209013257E7BDE894
:101DD000FC8F00BF002402580000FEA7040000583A
:101DE000080400580069084018BF0120704700002F
:101DF00001480068000C70470010005C054800684E
:101E0000704700BF2948034900780A6810440860F9
:101E1000704700BF6813002480B5032000F0C4F8A9
:101E200002F00CF90E490F4B0A68C2F3032209684D
:101E300001F00F019A5C595C02F01F02D0401C4A6D
:101E400001F01F011060C840074908600F2000F032
:101E50000DF808B1012080BD00F06CF8002080BDB5
:101E6000184402583E8300080800002470B50F4E45
:101E700004463078B0B14FF47A71B1FBF0F00C4900
:101E80000968B1FBF0F002F0D7FB01250F2C0AD84E
:101E900048B94FF0FF3021460022002500F068F8D5
:101EA000746000E00125284670BD00BF0C000024CE
:101EB000040000240278114943780B60D2B14368D2
:101EC0004B60037B42EA0372C37A42EA0362837A7D
:101ED00042EAC342437B42EA8342837B42EA434273
:101EE000C37B42EA0342437A007A42EA032242EA8F
:101EF000400001E0002048608860704798ED00E0F5
:101F00000B48BFF35F8F016821F48031016000212D
:101F100001677047064940F001000867086840F40F
:101F200080300860BFF34F8FBFF36F8F704700BFE3
:101F300024ED00E081B00648016841F00201016033
:101F4000006800F002000090009801B0704700BFE8
:101F5000F4440258002808D400F01F01012240096F
:101F600002FA01F1014A42F82010704700E100E056
:101F700070B5134B4FF0FF351B68C3F30223DC1E13
:101F800083F0070338BF0024042B28BF042305FA7D
:101F900004F605FA03F3B2439943A1401143BDE8A7
:101FA000704005F07FBC00BF05494FF6FF030A688B
:101FB0001A4060F30A22034810430860704700BFCC
:101FC0000CED00E00000FA0501688A6942F0006249
:101FD0008A610122C0F80025002280F8F424486DAF
:101FE000024A104348650020704700BF03000010FC
:101FF00070470068416200207047B0B50068436ACE
:10200000B1B1846A013903EB14430024E5B2A9425B
:1020100007D900EB85050134D5F8045103EB1543CE
:10202000F4E700EB810043EA0241C0F8041102E04A
:1020300043EA024181620020B0BDD0F8080504F0F7
:10204000E3BB01EBC10200EB8202D0F80805926C01
:1020500004F04BBB01EBC10200EB8202D0F8080593
:10206000D2F8882204F098BBD0F8080504F0CEBB63
:1020700001F00F02090602EBC20200EB820303F13A
:102080003C0258BF03F51F720068114605F05ABAAA
:10209000B0B5044601F00F006268904201D90125F5
:1020A00021E009064FF0000500EBC00104EB8101BF
:1020B0005DBF002281F87D2201F51F71012244BF1E
:1020C00081F83D203C3108708D7094F8BC040128E3
:1020D00001D1022507E0012084F8BC04206805F046
:1020E0003FF984F8BC542846B0BDB0B5044601F0B1
:1020F0000F00090600EBC00104EB81015DBF002564
:1021000081F87D5201F51F71012544BF81F83D50D2
:102110003C318A600B7108704A7802B14883022B07
:1021200001D10020487194F8BC04012801D102209B
:10213000B0BD012084F8BC04206804F049FF0020F1
:1021400084F8BC04B0BDB0B501F00F01002501EB6F
:10215000C10400EB840404F522772CC784F87C12B8
:1021600084F87D5204F51F71C368012B08BFC4F8C1
:102170009822DAB2006805F027F90020B0BDB0B5AA
:10218000044601F00F054068854201D90120B0BD29
:10219000080609D401EBC100002104EB800080F89F
:1021A0007D1200F51F7108E005EBC500012104EB6D
:1021B000800080F83D1000F13C0194F8BC2401201F
:1021C0000D708870012A01D10220B0BD84F8BC04D2
:1021D000206805F0DDF82DB9217B206804F2C442A7
:1021E00005F092F8002084F8BC04B0BDB0B501F051
:1021F0000F0505EBC50100EB8104214601F83C5FAA
:1022000001F10C0700252CC701234B70C368012B7B
:1022100008BFA265DAB2006805F0D6F80020B0BDAC
:102220002DE9F04F89B005680646284605F024FAE6
:1022300010B109B0BDE8F08F306805F049FA002808
:10224000F7D0D5F80808C0F30D20C6F8FC043068B4
:1022500005F03EFA01463068890703D5416901F06F
:102260000201416105F50061039105F031FA014673
:10227000306808960495C9063ED5816921F01001A1
:1022800081612C6A04F00F05C4F3434006281CD07A
:1022900002282BD147F6F070044027D005EBC5008B
:1022A000220906EB80050498D5F8881205F014FA87
:1022B000D5F88802D5F8901200EB1410C5F8880202
:1022C00001EB1410C5F8900210E006F2C441049826
:1022D000082205F001FA05EBC50006EB8000D0F8F6
:1022E0009012C4F30A121144C0F890123068816948
:1022F00041F010018161049D05F0EAF9000312D458
:10230000DDF820A0DAF8000005F0E2F9400300F162
:10231000DB80DAF8000005F0DBF9002800F1A1818C
:10232000DAF80000B7E1089C206805F0B0F906462D
:1023300004F5277A4FF430684FF0000B04F2C440E4
:102340000790002EDCD0F00700F0B48008985FFA08
:102350008BF94946006805F0B3F90746C00757D026
:1023600005EB080001218160089C206808EB000152
:10237000036C8A68E468012C24D114072DD49406D8
:1023800044D412F0280F43D1E04CA34202D312F4FC
:10239000004228D1DAF800200969B8F5306F6FF3F0
:1023A000DF41A2EB01014AF80C1C2AD1089BD3F8AB
:1023B0008C22002A00F08680D3F888020844C3F8F3
:1023C00088021EE0D14CFF34A3420FD110040AD47E
:1023D000900616D52020886013E0CC48834217D39E
:1023E00012F4004014D04FF4004010E0B8F5306F04
:1023F00007D10899D1F88C1219B90021079A04F075
:1024000083FF08984946FFF725FE01E020208860F9
:10241000380723D505EB080008218160089801687A
:1024200008EB01000D6C81680904B849A1F10104B1
:1024300004D5A54284BF4FF400418160089800F0A4
:10244000CAFBA542049D09D90898C068012805D196
:1024500008980121079A006804F056FFF80603D592
:1024600005EB080010218160B80716D568690006E1
:1024700004D50399486840F4806048601AF81D0C40
:10248000012806D100200AF81D0C4946089800F0E2
:1024900070FA05EB080002218160B80603D505EB50
:1024A000080020218160B80404D505EB08004FF432
:1024B000005181600AF1240A08F1200876080BF126
:1024C000010B3EE7012199E7DAF8000005F0D8F8A2
:1024D00003460AF2C440029005F510600590002002
:1024E000002B3FF416AF0790D80700F0B680079E88
:1024F000DAF800000693F7B2394605F0CFF8044643
:10250000C00727D0039B06F00F00012202FA00F05B
:10251000596B21EA00005863059800EB4610826071
:10252000DAF80C00012811D106EBC6000AEB800096
:10253000D0E911121144816446B9DAF84C0028B987
:10254000DAF800000121029A04F0DEFE5046394616
:10255000FFF777FD200704D50598082100EB46100A
:102560008160E006069B04D50598102100EB46101B
:102570008160600604D50598402100EB461081601B
:10258000A00717D52846314605F044F806EBC600EB
:102590000AEB800010F83F1F012905D100210170CE
:1025A0005046394600F0E1F90598022100EB46104B
:1025B0008160069B200650D5079800EBC0000AEB0F
:1025C000800BD94659F84C0FC84658F8042F904252
:1025D00043D35BF8441F851ADAF800400BF1040678
:1025E0008D4288BF0D46079904EB411101F5106A31
:1025F00018E0089D3168DBF800302D7B0095851AC6
:1026000020463A469D4288BF1D46ABB205F038F9D8
:10261000306828443060D8F800004219C8F800201B
:10262000D9F80000DAF81830E91C9BB2B3EB910F2F
:1026300028BF9042DDD89042DDF820A0049D069B83
:102640000BD80798012100F00F0001FA00F0D4F830
:10265000341821EA0000C4F8340807985B080130F8
:102660003EE70399486820F0010048609AF8F404B6
:10267000012807D100208AF8F40400215046FFF712
:10268000B7FC02E0504600F08AFADAF8000041692F
:1026900001F00041416105F01BF8000502D4DAF8B1
:1026A00000000CE003988068C00702D0504600F09C
:1026B000DDFADAF80000416901F40061416105F0DA
:1026C00007F8000118D5DAF80000416901F000614F
:1026D00041619AF8F41419B1504600F0C7FA0BE0C2
:1026E00001218AF8F414406D0121C0F38300CAF877
:1026F000F8045046FFF77CFCDAF8000004F0E8FF2D
:10270000C00405D4DAF8000058E000BF0B30544F85
:10271000D5F80408102120F00100C5F80408DAF803
:10272000000004F077FF05F51060DAF804104FF6AA
:102730007F32039CA9B182600139036823F400133E
:102740000360C0F80822D0F8003223F40013C0F868
:102750000032D0F8003243F00063C0F8003220307D
:10276000E8E7E06940F00110E061DAF8300040B1DC
:10277000D4F8840040F00B00C4F8840004F1440055
:1027800006E0606942F22B010843606104F1100029
:1027900001680AF2C44241F00B010160206820F494
:1027A000FE6020609AF80C10DAF8000004F0ACFD2E
:1027B000DAF80000416901F48051416104F088FFBA
:1027C0000146DAF8000089041AD504F03FFCDAF873
:1027D000000004F043FFCAF81000DAF8004001F0EE
:1027E000EFFB9AF810200146204604F0D1FF504636
:1027F00000F0C0F9DAF80000416901F400514161CC
:1028000004F066FF000702D4DAF8000008E0504642
:1028100000F0C9F9DAF80000416901F008014161EE
:1028200004F056FF000608D4DAF8000004F050FF68
:10283000C00219D4DAF8000039E00499012440F20A
:10284000A325886920F080008861DAF804008442BA
:10285000EAD21AF80500012803D1E1B25046FFF789
:1028600007FC24350134F0E704980AF163040126DB
:10287000012700F51265DAF80400874211D260786A
:102880002968B1F1FF3F08DC012806D147F080003C
:102890002670C1B25046FFF7EBFB243420350137D8
:1028A000E9E7DAF80000416901F480114161049C14
:1028B00004F00EFF800202D4DAF8000031E004F5E3
:1028C00032610AF52970DAF80420012301249442C8
:1028D00021D206780D68B5F1FF3F13DC012E11D12E
:1028E000DAF8FC6405F4803506F00106B54209D13A
:1028F000049EB56945F08005B56100F8013C756935
:102900002D0603D5243020310134E0E703994868CF
:1029100040F400704860DAF80000416901F40011E9
:10292000416104F0D5FE400002D4DAF8000008E06E
:102930005046FFF782FBDAF80000416901F0804160
:10294000416104F0C5FE40077FF573ACDAF8000082
:102950004468610704D55046FFF786FBDAF80000AB
:10296000416821434160FFF764BCD0F8080503F0DB
:102970009FBFD0F8080503F0AEBF2DE9F04F8BB034
:10298000002800F087800446056890F8BD0428B947
:10299000002084F8BC04204600F092F8032084F85C
:1029A000BD04E86BC00501D40020E060206804F09D
:1029B000A5FC20680A9004F1040B04F1140E04F144
:1029C000240AD4E90C509BE80E089EE8C0509AE80F
:1029D0000007CDE9085002A8CDE900B680E8805094
:1029E00005A880E800070A9804F040FB00284ED1B3
:1029F00020680021002504F08AFE61680120002281
:102A0000D3B2994210D903EBC30604EB860686F8CD
:102A10003C20A6F8563086F83D00C6E91155F5640D
:102A200086F840500132EBE700200022D3B29942F1
:102A30000FD903EBC30304EB8303C3E9A10083F8BD
:102A40007C22C3F88C0283F8800283F87D02013275
:102A5000ECE7A0680A9004F1140E04F1240A22683D
:102A6000D4E90C50D4E9033B9EE8C0509AE8000733
:102A7000CDE9085002A8CDE900B680E8805005A84D
:102A800080E8000710460A9A04F074FB30B1022077
:102A900084F8BD0401200BB0BDE8F08F002084F85D
:102AA0003800012084F8BD04606A012802D1204664
:102AB000FFF78AFA206804F04FFB0020EBE70000E4
:102AC00070B5B8B0044633A81421FDF739FC02A84C
:102AD000C021C026FDF734FC20682349884240D13C
:102AE0004FF4802002900024022503941394119443
:102AF00010954FF40010249004200F90CDE90D653F
:102B000018200C9002A800F097FC08B1FDF791FF87
:102B100000F0E6F8154E33A9B06840F00100B0604F
:102B2000B06800F0010001900A20CDE93640CDE9FF
:102B300034544FF4C050339001980D48FFF78AF891
:102B400030680021002240F000603060306800F002
:102B50000060019001986520FFF70AFA6520FFF7F1
:102B6000F9F938B070BD00BF00000840D8440258E1
:102B70000000025810B50446006928B1022801D0AF
:102B8000FDF757FF012100E00021D4F8080503F00C
:102B900011FFD4F80805BDE8104003F0C4BED0F81A
:102BA000080503F0F0BED0F8080503F0F6BE10B536
:102BB000044690F8BC04012801D1022010BD84F81D
:102BC0003810012084F8BC04206804F0D1FD0020F6
:102BD00084F8BC0410BDD0F8082500F2C4411046AA
:102BE00003F0F4BE10B5044690F8BC04012801D1EE
:102BF000022010BD2068012184F8BC14C16BC905F6
:102C000006D4A16A012903D1816B41F4803181632B
:102C100004F0DAFC206804F091FA002084F8BC0487
:102C200010BDB0B5044690F8BC04012801D10220C3
:102C3000B0BD0120256884F8BC04284604F05EFB82
:102C4000206804F089FA2068102104F0E3FCE86BA6
:102C5000C00506D4A06A012803D1A86B20F48030F7
:102C6000A863002084F8BC04B0BD000010B5044681
:102C7000D0F8080503F0F5FE2068D0F8001E41F0FA
:102C80000101C0F8001E206A20B10348016841F02C
:102C90000601016010BD00BF10ED00E0B0B5134D9E
:102CA0002A682968520705D401F00701081A18BFDD
:102CB0000120B0BD21F0070108432860FFF79EF80E
:102CC000044655F8080C800407D4FFF797F8001B5A
:102CD000B0F57A7FF5D90120B0BD0020B0BD00BFAE
:102CE0000248016841F08071016070470C48025849
:102CF0002DE9FC411D46174688460446FFF77EF83D
:102D0000064694F84000012802D10220BDE8FC816B
:102D1000012084F8400094F84100012832D10020BD
:102D20006064202100223346422084F8410000954F
:102D3000204602F0EDFB30BB206897E80E10816260
:102D40004262C362C8F828C03969026822F44002AE
:102D500011434FF0006241F480010160204641467A
:102D600002F05BF920460821012233460095082530
:102D7000012702F0CDFB30B92068C560002084F83F
:102D8000417000E00220002184F84010BDE8FC8181
:102D9000F8B515460F460446FFF730F8064694F896
:102DA0004000012801D10220F8BD012084F8400034
:102DB00094F841100220012921D10021616484F896
:102DC00041002046002233460095202102F0A0FB5E
:102DD000A8B920463946002202F01FF9786A20B1CE
:102DE000012084F84100002009E020460221012250
:102DF000334600950225012702F08AFB18B1002115
:102E000084F84010F8BD2068C56084F84170EAE796
:102E100070B110B504460068016821F0010101603D
:102E2000204600F097F80020606484F8410010BD4F
:102E300001207047F8B50446FEF7E0FF2CB10546C7
:102E400094F8410018B1A06C07E00120F8BD2046BD
:102E500000F082F841F28830A0642168A2686FF027
:102E6000FF03002603EB02220B6823F4F8531A43F6
:102E70000A600090204620212B46002202F048FBE9
:102E800000B1F8BDD4E90001D4E903230F4F056870
:102E90003D402A4342EA0161E2691143226A11433B
:102EA00001600B4A4168114062691143A26941EA1D
:102EB000034111434160016841F0010101600120BB
:102EC000666484F841000020F8BD00BF2FFFFF00BA
:102ED000FEF8E0FF7CB516460D460446FEF78EFF71
:102EE000034694F84000012801D102207CBD012056
:102EF00084F8400094F84100012826D10020606445
:102F000020210022822084F84100A06C00902046FD
:102F100002F0FEFAD0B9206871680829026822F030
:102F2000080242EA0102026007D131680163102100
:102F3000C160016841F480110160204629464FF0CC
:102F4000406202F06AF8002000E00220002184F8CC
:102F500040107CBD704700002DE9F04F87B004465B
:102F600002A81421FDF7ECF920684349884240F09B
:102F700080804248424D02AC424E4FF009084FF06B
:102F800003094FF0000A0227816D41F480418165F9
:102F9000816D01F4804101910199016841F4804102
:102FA0000160016821F480410160816D41F480413C
:102FB0008165816D01F4804101910199416E41F07B
:102FC00010014166416E01F0100101910199416EBD
:102FD00041F002014166416E01F002010191019947
:102FE000416E41F020014166416E01F020010191E6
:102FF0000199416E41F008014166406E214600F0A2
:10300000080001900198CDF81880CDF81490CDF803
:1030100010A003970420029005F54060B0474020BF
:103020004FF00A0BCDE9059BCDE9037A02902146CA
:103030002846B0474FF40070CDE9059BCDE9037AEF
:103040000290214605F58050B0470420CDE905984F
:10305000CDE9037A029021462846B0474FF420502C
:10306000CDE90598CDE9037A0290214605F5006087
:10307000B04707B0BDE8F08F005000527C440258C2
:1030800000040258551C00082DE9FC4115468846ED
:103090000446FEF7B3FE27680646B86994F8401068
:1030A000012902D10220BDE8FC81012184F84010F1
:1030B00094F8411001292BD1B8F1000F4FF0000115
:1030C000616427D0222184F841100122396901313D
:1030D000A163396901316163796962F39B61796147
:1030E000C4F83080B861A06BD0B12046062101221F
:1030F0003346009502F00CFAF0B997F82000216BE6
:103100000870206BA16B01302063481EA063EAE7C2
:10311000022014E0606C40F00800606401200EE0C2
:1031200020460221012233460095022502F0F0F9E3
:1031300010B92068C5600020012184F841100021E9
:1031400084F84010BDE8FC812DE9FC411546884615
:103150000446FEF753FE0646276894F8400001280F
:1031600002D10220BDE8FC81012084F8400094F8DF
:103170004100012829D1B8F1000F4FF00000606430
:1031800025D0122084F8410038690130E0623869A6
:103190000130A062C4F82480786920F04060786132
:1031A000E06AD0B12046042101223346009502F0A6
:1031B000AFF9F0B9606A007887F82000606AE16AC8
:1031C00001306062481EE062EAE7022014E0606CB1
:1031D00040F00800606401200EE020460221012238
:1031E00033460095022502F093F910B92068C560B6
:1031F0000020012184F84110002184F84010BDE82E
:10320000FC81000080B500F0DBFE0549054A096835
:10321000C1F30211515C01F01F01C84080BD00BF25
:10322000204402583E830008B0B53B498B6A8A6A45
:10323000CC6AC4F30014CD6BC5F3CC056C4300EE2F
:10324000104AB8EE400AC2F30532AAB103F00303F4
:10325000022B15D0BBB90B689B0651BF9FED311AED
:103260000B68C3F3C103304C42BF24FA03F301EEF1
:10327000103AB8EE411A08E00021C0E9001148E018
:103280009FED271A01E09FED251A8B6B9FED273AE2
:103290006FF35F2302EE103AB8EE422A00EE032AE3
:1032A00003EE102AB7EE000AB8EE433A8A6BC2F377
:1032B000462232EE002A81EE031A21EE021A02EEB5
:1032C000102AB8EE422A32EE002A81EE022ABCEE23
:1032D000C22A80ED002A8A6BC2F3064202EE102A4F
:1032E000B8EE422A32EE002A81EE022ABCEEC22A51
:1032F00080ED012A896BC1F3066102EE101AB8EE67
:10330000422A32EE000A81EE000ABCEEC00A10EE3C
:10331000101A8160B0BD00BF004402580024744AF6
:10332000001BB74B0024744C0090D0030000003900
:10333000B0B53B498B6A8A6ACC6AC4F300244D6CF1
:10334000C5F3CC056C4300EE104AB8EE400AC2F358
:103350000552AAB103F00303022B15D0BBB90B68C9
:103360009B0651BF9FED311A0B68C3F3C103304C6C
:1033700042BF24FA03F301EE103AB8EE411A08E016
:103380000021C0E9001148E09FED271A01E09FED00
:10339000251A0B6C9FED273A6FF35F2302EE103A6C
:1033A000B8EE422A00EE032A03EE102AB7EE000A16
:1033B000B8EE433A0A6CC2F3462232EE002A81EE9E
:1033C000031A21EE021A02EE102AB8EE422A32EE59
:1033D000002A81EE022ABCEEC22A80ED002A0A6C85
:1033E000C2F3064202EE102AB8EE422A32EE002A5A
:1033F00081EE022ABCEEC22A80ED012A096CC1F3DB
:10340000066102EE101AB8EE422A32EE000A81EE90
:10341000000ABCEEC00A10EE101A8160B0BD00BFF9
:10342000004402580024744A001BB74B0024744C1B
:103430000090D003000000392DE9F0470446C07821
:10344000AD4F000722D5A06E4FEA3051032908D8AE
:10345000DFE801F002090F17F96941F40031F96161
:103460000FE0012613E004F10800022102F07AF8CF
:1034700004E004F12800022102F0F0F8064630B919
:10348000A06E396C21F4401108433864002660783E
:10349000BA46C00701D1354629E0A06D04280BD8F3
:1034A0003546DFE800F0030C12181800F8693546BD
:1034B00040F40030F8610EE00125012718E004F126
:1034C0000800002102F04EF804E004F12800002179
:1034D00002F0C4F805462F4655B9A06DDAF8401041
:1034E0000025524621F007010843CAF8400037463C
:1034F000607880072CD5E06D4FEAB01004280CD816
:10350000DFE800F0030E141A1A00DAF81C00514626
:1035100040F40030CAF81C000EE00125012618E036
:1035200004F10800002102F01DF804E004F1280075
:10353000002102F093F805462E4655B9E06DDAF801
:1035400040100025524621F4E0710843CAF84000BB
:103550003E466078400702D4B04657462BE0D4F888
:10356000A80057464FEA7050042809D8DFE800F059
:10357000030C12181800F86940F40030F8610FE0ED
:1035800001254FF0010816E004F10800002101F0C8
:10359000E9FF04E004F12800002102F05FF805468D
:1035A000A84645B9D4F8A800B96C0025B04621F466
:1035B00060010843B864607800072BD5D4F8AC00EC
:1035C0004FEA3060042809D8DFE800F0030B111738
:1035D0001700F86940F40030F8610EE0012501277A
:1035E00019E004F10800002101F0BCFF04E004F13F
:1035F0002800002102F032F805462F465DB9D4F8C4
:10360000AC00DAF848100025524621F0E06108438A
:10361000CAF848004746E078800725D5E06C4FEAB5
:10362000301003280BD8DFE800F013020D13DAF88E
:103630001C00514640F40030CAF81C0008E0012587
:10364000012612E004F10800022101F08BFF05467B
:103650002E4655B9E06CDAF83C100025524621F0B0
:1036600030010843CAF83C003E466078C0062CD5BD
:10367000206E4FEA303004280CD8DFE800F0030E4B
:10368000141A1A00DAF81C00514640F40030CAF847
:103690001C000EE00125012718E004F108000021BC
:1036A00001F060FF04E004F12800002101F0D6FFE2
:1036B00005462F4655B9206EDAF8401000255246CF
:1036C00021F4E0410843CAF840003746607880069C
:1036D00026D5606E4FEA304005280AD8DFE800F0B2
:1036E00014030E14141404F10800012101F03AFF30
:1036F00009E00125012614E01044025804F12800D5
:10370000012101F0ABFF05462E4655B9606EDAF88F
:1037100040100025524621F4E0210843CAF8400039
:103720003E466078400626D5D4F8B0004FEA3070A7
:1037300005280AD8DFE800F012030C12121204F177
:103740000800012101F00EFF07E00125012713E029
:1037500004F12800012101F081FF05462F465DB9E3
:10376000D4F8B000DAF848100025524621F0E041C4
:103770000843CAF8480037466078000621D5206F14
:1037800098B1B0F1005F0AD0B0F1805F2DD1DAF8C6
:103790001C00514640F40030CAF81C0005E004F15A
:1037A0000800012101F0DEFE05462E4655B9206FC6
:1037B000DAF840100025524621F040510843CAF87B
:1037C00040003E46E078C00702D1B046574623E0AD
:1037D000A06C574603280BD8DFE800F014020E1443
:1037E000F86940F40030F8610CE001250126E9E7B2
:1037F00001254FF001080FE004F10800022101F05B
:10380000B1FE0546A8463DB9A06CF96B0025B0464F
:1038100021F003010843F863A078400601D447462D
:1038200016E0D7F8F00340F48070C7F8F003FEF715
:10383000E5FA0646D7F8F003C00507D4FEF7DEFA2E
:10384000801B6428F6D90325032701E02F4695B194
:103850002078C0074FD0E06F4FEAF000052835D838
:10386000DFE800F03D03373D3D3D04F10800012154
:1038700001F078FE32E0DAF86010D4F8B400554672
:10388000414011F4407F0BD0296E2A6E42F4803201
:103890002A6621F440712A6E22F480322A66296653
:1038A000B0F5807F40F06982FEF7A8FA064641F243
:1038B00088390327DAF86000800700F15B82FEF7A1
:1038C0009DFA801B03254845F4D9C1E7012501264F
:1038D00012E004F12800012101F0C0FE05462E4649
:1038E00055B9E06FDAF844100025524621F038014E
:1038F0000843CAF844003E462078800722D5A06FCE
:1039000005280AD8DFE800F012030C12121204F1A5
:103910000800012101F026FE07E00125012712E041
:1039200004F12800012101F099FE05462F4655B902
:10393000A06FDAF844100025524621F00701084331
:10394000CAF8440037462078400724D5D4F89400BC
:1039500005280AD8DFE800F012030C12121204F155
:103960000800012101F0FEFD07E00125012613E01A
:1039700004F12800012101F071FE05462E465DB9D3
:10398000D4F89400DAF848100025524621F00701D7
:103990000843CAF848003E462078800626D5D4F869
:1039A00090004FEA307005280AD8DFE800F01203D3
:1039B0000C12121204F10800002101F0D3FD07E0FF
:1039C0000125012713E004F12800022101F046FE41
:1039D00005462F465DB9D4F89000DAF8441000256A
:1039E000524621F0E0410843CAF8440037462078A7
:1039F000400626D5D4F89C004FEAB02005280AD806
:103A0000DFE800F012030C12121204F1080000218A
:103A100001F0A8FD07E00125012613E004F12800CC
:103A2000022101F01BFE05462E465DB9D4F89C002C
:103A3000DAF848100025524621F4E0510843CAF84C
:103A400048003E462078000626D5D4F8A0004FEA6C
:103A5000703005280AD8DFE800F012030C121212A9
:103A600004F10800002101F07DFD07E00125012798
:103A700013E004F12800022101F0F0FD05462F4675
:103A80005DB9D4F8A000DAF848100025524621F4B8
:103A900060410843CAF8480037462068010717D537
:103AA000D4F88410B1F5805F0AD104F12800022116
:103AB00001F0D4FD002818BF01272068D4F8841035
:103AC000DAF84420534622F440521143CAF8441015
:103AD000C10617D5D4F89810B1F5807F0AD104F14A
:103AE0002800022101F0BAFD002818BF0127206834
:103AF000D4F89810DAF84820534622F44072114363
:103B0000CAF84810000321D5D4F8A400B0F5003F4E
:103B10000FD0B0F5803F06D080BB04F10800002133
:103B200001F020FD04E004F12800022101F096FDDF
:103B300005462E465DB9D4F8A400DAF848100025F1
:103B4000524621F440310843CAF848003E46A07866
:103B5000400729D5D4F88800B0F5401F17D0B0F53C
:103B6000001F0ED0B0F5801F40F0FF80DAF81C0077
:103B7000514640F40030CAF81C0008E00125012637
:103B8000E5E704F12800012101F068FD05462F4614
:103B90005DB9D4F88800DAF844100025524621F4C3
:103BA00040110843CAF844003746A078C00701D145
:103BB0003E4621E0206DB0F5803F08D0D0B9DAF85C
:103BC0001C00514640F40030CAF81C0005E004F126
:103BD0000800022101F0C6FC05462E4665B9206D9D
:103BE000DAF83C100025524621F480310843CAF827
:103BF0003C00DDE7012501262168880001D46068CA
:103C000009E004F12800022101F028FD002818BF76
:103C10000126D4E900108A031BD5D4F880206FF068
:103C2000010303EB3223022B0BD34FEA322343B1C0
:103C3000012B40F09D80DAF81C3043F40033CAF8C1
:103C40001C303DB9DAF8443023F440731A43CAF803
:103C500044203546CA0207D5626FDAF8403023F0B7
:103C600000431A43CAF84020CA0008D5D4F8B82047
:103C7000DAF8003023F480431A43CAF800208A029D
:103C800007D5E26EDAF8403023F080731A43CAF8A1
:103C900040204A000CD5DAF8002022F40042CAF88D
:103CA0000020D4F8BC20DAF800301A43CAF800200B
:103CB000B1F1FF3F07DC626DDAF83C3023F040538E
:103CC0001A43CAF83C20090208D5D4F88C10DAF857
:103CD000442022F440021143CAF84410C10708D01E
:103CE00004F10800002101F03DFC002818BF054642
:103CF0006068810708D504F10800012101F032FC59
:103D0000002818BF05466068410708D504F108007F
:103D1000022101F027FC002818BF05466068010752
:103D200008D504F12800002101F098FC002818BFF4
:103D300005466068C10608D504F12800012101F09C
:103D40008DFC002818BF05466068800607D504F181
:103D50002800022101F082FC002818BF0125002D57
:103D600018BF01252846BDE8F087012501271CE77B
:103D700001256FE75546D4F8B4002A68094900F4D4
:103D8000407322F47C5201EA1011B3F5407F6FF3C7
:103D90001F3008BF0A432A60296E084328660025A1
:103DA0003DE500BFCFFFFF002DE9F843002800F0FC
:103DB0000081814D04468846286800F00F00884243
:103DC0000BD2286820F00F0040EA0800286028681D
:103DD00000F00F00404540F0EC802068CC4F4107D8
:103DE0000AD52169BA6902F07002914204D9BA6910
:103DF00022F070021143B96101070AD56169FA69BD
:103E000002F07002914204D9FA6922F07002114363
:103E1000F961C1060AD5A169FA6902F4E06291422A
:103E200004D9FA6922F4E0621143F96181060AD5E6
:103E3000E1693A6A02F07002914204D93A6A22F0CA
:103E400070021143396210F002010AD0E268BB69C6
:103E500003F00F039A4204D9BB6923F00F031A43FE
:103E6000BA61C2073AD0D4E90101BA6922F470629A
:103E7000032841EA0201B96105D0022807D1396857
:103E800089030DD495E03968890109D491E0396836
:103E9000012802D1C90503D48BE0490740F189808C
:103EA0003969A94621F0070108433861FDF7A6FFEB
:103EB000064641F288356068396901F03801B1EB96
:103EC000C00F07D0FDF79AFF801BA842F3D903204B
:103ED000BDE8F88320684D4600F0020151B1E16869
:103EE000BA6902F00F02914204D2BA6922F00F02BD
:103EF0001143B961296801F00F0141450AD92968C8
:103F000021F00F0141EA08012960296801F00F0141
:103F100041454ED141070AD52169BA6902F07002C4
:103F2000914204D2BA6922F070021143B9610107CB
:103F30000AD56169FA6902F07002914204D2FA6905
:103F400022F070021143F961C1060AD5A169FA692C
:103F500002F4E062914204D2FA6922F4E062114371
:103F6000F96180060AD5E069396A01F0700188427A
:103F700004D2396A21F070010843386200F05EF81B
:103F8000B9692D4A1B4BC1F30321515C01F01F019C
:103F9000C840B969186001F00F01515C01F01F01C0
:103FA000C8401549086005480068BDE8F843FDF7BA
:103FB0005DBF0120BDE8F8830020005210000024FE
:103FC00080B500F03BF80A491B4B0A68C2F3032294
:103FD000096801F00F019A5C595C02F01F02D040A1
:103FE000044A01F01F011060C8400349086080BD09
:103FF00018440258040000240800002480B5FFF78C
:10400000DFFF0C490C4A0968C1F30211515C01F051
:104010001F01C84080BD00BF80B5FFF7D1FF054933
:10402000054A0968C1F30221515C01F01F01C84033
:1040300080BD00BF1C4402583E83000810B53449BF
:104040000869C0F3C20003280BD002282FD080BB20
:104050000868800634485AD50968C1F3C101C840D0
:1040600010BD8A6A886ACB6A4C6B03F00103C4F303
:10407000CC04634300EE103AB8EE400AC0F30510DA
:10408000C8B102F00302022A17D0CAB90A68920620
:1040900051BF9FED241A0A68C2F3C102224B42BFEE
:1040A00023FA02F201EE102AB8EE411A0AE01A4889
:1040B00010BD184810BD002010BD9FED191A01E079
:1040C0009FED161A0A6B9FED193A6FF35F2202EE0D
:1040D000102AB8EE422A00EE032AB7EE000A32EEAA
:1040E000000A02EE100AB8EE422A086BC0F346201E
:1040F00081EE021A013021EE000A01EE100AB8EE3C
:10410000411A80EE010ABCEEC00A10EE100A10BD82
:104110000044025800093D0000366E010024744A34
:10412000001BB74B0024744C0090D00300000039F2
:10413000F8B5002800F03F8104460078D44EC0074F
:1041400021D12078800740F19A80306910F0380141
:10415000B06A3DD0182908BF5FEA807038D0306857
:10416000E16800295ED020F0190008433060FDF7B7
:1041700045FE05463068400743D4FDF73FFE401B2F
:104180000228F7D9C8E1306900F03801B06A102977
:1041900005D018290AD100F00300022806D13068A2
:1041A0008003CED560680028CBD104E16068002888
:1041B00048D0B0F5803F07D03168B0F5A02F40F06F
:1041C000988141F480203060306840F4803096E17E
:1041D000E0683168490702D5002800F0EC803168BA
:1041E00021F0190108433060FDF708FE05463068EC
:1041F000400706D4FDF702FE411B03200229F6D931
:10420000F8BDFDF7F5FD41F20301884230D8206981
:10421000716821F47C31402814BF41EA003041F438
:1042200000302BE020F001003060FDF7E7FD05468F
:104230003068400723D5FDF7E1FD411B032002292B
:10424000F6D9DDE7306820F480303060306820F443
:1042500080203060FDF7D2FD0546306880037FF591
:1042600070AFFDF7CBFD411B03206429F5D9C7E7EB
:104270002069716821F0FE4141EA00607060207899
:10428000C00640D5306900F03801B06A082905D071
:1042900018291CD100F00300012818D13068C0058E
:1042A00003D5E069802840F08680FDF7A1FD41F24A
:1042B0000301884220D8206A716821F0F841202843
:1042C00014BF41EA806041F0804070601BE03068BC
:1042D000E169002900F0DE8040F080003060FDF7E9
:1042E0008DFD05463068C005DFD4FDF787FD411B15
:1042F00003200229F6D983E7206AF16821F07C5176
:1043000041EA0060F0602078000756D420788006EB
:1043100065D42078400776D4676A002F49D0306989
:1043200000F03800182840F0C680B16A306B012FC9
:1043300041D0A26A01F0030393423CD1E26AC1F387
:104340000511914237D10146226B6FF35F21013A8B
:10435000914230D1C0F34621626B013A91422AD199
:10436000C0F30641A26B013A914224D1C0F306602A
:10437000E16B013988421ED1A06C716BC1F3CC0195
:10438000884216D0F06A20F00100F062FDF736FD99
:104390000546FDF733FDA842FBD0706B4FF6F87170
:1043A0008843A16C40EAC1007063F06A40F00100EC
:1043B000F0620020F8BD0120F8BD706F6169A9B3FB
:1043C00040F001007067FDF719FD0546706F80072A
:1043D0009CD4FDF713FD401B0228F7D99CE0306800
:1043E000A169002943D040F480503060FDF706FDFC
:1043F0000546306880043FF58CAFFDF7FFFC401B9D
:104400000228F6D988E0D6F8000440F48070C6F897
:104410000004FDF7F3FC0546D6F80004C00516D4E9
:10442000FDF7ECFC401B6428F6D975E020F0010094
:104430007067FDF7E3FC0546706F80077FF566AF98
:10444000FDF7DCFC411B03200229F5D9D8E6A06862
:10445000002863D0012806D0316F052840F0D580B0
:1044600041F004003067306F40F00100D3E020F4E9
:1044700080503060FDF7C2FC0546306880047FF54F
:1044800048AFFDF7BBFC411B03200229F5D9B7E675
:104490000044025820F080003060FDF7AFFC054674
:1044A0003068C0057FF52FAFFDF7A8FC411B032046
:1044B0000229F5D9A4E6306820F080703060FDF75D
:1044C0009DFC0546022F09D1306880013ED5FDF7DD
:1044D00095FC411B03200229F6D991E63068800142
:1044E0007FF567AFFDF78AFC411B03200229F5D950
:1044F00086E621F480303060306820F4802030601F
:10450000FDF77CFC0546306880033FF51AAEFDF7E9
:1045100075FC401B6428F6D90320F8BD306F20F0ED
:1045200001003067306F20F004003067FDF766FC53
:10453000054641F28837306F80077FF5EDAEFDF715
:104540005DFC411B0320B942F5D959E604F1280569
:10455000B06A40F2F33188432ECD0843591E40EA39
:104560000210B0626FF35F214FF4FE024FF47E4001
:1045700000EB452080B20844A16B02EB01414FF0F3
:10458000FE4201F4FE010844E16B02EB016101F01F
:10459000FE41084430634FF6F871F06A20F00100E4
:1045A000F062706B8843A16C40EAC1007063206CBC
:1045B000F16A21F00C010843F062F06A616C20F0AE
:1045C00002000843F062F06A40F48030F062F06A62
:1045D00040F40030F062F06A40F48020F062F06A4B
:1045E00040F00100F062306840F080703060FDF70C
:1045F00005FC0446306880013FF5DBAEFDF7FEFBAD
:10460000011B03200229F5D9FAE521F001003067EA
:10461000306F20F004003067FDF7F0FB054641F2F3
:104620008837306F80073FF577AEFDF7E7FB411B1A
:104630000320B942F5D9E3E5411E0020B0EB116F2C
:1046400001D001207047044A51600449087090600D
:1046500007211160704700BF10E000E023ED00E08B
:1046600090F88410012901D1022112E02421C0F820
:10467000881001680A680B6823F001030B6022F0C0
:1046800000520A600021416680F884102022C0F8A0
:1046900088200846704770477047B0B5044690F8C8
:1046A0008400012801D10220B0BD2420C4F8880074
:1046B00020680568026822F001020260012284F885
:1046C0008420826822F0606211438160204601F0FC
:1046D00009F9206820210560002084F88400C4F8CE
:1046E0008810B0BDB0B5044690F88400012801D10F
:1046F0000220B0BD2420C4F8880020680568026844
:1047000022F001020260012284F88420826822F0F3
:10471000604211438160204601F0E4F820682021C6
:104720000560002084F88400C4F88810B0BD70478C
:1047300070477047F8B50446006840F62F01C2691B
:1047400002EA010501688368202D0ED101F02005E1
:1047500003F08056AD1900F08580616F002900F0EC
:104760006C812046BDE8F840084740F60F052A4214
:1047700078D0B24D01EA0506B14D1D40761971D0D1
:10478000D60718BF11F4807607D001260662D4F848
:10479000906046F00106C4F8906003F001069707A8
:1047A00008D53EB102270762D4F8907047F004079D
:1047B000C4F89070570708D53EB104260662D4F8B5
:1047C000906046F00206C4F8906016070BD501F021
:1047D0002006354307D008250562D4F8905045F0EF
:1047E0000805C4F8905015050BD511F0806508D068
:1047F0004FF400650562D4F8905045F02005C4F8E8
:104800009050D4F89050002D00F0178112F0200243
:104810000AD001F0200103F08052891804D0616FA2
:1048200011B1204688472068D4F89010806801F0C4
:10483000280100F04000401800F0D380204601F02D
:1048400029F920688168490640F1E88050E8020FA4
:10485000216820F0400041E80202002A00F0D280E6
:104860002068F3E701EA0205EE06E66E3BD5012E6D
:1048700039D1102101628168490641D4B4F85E1033
:10488000B4F85C20B4F85E30002B00F0D680511AEA
:104890000A0401D1D1E0206850E8000F226820F41A
:1048A000907042E80003002BF5D16748226852E877
:1048B000022F2368024043E80225002DF6D1202074
:1048C000C4F88C0000206067E066206850E8000FA4
:1048D000226820F0100042E80003002BF5D189B2D5
:1048E0000220206758E0D6025BD513F4800658D02A
:1048F0004FF4801101622046BDE8F840FFF718BF71
:10490000D4F8802011684B689DB2002D00F095808E
:10491000B4F85C108D4280F09080A4F85E30D269CB
:10492000B2F5807F32D050E8000F216820F480700B
:1049300041E800020AB12068F5E7206850E8020F5C
:10494000216820F0010041E80202002AF5D1206828
:1049500050E8020F216820F0400041E80202002ADE
:10496000F5D12020C4F88C000020E066206850E8D3
:10497000000F216820F0100041E80002002AF5D164
:10498000D4F88000FCF716F9B4F85C100220206718
:10499000B4F85E00081A81B22046BDE8F840FFF77F
:1049A0007ABE160607D501F0800603F400039B19B2
:1049B00001D0A16FD2E66B0609D4100233D511F0F5
:1049C000804030D02046BDE8F840FFF7B0BE50E848
:1049D000000F216820F0400041E8000242B1206849
:1049E000F5E72046FFF7A5FE0020C4F89000F8BDCB
:1049F0000020A0672020C4F888002046BDE8F840C9
:104A000000F018B9D4F8800040B10E490165FCF7F8
:104A100089FA90B1D4F88000016DA3E62046BDE884
:104A2000F840FFF786BED00107D5B1F1FF3F04DCA7
:104A30002046BDE8F840FFF72FBEF8BD2001000476
:104A400001000010855A0008FEFFFFEF10B5B0B15D
:104A50000446D0F8880028B9002084F88400204655
:104A600000F026F82420C4F888002068016821F0AE
:104A700001010160204601F039F8012801D101202F
:104A800010BDA06A10B1204600F04EFF20684168BA
:104A900021F490414160816821F02A018160016820
:104AA00041F0010101602046BDE8104000F091BFD7
:104AB00070B5B8B0044633A81421FBF741FC02A836
:104AC000C021FBF73DFC20682649884248D102A856
:104AD00000260225039602952096FEF7ADFC08B14C
:104AE000FBF7A7FF2048816841F080418160816821
:104AF00001F0804101910199016841F020010160BC
:104B0000006833A900F0200001900720CDE936604D
:104B1000CDE93456C020339001981448FDF79AF837
:104B2000134D4FF4806040215022124BC5E90032F2
:104B3000C5E90216286105F114001421FBF700FCF9
:104B40002846FCF789FD08B1FBF773FF52200021CE
:104B50000022AC63E567FDF70BFA5220FDF7FAF986
:104B600038B070BD00780040E0440258001402588C
:104B7000E40C0024100002402DE9F8430446D0F86C
:104B8000880020281FD18846012000294AD01746D6
:104B9000002A47D04FF000091D46C4F8909021200C
:104BA000C4F88800FDF72AF9A4F856700646A4F860
:104BB0005470A068B0F5805F08D12769002F0CBF42
:104BC000C146474603E00220BDE8F8834746B4F8F3
:104BD0005600D0B12046802100223346009501F0D6
:104BE00049F908BB27B1216817F8010B886206E074
:104BF00039F8021B206800276FF35F218162B4F847
:104C000056000138A4F85600E1E720464021002272
:104C10003346009501F02EF92021C4F888100028B1
:104C200018BF0320BDE8F8832020C4F888000320C3
:104C3000BDE8F8837047FEE7F0B552000023372443
:104C40000025AA420FD004EB1076070FB0F1204FD9
:104C50004FEA001038BF07F130064E5545F0010607
:104C600002358B55EDE7F0BD80B5FCF767FF0020FE
:104C700080BD0000FEB524490144490C0E2915D819
:104C800000210091B0F1016F204B4FF001024FF075
:104C9000020138BF0121019198424FF0010125D353
:104CA00003F50032904209D202221FE0B0F1104F0A
:104CB00025D300F1E04000F087FA1FE003F58022E1
:104CC000904201D2032211E003F5C022904201D2AA
:104CD00004220BE003F50022904201D2052205E0F8
:104CE00003F520230722984238BF06222020049093
:104CF000CDE9022105A96846FCF78CFE08B1032026
:104D000000E0002006B080BD0000FEF700000408AF
:104D10000020D0700120A2F801000020704780B56B
:104D2000FCF774FF002080BD10B50C46410D4029F2
:104D300007D821466AB110F8013B013A01F8013B5E
:104D4000F8E7B0F1104F04D300F1E041204600F045
:104D5000ADFA204610BD00002DE9F84F8246480DFF
:104D60008B46009240283AD82548834537D3254DB5
:104D700043F6E0784FF00009009881453CD20020CE
:104D80006860BFF34F8F2968C1F34E30C1F3C90289
:104D90009107013208EA40130C46174644EA03061D
:104DA00004F14044013FC5F8EC61F7D1431E0028EF
:104DB0001846EFD1BFF34F8F0BEB09070AEB09043D
:104DC0000120BFF36F8F39462246FCF7CBFE80B936
:104DD0003868216809F120098142CDD009E0BBF192
:104DE000104F06D30BF1E0415046009A00F0F2FA62
:104DF00010B10320BDE8F88F0020BDE8F88F00BF98
:104E00000000020880ED00E0E0B50A4800220168D9
:104E100041F0010101600068002100F001000190F3
:104E200001980B20FDF7A4F80B20BDE88C40FDF79E
:104E300091B800BFD8440258FEB530490020CDE9F2
:104E400004000A6842F010020A600A6802F01002C8
:104E50000092009A0A6842F001020A600A6802F0B1
:104E600001020092009A0A6842F002020A600A688F
:104E700002F002020092009A0A6842F040020A60C0
:104E80000A6802F040020092009A0A6842F00802A2
:104E90000A600A6802F008020092009A0A6842F466
:104EA00080720A600A6802F480720092009A0A68AE
:104EB00042F080020A600A6802F080020092009AC2
:104EC0000A6842F020020A600A6802F0200200929A
:104ED000009A0A6842F004020A60096801F00401BD
:104EE00000910099CDE902004FF400700190044850
:104EF00001A9FCF7AFFE06B080BD00BFE044025838
:104F00000000025870B50020E74C00214C2902D067
:104F100060540131FAE720460B4D2560FDF778FF1C
:104F2000002020620121162210232026C4E900510E
:104F3000C4E90263C4E90420C4E906102046BDE8C0
:104F40007040FDF777BF00BF0050005210B5164CFF
:104F50000C200021154A164BC4E90032C4E90211A5
:104F6000C4E9041004F118001421FBF7E9F9204604
:104F7000FFF76CFD08B1FBF75CFD0B480021FFF764
:104F8000B1FB08B1FBF755FD07480021FFF785FB92
:104F900008B1FBF74EFD0448FFF762FB18B1BDE80E
:104FA0001040FBF746BD10BDB412002400CA080033
:104FB0000078004080B510481049002201F078FBCD
:104FC00008B1FBF736FD0C480D4901F06BFD08B147
:104FD000FBF72FFD08480B4901F002F908B1FBF778
:104FE00028FD054801F084FD08B1FBF722FDBDE86E
:104FF0008040FDF775BE00BF080A0024140000249D
:105000003000002494000024FEE7FEE70148FDF78D
:1050100007B900BF5C0D002470472DE9F0414B6AD1
:10502000B2F1406F18BF002B03D004688D6A013DB8
:1050300025618C690D6A7CB3002D49D0D0F800C081
:10504000CE698F68D1E904E82B43002ECCF81C70A0
:10505000D1E90B57486B43EA050343EA070340EAEB
:10506000030040EA884040EA0E034BD044EA0200C5
:10507000CC68B2F1406F40EA060040EA03000B68DA
:1050800040EA040040EA0300CCF8140072D04868FB
:10509000CCF81800BDE8F081EDB3006801F12C07F1
:1050A000CC698E68D1E904CE2B43002CC661E0CFD9
:1050B00043EA050343EA060343EA070343EA8E4350
:1050C00043EA0C0341D014432343CC68234334E028
:1050D000D1E90B76D1F814C04D6BD1F81CE03B43FD
:1050E000BEF1000F43EA060343EA050343EA8C439B
:1050F0002ED01443CD6844EA0E0423430C682B439E
:10510000234319E044EA0200096818430843CCF835
:105110001400BDE8F081CC69FCB11343D1E90B6701
:105120004D69D1F80CC023434C6B33433B432343BD
:1051300043EA854343EA0C030068B2F1406F4361E0
:1051400018D049688161BDE8F08143EA020110E0AE
:10515000224309681A4311430AE05BB11A43D1E9BB
:105160000B454B69496B22432A43114341EA834172
:1051700000684161BDE8F08180B594B000201390D3
:10518000CDE91100CDE90D004FF480710B90049032
:1051900000900C916A4641F288334FF480004FF042
:1051A000807105900F911020052102900691012039
:1051B0000390019006A9D548FDF79AFD002818BF75
:1051C0006FF0020014B080BD80B58EB04FF4005275
:1051D00000210D91CDE90B1103920190D820089187
:1051E0000991059100904FF4807206924FF480620D
:1051F000079200F01BF908B1FE200EE0C348694693
:1052000041F28832FDF7C4FD08B1FC2005E0FFF74C
:10521000B3FF002818BF6FF0020040B20EB080BD8F
:1052200010B5FFF76FFE00F0A5F8054C00F072F81E
:10523000A04203D103A0214602F008FC002010BDCB
:105240001740EF00573235513634204F4B2C666CE7
:105250006173682049443A25580D0A0080B590B022
:105260004FF480704FF40051089000200F90CDE96A
:105270000D0005914FF040710B910A90CDE90000AF
:105280004FF44061099106210791EB21029100F052
:1052900071F89E4802A96A46FDF71CFE002818BF57
:1052A0006FF0050010B080BD6812002410B58EB0FC
:1052B000044600200D90CDE90B0008900A92019160
:1052C000694641F288324FF4005003904FF48070E9
:1052D00006904FF0407009904FF440600790062010
:1052E0000590EB2000908948FDF752FD30B98748C2
:1052F000214641F28832FDF7C7FE18B1FB2040B2CB
:105300000EB010BDFFF738FF002818BF6FF0020085
:10531000F5E700BF10B590B04FF480704FF4005126
:1053200008907A4C41F2883200200F90CDE90D00B0
:1053300005914FF080710B910A900990079003211D
:105340009F200C91029002A92046FDF721FD0DF14E
:105350000501204641F28832FDF796FE9DF80610C1
:105360009DF805009DF80720090241EA004010441D
:1053700010B010BD80B58EB000200D90CDE90B00AF
:10538000CDE907004FF480710990CDE9050141F2A4
:1053900088326620009069465C48FDF7F9FC08B148
:1053A000FF2003E0FFF7E8FE18B1FD2040B20EB089
:1053B00080BD99200090694641F288325348FDF73C
:1053C000E7FC0028ECD1FFF7D7FE002818BF6FF0EC
:1053D0000200EBE7F8B50546C8B20C465618C0F512
:1053E0008077974288BF174600F020F8B0B9BAB26C
:1053F0002846214600F052F890B9FFF7BDFE88B963
:105400003C443D4404F58070B0424FF4807088BF46
:10541000301BA6420746E7D8002004E0FE2002E049
:10542000FB2000E0FD2040B2F8BD000010B594B0B4
:105430004FF4807000241394CDE91144CDE90D445C
:105440000F94CDE90B4006A941F288320620069060
:105450002E48FDF79DFC08B1FE201BE002200494BD
:10546000CDE900004FF4800105916A4641F288338E
:10547000012003901090102102914FF080700F9046
:1054800006A9052006902148FDF732FC002818BF28
:105490006FF0020040B214B010BD00BF10B58EB066
:1054A0004FF40053044600200D90CDE90B00039308
:1054B000089005900A9201914FF480730693322070
:1054C00000904FF0407309934FF480630793FFF708
:1054D000ADFF08B1FE200EE00C48694641F288326B
:1054E000FDF756FC30B90948214641F28832FDF7F4
:1054F0002BFE18B1FB2040B20EB010BDFFF73CFEF2
:10550000002818BF6FF00200F5E700BF6812002402
:105510002DE9F843DDF82090984616460F460446DC
:1055200009F1010520688068384018BF0120B042A9
:1055300014D0002DF6D0FCF761FCB9F1000F03D0B8
:10554000A0EB08004845EDD9042084F84100606CC8
:1055500040F0010060640120BDE8F8830020BDE850
:10556000F8830000F8B5D44F0546B86A00F0030090
:10557000032801D10120F8BD38680C4620F0806076
:105580003860FCF73BFC06463868000105D5FCF79F
:1055900035FC801B0228F7D95CE095E80F00BE6A55
:1055A00026F47C36A1F1010146EA0030B8626FF3BF
:1055B0005F214FF47E4000EB42204FF0FE4280B26C
:1055C00008444FF4FE0101EB034101F4FE010844DD
:1055D000296902EB016101F0FE410844B863686982
:1055E000F96A21F0C00140EA0100F862A869F96A8D
:1055F00021F0200140EA0100F8624FF6F871F86AE4
:1056000020F01000F862F86B20EA0100E96940EA36
:10561000C100F863F86A40F01000F8623CB1F86A23
:10562000012C14BF40F4001040F4801002E0F86A2E
:1056300040F40020F862386840F080603860FCF781
:10564000DDFB04463868000106D4FCF7D7FB001BDD
:105650000328F7D30320F8BD0020F8BDF8B5964F16
:105660000546B86A00F00300032801D10120F8BD07
:1056700038680C4620F080503860FCF7BFFB0646C7
:105680003868800005D5FCF7B9FB801B0228F7D9E4
:105690005CE095E80F00BE6A26F07C76A1F101017E
:1056A00046EA0050B8626FF35F214FF47E4000EB92
:1056B00042204FF0FE4280B208444FF4FE0101EB5D
:1056C000034101F4FE010844296902EB016101F084
:1056D000FE41084438646869F96A21F4406140EA8F
:1056E0000100F862A869F96A21F4007140EA01003A
:1056F000F8624FF6F871F86A20F48070F862786CFE
:1057000020EA0100E96940EAC1007864F86A40F4DF
:105710008070F8623CB1F86A012C14BF40F08070D0
:1057200040F4000002E0F86A40F48000F862386853
:1057300040F080503860FCF761FB04463868800018
:1057400006D4FCF75BFB001B0328F7D30320F8BD4E
:105750000020F8BD7047FCF755BB0000B0B59CB009
:1057600009A84C21FAF7ECFD01A82021FAF7E8FD81
:1057700002200224FDF792FA0020009027480168D9
:1057800021F001010160006800F001000090244850
:10579000016864F38F310160016801F440410091B8
:1057A000009901688904FCD51E49022300240325C1
:1057B000425863F3010242500C20CDE91A44CDE96E
:1057C0001830CDE91633149578201590CDE91233B1
:1057D0004FF480300A900120099009A8FEF7A8FC38
:1057E00018B1EFF3108072B6FEE740204FF48061ED
:1057F00007910890CDE9050008200490CDE90254F6
:1058000002213F20019001A8FEF7CEFA18B1EFF374
:10581000108072B6FEE71CB0B0BD00BF2C0400586B
:105820001848025810FCFFFF10B52148214A0168B2
:1058300041F470010160106800F00F00062804D8E0
:105840001068072161F3030010601B481B4C0168BE
:1058500041F0010101600021016103682340036000
:1058600013681B0704D51368072464F3030313604C
:10587000134A8161C16101628262124AC262124AA4
:10588000026341638263C16302644164026822F47B
:105890008022026001660D480068B1EB507F02D1A2
:1058A0000B48012101600B4843F2D201016010BD99
:1058B00088ED00E000200052004402587FEDF6EA37
:1058C000000202020000FF01800201010010005CE2
:1058D00008810051004000520148FEF72BBF00BF75
:1058E000B4120024B0B5416E91B102680C4B0D4D5D
:1058F0009168C1F342619268520F5C5C695C9B5C89
:10590000AA5C09011201B1FBF4F1B2FBF3F201E070
:1059100001220121A0F86810A0F86A20B0BD00BFE4
:105920006E8300086683000810B5816ACA0706D036
:105930000268C36A546824F40034234353608A071E
:1059400006D50268036B546824F480342343536003
:105950004A0706D50268436B546824F48024234325
:1059600053600A0706D50268836B546824F4004428
:1059700023435360CA0606D50268C36B946824F4B7
:105980008054234393608A0606D50268036C9468AA
:1059900024F40054234393604A0610D50268436CF4
:1059A000B3F5801F546824F4801444EA030454605F
:1059B00005D1836C546824F4C00423435360090662
:1059C00006D50168C06C4A6822F400221043486082
:1059D00010BDBCB504460020C4F89000FCF70EFAD8
:1059E000054620680168090719D56FF07E400090D0
:1059F0004FF4001100222B46204600F03BFA68B11C
:105A0000206850E8000F216820F0800041E8000283
:105A1000002AF5D12020C4F8880025E0206800681D
:105A2000400723D56FF07E4000904FF480010022A4
:105A30002B46204600F01EFAC0B1206850E8000F47
:105A4000216820F4907041E80002002AF5D1206816
:105A500050E8020F216820F0010041E80202002A0C
:105A6000F5D12020C4F88C00032007E02020C4F8E2
:105A70008800C4F88C000020E0662067002184F8CC
:105A80008410BCBD806B0021A0F85E10A0F85610F9
:105A9000FEF74FBE10B5016851E8001F026821F4FF
:105AA000907142E80013002BF5D10F49026852E8CB
:105AB000022F03680A4043E80224002CF6D1C16E8D
:105AC000012909D1016851E8001F026821F0100185
:105AD00042E80013002BF5D12021C0F88C100021E2
